:02000004600694
:100300009701FA009381015017011A01130181CF5F
:100310000171970200009382E205739052309702B8
:10032000FA00938222CE1703FA001303E3D5638603
:10033000620023A002009102DDBF971200009382A9
:10034000E21A1703FA001303E3CB9703FA0093832F
:1003500063CB6309730003AE02002320C301910243
:100360001103C5BFEF00301873005010F5BF010036
:100370007310013417011A011301C1C8130181F769
:1003800006C00EC412C616C81ACA1ECC22CE26D06B
:100390002AD22ED432D636D83ADA3EDC42DEC6C075
:1003A000CAC2CEC4D2C6D6C8DACADECCE2CEE6D045
:1003B000EAD2EED4F2D6F6D8FADAFEDCF322103422
:1003C00096DEF322003016C1F322003416C21171FA
:1003D000D12B17011A011301E1C2130181F7F65263
:1003E000739012348A42739002308240A2413242AA
:1003F000C2425243E243724482541255A2553256CD
:10040000C2565257E257725886481649A649364A8C
:10041000C64A564BE64B764C865C165DA65D365E4C
:10042000C65E565FE65F1241730020300100130084
:100430000000130000001300000037150660411192
:100440001305450506C622C4EF00A07337150660E4
:1004500013050507EF00E072B7070440CC433715DA
:10046000066013050509EF00C071B70704408C4B07
:10047000371506601305850AEF00A070B707044022
:100480008C5B371506601305050CE52DB707044096
:10049000CC4B371506601305850DE525B7070440DD
:1004A0008C4F371506601305050FE12D37140660D4
:1004B00013058410F925371506601305C510D125DD
:1004C000B70706408C4B371506601305C512552D2E
:1004D000B70706408C5F3715066013054514552590
:1004E00013058410792D371506601305C515512D98
:1004F000B795DC1437150660938505381305051785
:100500004925B725B9293715066093850570130568
:100510008518852DB7959B023715066093850527AD
:100520001305051AB92D9129AA85371506601305FB
:10053000C51B812D130584102244B240410191A5B1
:100540008280411122C426C24AC006C69547AA84A9
:100550002E84328963F3A7023717066037160660C8
:10056000B715066013074742930680041306061E5C
:10057000938585250145EF00407BBD4763F38702E6
:100580003717066037160660B7150660130747422F
:10059000930690041306061E938505270145EF0078
:1005A000C078B7C7041413553400938707C03E952D
:1005B000860426950A051D881C4106040D4733173D
:1005C00087001347F7FF7D8F93773900B240B397C9
:1005D00087002244D98F1CC1924402494101828084
:1005E000411122C426C24AC006C695472A84AE8459
:1005F000328963F2A7023717066037160660B7150F
:10060000066013074741930660061306061E93858E
:1006100085250145192FBD4763F2970237170660FC
:1006200037160660B7150660130747419306700634
:100630001306061E938505270145C52DB7C704146B
:10064000938727C53305F4000A051C418545B395FA
:100650009500630A0900DD8DB24022440CC192442A
:1006600002494101828093C5F5FFFD8DF5B7411127
:1006700022C426C206C695472A84AE8463F2A70226
:100680003717066037160660B71506601307474030
:100690009306000A1306061E9385852501457125DC
:1006A000BD4763F297023717066037160660B71525
:1006B0000660130747409306100A1306061E93852B
:1006C000052701459D25B7C70414938787C53E9428
:1006D0000A041C408545B3959500DD8DB2400CC0E1
:1006E0002244924441018280411122C406C626C29E
:1006F0004AC08D472E8463F1A70E37170660371660
:100700000660B7150660130707459306B007130682
:1007100046289385C52F0145092D61C00145B2408A
:100720002244924402494101828083A7C18795E314
:10073000B7371050D853B7576E0A9387079C418339
:1007400019C7B7470F0093870724B307F70223AEF3
:10075000F186B7170660131925009387C745B706BA
:100760001050CA9798429C43D98F9CC28947631501
:10077000F50205463285B545E9330146B5450545DF
:100780008535B5450545E53505463285B945553BC1
:100790000546B9453285A93503A7C187935714008B
:1007A000BA97054763E4870033D78702B717066017
:1007B0009387C746CA97944323A206020F00F00FFF
:1007C0009317070193E76731DCD20F00F00F03A501
:1007D000C1873355E502A1B7A9F937170660371667
:1007E0000660B7150660130707459306C007130692
:1007F00046289385C53101450D2B0DB7411122C403
:1008000006C68D472E8463FFA70E3717066037167E
:100810000660B7150660130747449306F00B1306EE
:1008200046289385C52F0145092369E82244B24033
:100830003717066037160660B7150660130747447A
:100840009306000C130646289385C53201454101E5
:10085000E9A937470F00130707249441C18A99C2B9
:100860007D1765FF37470F00130707249443858AD8
:1008700099C27D1765FF9841418B49E39843058BE9
:1008800035EFB2866374CF0093060010B30FE40017
:1008900083C20F00B30FA700050723805F00E39713
:1008A000E6FE23A0AE002320DE0023A065000F009B
:1008B000F00F37470F001307072483AF050093FF9E
:1008C0000F0163840F007D176DFB37470F0013077F
:1008D000072483AF070093FF1F0063840F007D1779
:1008E0006DFB9841418B19EB9843058B01EB3694D6
:1008F000158E850801C63387080121FFB2402244C6
:100900004101828085D5B71706600A059387C746DF
:10091000AA979C4321783705005093858701938ED1
:100920000701138E47018148938707021308089631
:10093000130F00101305050041436DBF011106CED2
:10094000A307B1008D4763E9A70005469305F100B1
:100950007535F240056182803717066037160660EC
:10096000B7150660130787439306501113064628F0
:100970009385C52F0145552EE9BF03A5C18715E114
:10098000B7371050DC5337556E0A1305059CC183E9
:1009900099C737450F00130505243385A70223AEF9
:1009A000A1868280797106D622D426D24AD04ECE34
:1009B00052CC56CA73272034B7070080AD0763189E
:1009C000F706F32900FC370400619397190013041C
:1009D000040063D907003C5C91C737C701E00545B7
:1009E00008CF8297B71406609384C4470149854AAB
:1009F000514AB3972A01B3F7370199C79C40884BF6
:100A000088CB1C4091C38297050991041104E3121D
:100A100049FF85679387078073A04730B2502254FF
:100A200092540259F249624AD24A45618280B7F72C
:100A3000125098474D9B98C7B7F712509387C71429
:100A400098431367270098C3B7F71250938747134B
:100A500098431367270098C302C6B247F5DF7DBFEE
:100A600083A7018889EFB7570500B7B601E09387E0
:100A700007739CD20F00F00F854723A0F188828076
:100A800083A7018895E3411106C6D93FB7B701E0B6
:100A900037B701E0910721078C4308439443E39D56
:100AA000D5FEB24041018280B7B701E037B701E01F
:100AB000910721078C4308439443E39DD5FE828030
:100AC00083A70188411122C406C626C24AC02A84CF
:100AD00091E379377537AA842E895D37B30795403E
:100AE0003335F500B38525416394A500E3E787FE20
:100AF000B24022449244024941018280011126CA37
:100B000006CE22CC4AC8440031E1930700032302F9
:100B1000F10085473E8793060003634EC7040144F6
:100B20006344F6003304F6403E947D147D59B38748
:100B300084008385070009457D140935E31924FFE6
:100B4000F2406244D244424905618280268781474F
:100B5000A548B376B5021388760563E4D8001388F8
:100B6000060323000701B356B50285070507E363B3
:100B7000B5FA3685F9BFB385E4002380D5000507B3
:100B800069BF5971A2C486C6A6C2CAC04EDE52DC75
:100B900056DA5AD85ED6AECAB2CCB6CEBAD0BED22B
:100BA000C2D4C6D62A8405E1371706603716066018
:100BB000B71506601307C74C9306A0021306C63389
:100BC0009385453B9D22DC083ECE93095002130AD3
:100BD000000313093007930A5007130B3006930BD9
:100BE00040068305040081EDB6402644964406493C
:100BF000F259625AD25A425BB25B65618280639558
:100C0000350D830514006387450305040146638B96
:100C100025096342B9046383650B638A75059307ED
:100C200050026383F50A930550020945013B830591
:100C3000040059A8090401462547294583050400F5
:100C4000938705FD93F6F70FE363D7FC3306A602FF
:100C500005043E96E5B76380550593078007E39446
:100C6000F5FCF247C145138747003ACE15A8F24775
:100C70008443138747003ACE63DA04009305D00219
:100C8000094532C665393246B3049040A9452685E8
:100C9000B5350504B9B7F247A945138747003ACEE1
:100CA0008843FDB7F2478443138747003ACE8385D4
:100CB0000400E5D1094585045131D5BFF24783854C
:100CC0000700138747003ACE09458D39D9B7F1653A
:100CD00093850520094509BC411106C6CD3FB240A8
:100CE00001454101F1BB411106C6FD372926EFF050
:100CF000CFF4EFF0FF84F5BF11CAFD15814733072C
:100D0000F6000307070011E7BE852E9523000500B6
:100D1000828093861700AA972380E700E387B6FEB8
:100D2000B687F1BF8280828001A0697123261112EB
:100D300023248112232291123684AA842320211392
:100D4000232E31112E89BA89232C4111232A5111C6
:100D5000B28AC93FB7574553370A20619387376531
:100D60002320FAF04A86930500041305CAF02322D3
:100D70009AF023248AF04937568693050004130518
:100D8000CAF49D3F4E86930500031305CAF8AD379C
:100D90008D47232E0AFA63EE9708B717066013975C
:100DA00024009387874DBA979443B717066001478D
:100DB0009387473D08089305F00F3306F7000306B5
:100DC00006002DEEBA879305F00F3386E74036967E
:100DD0000306060019C2639BB7061387270063EE5C
:100DE000E500938707118A979306D0052380D7F0F3
:100DF00093060002A380D7F0BA87BE861306F00FD1
:100E000063910A0613871600930700106304F70620
:100E100093870611B38627009307A0032380F6F07B
:100E2000B306E500635B0404330480400546814754
:100E3000A1A8B71606609386463C85BFE304B7F8C1
:100E40003308E5002300C800050785BF3308F50017
:100E50002300C800850795BFB305D5002380E500B2
:100E600085063387F64056970307070041DFE39571
:100E7000C6FE49BF1307F00F65B725EC93070003C3
:100E80002302F10001468547B14813034100294878
:100E900021A8B3650403330EF3008507334404032C
:100EA000938505032300BE0019C0E39417FF814515
:100EB00009CA130607119305D0020A962300B6F05B
:100EC0008545AE963E861308410015E6BA97AE9763
:100ED0006382090693855700BE86B717066093871D
:100EE000C73C1306F00F36878506637FD600BA86A7
:100EF0002DA001462DBF7D16B308C80083C8080089
:100F00008506A38F16FFD1B7038807003307D500E6
:100F10008507A30F07FFE398B6FCB6879305F00F8C
:100F20003387D7404E970306070009C6138717007B
:100F300063FAE506138747009306F00F63E6E602BF
:100F400013870711B30627001307A0032380E6F0D9
:100F50001306000213872711A380C6F00A97930691
:100F600080028D072300D7F03E879305F00F6316AC
:100F70000904930737009306F00F63EBF604930719
:100F8000071133872700930790022300F7F0A94742
:100F9000A300F7F0230107F079338947638DF4024A
:100FA000613301A0B307E500A38FC7FEBA878DBFE9
:100FB0003307D500A30FC7FE3687B306F740CA969E
:100FC000038606005DD693061700E3F3D5FE55B7FA
:100FD000A3070110D1B78320C112032481128324F7
:100FE0004112032901128329C111032A8111832A85
:100FF000411155618280411122C426C217040000AC
:101000001304C44E970400009384444E818C4AC05C
:1010100006C6898401496315990217040000130468
:10102000E44C970400009384644C818C89840149CA
:10103000631D9900B24022449244024941018280DA
:101040001C40050911048297F9B71C4005091104D9
:101050008297F9BF506F776572204D616E61676549
:101060006D656E742044656D6F0D0A0D0A000000F9
:10107000436C6F636B2047656E65726174696F6E58
:1010800020556E69742028434755293A0D0A0000FF
:1010900020204347555F4C503A202020202020300C
:1010A00078253038780D0A0020204347555F534596
:1010B0004C303A202020203078253038780D0A0036
:1010C00020204347555F53454C313A2020202030A3
:1010D00078253038780D0A0020204347555F464474
:1010E0005F46434C4B3A203078253038780D0A0063
:1010F00020204347555F46445F41434C4B3A2030E4
:1011000078253038780D0A000D0A0000506F776599
:1011100072204D616E6167656D656E7420556E69F4
:10112000742028504D55293A0D0A00002020504DBA
:10113000555F43523A202020202020307825303837
:10114000780D0A002020504D555F53523A20202040
:101150002020203078253038780D0A0044657269E7
:1011600076656420636C6F636B733A0D0A00000050
:10117000202041434C4B3A202020257520487A20DE
:1011800028435055290D0A00202046434C4B3A2055
:101190002020257520487A202842494F290D0A0031
:1011A000202050434C4B3A202020257520487A209F
:1011B0002850574D20726566290D0A002020706561
:1011C00072636C6B3A20257520487A20285541526D
:1011D000542F5350492F493243290D0A0000000073
:1011E000433A5C55736572735C61726D7374726FB0
:1011F0006E6773756265726F5C4465736B746F7054
:101200005C50726F64756374735C30325F526F76DA
:101210006172695F53747564696F5C526F76617255
:10122000695F53797374656D5F53747564696F5C3E
:10123000746172676574735C42616F636869703171
:10124000785C76656E646F722F62616F31785F676C
:1012500070696F2E63000000706F7274203C20472D
:1012600050494F5F4E554D5F504F52545300000050
:1012700070696E203C3D204750494F5F4D41585F9B
:1012800050494E00433A5C55736572735C61726DF0
:101290007374726F6E6773756265726F5C446573A9
:1012A0006B746F705C50726F64756374735C303212
:1012B0005F526F766172695F53747564696F5C52D7
:1012C0006F766172695F53797374656D5F5374757E
:1012D00064696F5C746172676574735C42616F63AB
:1012E00068697031785C76656E646F722F62616FC9
:1012F00031785F756172742E63000000696E7374DB
:10130000616E6365203C20554152545F494E5354F1
:10131000414E43455F434F554E5400006261756432
:1013200072617465203E203075000000286461748D
:10133000612920213D204E554C4C0000433A5C551C
:10134000736572735C61726D7374726F6E677375BF
:101350006265726F5C4465736B746F705C50726F22
:1013600064756374735C30325F526F766172695F6B
:1013700053747564696F5C526F766172695F5379FB
:101380007374656D5F53747564696F5C74617267C3
:101390006574735C42616F6368697031785C76650F
:1013A0006E646F722F62616F5F737464696F2E6316
:1013B0000000000028666D742920213D204E554C08
:1013C0004C000000554E4B4E4F574E003A20696E70
:1013D000200000005B534556532D000041535345F8
:1013E00052540000494E56415249414E54000000AB
:1013F000434845434B000000554E52454143484148
:10140000424C45006770696F5F70756C6C5F7570FA
:10141000000000006770696F5F7365745F646972D4
:10142000000000006770696F5F7365745F66756EBA
:101430006374696F6E000000756172745F7075741B
:1014400063000000756172745F77726974650000F3
:10145000756172745F696E697400000001000000BC
:1014600002000000040000000800000000101050FE
:10147000002010500030105000401050004000E09C
:10148000005000E0000001E0001001E0002001E059
:10149000003001E0004001E0005001E0006001E0A8
:1014A000007001E0006000E0007000E0008000E0FB
:1014B000009000E000A000E000B000E000C000E00C
:1014C00000D000E000E000E000F000E06D696E692F
:1014D0005F7072696E746600DC130660E413066068
:0814E000F0130660F81306602A
:04000005600603008E
:00000001FF
