:100000006F00202800000000FC010000FE0100003D
:1000100000000000000000000000000000000000E0
:1000200000000000000000000000000000000000D0
:1000300080020000000000008002000000000000BC
:1000400080020000800200008002000080020000A8
:10005000BE09000080020000800200008002000053
:100060008002000080020000800200008002000088
:100070008002000080020000800200008002000078
:10008000800200008002000080020000DA08000008
:1000900080020000300900007C0700000100000021
:1000A000511126C022C206C4828201008244124439
:1000B000A240310182800000634E050263C3050443
:1000C0002E86AA857D5515C285466378B60063568F
:1000D000C00006068606E36CB6FE014563E4C50073
:1000E000918D558D85820582F5FA82808682C93F81
:1000F0002E8582823305A0406347B000B305B0402F
:10010000C1B7B305B0408682653F3305A040828207
:10011000868263C70500634905005D372E858282AC
:10012000B305B040E35B05FE3305A040513F330506
:10013000B04082820100EFF2BFF613050002E92B06
:10014000130540060D22D5BFEFF29FF513051002EF
:10015000E1231305800C012AD5BFEFF27FF41305CC
:1001600020025D2B1305C012FD28D5BFEFF25FF30F
:100170001305300255231305401FF520D5BFEFF2BC
:100180003FF28145130500024D29814513051002F8
:100190006D218145130520024D2181451305300253
:1001A000692969201307000C9386C1A601469305AF
:1001B0006013138581B649201307000C9386C19AFA
:1001C000014693058014138541B5BD201307000C2B
:1001D0009386C18E01469305A015138501B4A92805
:1001E000B70600201307000C9386C602014693054C
:1001F000C0161385C1B2892055BDA9A801A0B707B3
:10020000EFBE37E700E0938707083CC701A0232033
:1002100015002322250000C544C583A0050003A1C5
:1002200045008045C4458280228582849387C1B77A
:100230009CCB23A8F1808280930780221CC183A7D6
:100240000181BA96F19A984B54C110C54CC518C992
:1002500088CB828003A501810C496305B50023A8E2
:10026000B18075B78280EFF2BFE32A84CD2B2A9448
:10027000FD23B307A4406343F0000DBDE13FCDBFB4
:1002800001A0970100209381E1571701002013017D
:1002900061571305000A970500209385A5D6170618
:1002A0000020130626D663FAC5008322050023A08A
:1002B000550011059105E3EAC5FE17150000130569
:1002C000E5A2970500209385E5D3170600201306C5
:1002D00066D463FAC5008322050023A055001105EA
:1002E0009105E3EAC5FE13850181970500209385FA
:1002F000650C6377B500232005001105E36DB5FE9D
:10030000896293820288739002308D42739042809A
:1003100097020000938202CF93E232007390523032
:10032000EF004001970200009382C24173901234A3
:1003300073002030EFF2DFD6371402401C4037073D
:10034000FFF8414593E717001CC05C40F98F5CC083
:100350001C403707F7FE7D17F98F1CC01C4037077C
:10036000FCFF7D17F98F1CC05C4041777D17F98F2A
:100370005CC0B7079F001CC45D221C4C93E70702BA
:100380001CCCB71701409387074098431377F7F0C9
:1003900098C398431367070898C3094798CBB7F7E2
:1003A000FF1F03C5477D9307F00F6304F5007D89A8
:1003B000BD22B72702409843C176FD16719B98C3B2
:1003C00098431367170098C3B7170240D843D8C3A0
:1003D000D843758FD8C3D843B7060001D8C3984314
:1003E000558F98C3984393166700E3DD06FED84304
:1003F000B7160240719BD8C3D84313672700D8C3F0
:100400002147DC42B18BE39EE7FE4DB1B7160240B7
:10041000DC422147B18B6390E704DC423775DC0294
:10042000130505C0D8428567938787AB11833D8B41
:10043000BA9783C70700D84293F5F70F13770708D9
:10044000B357F50011EFEFF2BFC59D393707002014
:100450002320A700A1B937356E0113050560D9B770
:10046000370700202320F7008280EFF27FC3B70711
:10047000002003A50700B7157A0093850520893170
:100480001375F50F238BA18093175500898F8A0769
:100490003E950E05239AA18011B9944593F7060164
:1004A00093F2F60081C7DC41B3E2F20083D305008A
:1004B00093F7F30FA5C303230500611122C226C0E1
:1004C0008147130480029304800405473316F70024
:1004D00033F7C3006312E602939527003D473317B5
:1004E000B7001347F7FF33776700B395B20033E3E4
:1004F000E500639D860050C985072147E397E7FC27
:10050000124423206500824421018280E39696FEF6
:1005100010C9DDB782800CC982804CC98280371730
:1005200002401C430E0593F777F05D8D08C382806F
:10053000B7170240984F81C5498F98CF82801345E5
:10054000F5FF798D88CF8280B7170240D84F81C5DB
:10055000498FD8CF82801345F5FF798DC8CF82802F
:1005600023ACA1808280370700C0835705002A97FB
:1005700019C737D7FEBF130707402A9711E703D7DC
:10058000250093F7F7F8D98F03D7650093F7F7CFD6
:10059000D98F2310F50083D745002316F50283D7A2
:1005A00005002314F502B7370140938707C063168F
:1005B000F50083C785002318F5028547231AF50047
:1005C00082808357050091C593E717002310F5003B
:1005D000828041677917F98FD5BF8357C50009C657
:1005E000CD8F2316F500828093C5F5FFED8FD5BF23
:1005F0004859420541818280835705010355C50052
:10060000ED8F6D8DB337F0003335A0007D8D828086
:1006100093C5F5FF2318B500828011818D4763E9EA
:10062000A70085670A05938747CCAA97884309E501
:1006300037150140130505408280EFF27FA6411176
:100640002EC0935445008D472A8463ED9704856737
:1006500013972400938747CCBA979C43A1C785671B
:1006600093962400938747CCB6979C43A9EF1377C2
:10067000F4008547B397E7002312F1008D473EC48D
:100680008247231301002316010023170100FD17E1
:100690001947636DF70405678A071307C7C8BA9738
:1006A0009C438287056705668565130787CA93069D
:1006B0008005130686AC938505B4054565228D47F4
:1006C000E3E797FA69BF83C7C1818545B394950075
:1006D000E58FD1FF8567938747CBB6978843893DE0
:1006E00083C7C181DD8C238E918051B7C1473EC63F
:1006F000228525374C00553341014DBA9147C5BF7E
:1007000093078004EDB793078002D5B7D147C5B7EB
:10071000E147F1BFF147E1BFEFF29F982A84F53D31
:1007200058459376F4008547B397D7009395070112
:10073000F98FC18181C7D5336FF05F97E93BEDBF7A
:10074000EFF21F960545293DD1310533B70700204B
:1007500083A7070099EF3707002005668565130713
:100760008700930650021306C6B6938545BE05451D
:10077000D528A928C12C21344934FDBF130181FD9E
:100780002ACA2EC837050040854506D216D01ACE93
:100790001ECC32C636C43AC23EC0B93D11C98545E9
:1007A00037050040B53583A70182850723A0F18274
:1007B000925082527243E2435245C2453246A246AB
:1007C000124782471301810273002030EFF25F8DE0
:1007D000854551112E858D3BB707002003A40700E6
:1007E000B7470F009387F72363EF87000567056618
:1007F0008565130747CD930660031306C6BF93852F
:1008000045C705458520B7450F00938505242285FA
:10081000231101002313010023140100EFF05F8A6C
:100820007D159307703E2310A1008A85370500408F
:100830002312F1000D3B054637050040B285231811
:100840000500613BB7E700E01307000423A2E710AF
:10085000854537050040B53331016FF03F8503A56D
:1008600001828280EFF2DF832E847111B2859307BB
:10087000800873B00730B707002037564553938779
:1008800007701306366590C3C8C394C789CD370572
:1008900000207D461305C5703AC05922B7070020D5
:1008A000A3850772024701CF370500207D46BA8530
:1008B0001305C572B522B7070020A385077401CCC4
:1008C000370500207D46A2851305C574912AB70718
:1008D0000020A38507760100FDBF130181FD2ACA10
:1008E000373501402EC8130505C0854506D216D000
:1008F0001ACE1ECC32C636C43AC23EC0F53919C92A
:10090000373501408545130505C0193383A741825A
:1009100091C38297925082527243E2435245C2453C
:100920003246A246124782471301810273002030EB
:10093000130141FD2ACA373501402EC8130505C0F1
:10094000894506D416D21AD01ECE22CC32C636C461
:100950003AC23EC0553105C13735014089451305BE
:1009600005C07D3103A4818219C4373501401305C8
:1009700005C0BD3902946244A25092520253F24320
:100980005245C2453246A246124782471301C10270
:1009900073002030B7070140938707409843DC4B32
:1009A000698FE98F3337E000B337F0003375F70014
:1009B0008280B707014093870740C8CB8280797156
:1009C00022CE06D616D41AD21ED026CC2ACA2EC8BB
:1009D00032C636C43AC23EC001448547B39487004C
:1009E00026854D3F19C92685E937931724001387BB
:1009F00001B9BA979C4391C382970504A147E31EAE
:100A0000F4FC7244B250A25212538253E244524553
:100A1000C2453246A24612478247456173002030E4
:100A2000AA8709CA03C7050085058507A38FE7FEC6
:100A30007D1665FB3E966393C70082808507A38F72
:100A400007FED5BF511122C2170700001307072A5E
:100A50001704000013048429198C26C006C40984D5
:100A600081446394840217070000130727281704A2
:100A700000001304A427198C098481446392840222
:100A8000A240124482443101828093972400BA9795
:100A90009C43850482971707000013072725D1B7C9
:100AA00093972400BA979C43850482971707000008
:100AB0001307C723E1B70000010203040506070876
:100AC0000102030405060708433A5C557365727317
:100AD0005C61726D7374726F6E6773756265726F4D
:100AE0005C4465736B746F705C50726F6475637493
:100AF000735C30325F526F766172695F53747564F4
:100B0000696F5C526F766172695F53797374656D5A
:100B10005F53747564696F5C746172676574735C4C
:100B200043483332563030335C726F766172692FCE
:100B3000726F766172695F6770696F2E6300000083
:100B4000696478203C204E554D5F504F52545320DD
:100B5000262620706F72745F7461626C655B6964D5
:100B6000785D20213D204E554C4C0000433A5C55A9
:100B7000736572735C61726D7374726F6E67737597
:100B80006265726F5C4465736B746F705C50726FFA
:100B900064756374735C30325F526F766172695F43
:100BA00053747564696F5C526F766172695F5379D3
:100BB0007374656D5F53747564696F5C746172679B
:100BC0006574735C43483332563030335C726F76F1
:100BD0006172692F726F766172695F6D61696E2EE5
:100BE0006300000053797374656D436F7265436CE5
:100BF0006F636B203E20305500000000433A5C5587
:100C0000736572735C61726D7374726F6E67737506
:100C10006265726F5C4465736B746F705C50726F69
:100C200064756374735C30325F526F766172695FB2
:100C300053747564696F5C526F766172695F537942
:100C40007374656D5F53747564696F5C746172670A
:100C50006574735C43483332563030335C726F7660
:100C60006172692F726F766172695F7469636B2E4E
:100C70006300000074696D65725F636C6B203E3DBC
:100C8000203130303030303055000000FC0600009C
:100C900000070000060700000C0700001007000016
:100CA00014070000F006000070696E5F6D6F6465E8
:100CB0000000000004000000000000001000000020
:100CC000200000000008014000000000001001406A
:100CD00000140140726F766172695F7469636B5FC3
:080CE000696E69740000000058
:100CE800006CDC02000000006D61696E000000000D
:00000001FF
