:100000006F00401B00000000A0010000A2010000E2
:1000100000000000000000000000000000000000E0
:1000200000000000000000000000000000000000D0
:10003000B201000000000000B2010000000000005A
:10004000B2010000B2010000B2010000B2010000E4
:10005000B2010000B2010000B2010000B2010000D4
:10006000B2010000B2010000B2010000B2010000C4
:10007000B2010000B2010000B2010000B2010000B4
:10008000B2010000B2010000B2010000B2010000A4
:10009000B2010000B20100000207000001000000F0
:1000A000511126C022C206C4828201008244124439
:1000B000A2403101828000002A86014593F6150096
:1000C00091C2329585810606F5F98280634E05025C
:1000D00063C305042E86AA857D5515C285466378BF
:1000E000B6006356C00006068606E36CB6FE014500
:1000F00063E4C500918D558D85820582F5FA828075
:100100008682C93F2E8582823305A0406347B000B6
:10011000B305B040C1B7B305B0408682653F330533
:10012000A0408282868263C70500634905005D376F
:100130002E858282B305B040E35B05FE3305A04007
:10014000513F3305B040828201002A8311C623004B
:10015000B3007D16050365FE8280EFF27FF4130580
:100160002003EF0030230545EF00F01A81B7EFF2CE
:100170003FF30545EF00901E93171500AA971395BE
:1001800047001D8D9305F03F0A05A937931505011A
:10019000C18113052003EF00F0353D45052C39B72B
:1001A00001A0B707EFBE37E700E0938707083CC719
:1001B00001A001A0970100209381C16417010020D4
:1001C000130141641305000A97050020938585E318
:1001D00017060020130606E363FAC5008322050014
:1001E00023A0550011059105E3EAC5FE171500008F
:1001F000130545E7970500209385C5E01706002005
:10020000130646E163FAC5008322050023A05500CA
:1002100011059105E3EAC5FE1385018197050020CC
:100220009385C5E16377B500232005001105E36DD3
:10023000B5FE896293820288739002308D4273907A
:100240004280970200009382E2DB93E232007390D7
:100250005230EF00400197020000938202477390F2
:10026000123473002030EFF2BFE3371402401C4019
:100270003707FFF8414593E717001CC05C40F98F32
:100280005CC01C403707F7FE7D17F98F1CC01C406F
:100290003707FCFF7D17F98F1CC05C4041777D1745
:1002A000F98F5CC0B7079F001CC4C12A1C4C93E7A0
:1002B00007021CCCB7170140938707409843137778
:1002C000F7F098C398431367070898C3094798CB7A
:1002D000B7F7FF1F03C5477D9307F00F6304F500D1
:1002E0007D89612AB72702409843C176FD16719B2C
:1002F00098C398431367170098C3B7170240D843B1
:10030000D8C3D843758FD8C3D843B7060001D8C324
:100310009843558F98C3984393166700E3DD06FE14
:10032000D843B7160240719BD8C3D8431367270040
:10033000D8C32147DC42B18BE39EE7FE85BBB716ED
:100340000240DC422147B18B6390E704DC42377501
:10035000DC02130505C0D8428567938747DD11830A
:100360003D8BBA9783C70700D84293F5F70F1377F1
:100370000708B357F50011EFEFF29FD2A13B370703
:1003800000202320A7001DB337356E01130505603B
:10039000D9B7370700202320F7008280EFF25FD023
:1003A000B707002003A50700B7157A00938505203D
:1003B00015331375F50F2389A18093175500898F85
:1003C0008A073E950E052398A180CDB1EFF25FCD4F
:1003D00037F400E05C40AA85F99B5CC003D501813D
:1003E000E13908C8232404001C4093E717001CC00F
:1003F0005C40858BF5DF1C40F99B1CC045B99445DA
:1004000093F7060193F2F60081C7DC41B3E2F200F4
:1004100083D3050093F7F30FA5C3032305006111F0
:1004200022C226C08147130480029304800405473A
:100430003316F70033F7C3006312E60293952700E3
:100440003D473317B7001347F7FF33776700B3957E
:10045000B20033E3E500639D860050C9850721475C
:10046000E397E7FC12442320650082442101828047
:10047000E39696FE10C9DDB78280371702401C4311
:100480000E0593F777F05D8D08C38280B7160240A2
:10049000DC4241771307F77FF98FC98FDCC2828076
:1004A000B7170240984F81C5498F98CF8280134576
:1004B000F5FF798D88CF8280B7170240D84F81C56C
:1004C000498FD8CF82801345F5FF798DC8CF8280C0
:1004D00023AAA1808280370700C0835705002A978E
:1004E00019C737D7FEBF130707402A9711E703D76D
:1004F000250093F7F7F8D98F03D7650093F7F7CF67
:10050000D98F2310F50083D745002316F50283D732
:1005100005002314F502B7370140938707C063161F
:10052000F50083C785002318F5028547231AF500D7
:1005300082808357050241677917F98F2310F502EE
:10054000835705020357450083568501416613060C
:10055000C6F8F18E03D6050003D32500D18E41667F
:100560007516F18F03D6850033666600D18F373656
:100570000140130606C06313C50203D6A500DD9B28
:1005800003D3E500D18F03D64500ED9B1377F7CF5A
:10059000D18F03D6C50033666600518F2312E50064
:1005A00003D76500231CD50058D92310F50282809B
:1005B000835705027D777D17F98F2310F5020357C6
:1005C0000502835745008356C50165761306F6CFAD
:1005D000F18E03D6050003D325002206D18E79764D
:1005E0007D16718F03D68500336666003206518F03
:1005F00037360140130606C06319C50071767D16B3
:100600007D8E83D7C5009A07D18F2312F50083D73B
:100610006500231ED5003CC12310E502828083576C
:10062000050091C593E717002310F500828041670C
:100630007917F98FD5BF8357450491C56177D98F55
:100640002312F5048280C607C583DDBF8357C5002A
:1006500009C6CD8F2316F500828093C5F5FFED8F77
:10066000D5BF8357050091C593E707082310F50010
:10067000828041671307F7F7F98FCDBF8357850154
:1006800041675D17F98FCD8F231CF500828083575A
:10069000C5017D771307F77FF98FA205CD8F231E44
:1006A000F5008280835705010355C500ED8F6D8DE0
:1006B000B337F0003335A0007D8D828093C5F5FF00
:1006C0002318B5008280EFF2BF9D054511358539AD
:1006D000F131B707002083A7070099EF3707002003
:1006E000056685651307870093065002130646DEEC
:1006F0009385C5E50545F520A9289D25B93C853C90
:10070000FDBF130181FD2ACA2EC83705004085456B
:1007100006D216D01ACE1ECC32C636C43AC23EC05D
:10072000513711C9854537050040493F83A781816D
:10073000850723ACF180925082527243E2435245C6
:10074000C2453246A2461247824713018102730016
:100750002030EFF2FF94854551112E85B13BB7074C
:10076000002003A40700B7470F009387F72363EF28
:100770008700056705668565130787F9930660039B
:10078000130646E79385C5EE0545A128B7450F003A
:1007900093850524228523110100231301002314CE
:1007A00001000D3A7D159307703E2310A1008A8544
:1007B000370500402312F100393B0546370500405C
:1007C000B285231805005935B7E700E01307000488
:1007D00023A2E710854537050040913531016FF0C0
:1007E000FF8CEFF2FF8B2E847111B2859307800886
:1007F00073B00730B707002037564553938707700B
:100800001306366590C3C8C394C789CD3705002049
:100810007D461305C5703AC01523B7070020A38590
:100820000772024701CF370500207D46BA851305C0
:10083000C5722923B7070020A385077401CC3705AB
:1008400000207D46A2851305C574CD29B707002079
:10085000A38507760100FDBF5841B707F1FF9387D5
:10086000F7EF7D8FDC419441A207D58FD98F5CC112
:100870001845B7F7F1FF9387D77FD4457D8F9C4903
:10088000D58F94458606D58FD98F1CC55855B70787
:1008900010FFFD177D8F83C74501FD1793F7F70FF5
:1008A000D207D98F5CD582801C4589C593E7170094
:1008B0001CC58280F99BEDBF1C4593E787001CC5D2
:1008C000828008450D81058982801C4593E7470099
:1008D0001CC5828008450981058982801C4591C517
:1008E00037075000D98F1CC582803707B0FF7D17AE
:1008F000F98FD5BFA54763F7B704138765FF931733
:100900001700BA970323C5001D473317F700134795
:10091000F7FF33776700B397F600D98F5CC5994727
:1009200063E3C7047D16931726003E965859FD478A
:10093000B397C70093C7F7FFF98F3396C5005D8E55
:1009400050D9828013971500032305012E979D47E8
:10095000B397E70093C7F7FFB3F76700B396E600D6
:10096000DD8E14C96DBFB14763E2C70265169317E8
:1009700026003E961859FD47B397C70093C7F7FF67
:10098000F98F3396C5005D8E10D982804D161317EE
:10099000260054553297FD47B397E70093C7F7FFFA
:1009A000F58FB395E500DD8D4CD582806845420515
:1009B000418182801C4133F5F5003335A0008280EF
:1009C0005C41370700FA7D17F98F5CC15C41CD8F20
:1009D0005CC182800567130707FC8147BA86214600
:1009E000834507006396A50092073385F600828051
:1009F00085074107E396C7FE01458280EFF24FEA83
:100A0000A5472A8463FFA700056705668565130768
:100A1000C7FA93065007130646F09385C5F70545B8
:100A2000C93393870182A29783C707009D4691C768
:100A30009387C182A29783C6070037250140A2850C
:100A40000546130505407D353725014085451305CD
:100A50000540616461351304046A37250140894506
:100A600013050540813F01C93725014013050540A5
:100A7000353F6FF0AFE37D146DF0E5BFEFF24FE26D
:100A80002111854513050020213C31650134614663
:100A900081450A85EFF06FEB37250140B7070E005F
:100AA00005448A85130505403EC6230A81006D333F
:100AB00037250140B70500021305054011373725DA
:100AC0000140A28513050540C533372501401305B4
:100AD00005406164D5331304046A372501401305CA
:100AE0000540C53319C17D146DF837250140130544
:100AF00005406164D93B1304046A3725014013059E
:100B00000540C93B19C17D146DF80547238EE1806E
:100B100061016FF0AFD9EFF2AFD85111653D05CD4E
:100B200083C7C1812A8491E3913F48408545EFF016
:100B30003F978357C40008448A852311010023127C
:100B400001002313010023140100231501002310C9
:100B5000F100EFF0DF8A31016FF04FD5EFF24FD4A3
:100B6000953D01C503451500513D6FF02FD4130786
:100B70002003AA87630EE50013074002014563982E
:100B8000E700054585671205938707043E95828037
:100B90000145CDBFEFF2CFD01111D13F45CD83C775
:100BA000D1812A84B5E30565854513050580EFF0FD
:100BB0003F8F9307F0022316F10037350140956708
:100BC0009387F7E16C00130505C02318F100231784
:100BD000010023190100231A0100EFF0DF8F3735E0
:100BE00001408545130505C0AD3C373501408545BD
:100BF000130505C08934373501408545130505C007
:100C0000393C8547A38EF180484085458544EFF007
:100C10003F898357C40008448A852310F100E147C7
:100C20003EC42311010026C2EFF06FFD130700063A
:100C30008347140002C82316E1001307C05D02CAEF
:100C400002CC231791002319E10063889700114714
:100C50006384E70271016FF06FC5373501406C00A6
:100C6000130505C0EFF0FF8C37350140A145130592
:100C700005C0EFF0BFA0F9BF373501406C00130588
:100C800005C0EFF0FF9237350140A145130505C0BF
:100C9000EFF0FF9FC1B7EFF2AFC071112EC0C13DA1
:100CA0001DC9824505671307479CAE876373B7006C
:100CB000BA871397070141839306401F6373D700D8
:100CC000B68703471500C2078546C1836308D7006E
:100CD0009146630BD70011016FF04FBD37370140CC
:100CE000130707C05CDBC5BF37370140130707C0D8
:100CF0003CC3D5B7EFF2CFBA1307F00A2A84BA87FC
:100D00006363B700AE87139707014183954663730A
:100D1000D700B687C207C183139557001D8D0A05FA
:100D20003E959305400B1205EFF0CFBA9305451F92
:100D3000C205C181228585376FF04FB7AA8709CADE
:100D400003C7050085058507A38FE7FE7D1665FBB4
:100D50003E966393C70082808507A38F07FED5BFA9
:100D6000511122C2170700001307C72F17040000F4
:100D70001304442F198C26C006C40984814463944B
:100D80008402170700001307E72D1704000013045F
:100D9000642D198C0984814463928402A240124418
:100DA00082443101828093972400BA979C43850442
:100DB0008297170700001307E72AD1B793972400FB
:100DC000BA979C4385048297170700001307872969
:100DD000E1B700000102030405060708010203044D
:100DE00005060708433A5C55736572735C61726D62
:100DF0007374726F6E6773756265726F5C4465734E
:100E00006B746F705C50726F64756374735C3032B6
:100E10005F526F766172695F53747564696F5C527B
:100E20006F766172695F53797374656D5F53747522
:100E300064696F5C746172676574735C43483332D4
:100E4000563030335C726F766172692F726F7661E3
:100E500072695F6D61696E2E63000000537973746F
:100E6000656D436F7265436C6F636B203E20305538
:100E700000000000433A5C55736572735C61726DEB
:100E80007374726F6E6773756265726F5C446573BD
:100E90006B746F705C50726F64756374735C303226
:100EA0005F526F766172695F53747564696F5C52EB
:100EB0006F766172695F53797374656D5F53747592
:100EC00064696F5C746172676574735C4348333244
:100ED000563030335C726F766172692F726F766153
:100EE00072695F7469636B2E6300000074696D65DD
:100EF000725F636C6B203E3D2031303030303030DB
:100F000055000000433A5C55736572735C61726D05
:100F10007374726F6E6773756265726F5C4465732C
:100F20006B746F705C50726F64756374735C303295
:100F30005F526F766172695F53747564696F5C525A
:100F40006F766172695F53797374656D5F53747501
:100F500064696F5C746172676574735C43483332B3
:100F6000563030335C726F766172692F726F7661C2
:100F700072695F6164632E63000000006368616EE4
:100F80006E656C203C3D204144435F4D41585F43BA
:100F900048414E4E454C0000726F766172695F7435
:100FA00069636B5F696E697400000000726561645B
:100FB0005F73696E676C655F6368616E6E656C0018
:100FC00002000000040000000008014004000000CE
:100FD00001010000040000000008014002000000C0
:100FE000240200001000000000100140100000006A
:100FF0003203000020000000001401400400000043
:10100000330400002000000000140140080000002C
:101010003505000020000000001401402000000001
:1010200036060000200000000014014040000000CF
:1010300034070000200000000014014010000000F0
:1010400032010000200000000014014004000000F4
:1010500024040000100000000010014010000000F7
:10106000006CDC02000000006D61696E0000000091
:00000001FF
