:100000006F00E034000000003602000038020000FB
:1000100000000000000000000000000000000000E0
:1000200000000000000000000000000000000000D0
:100030004C030000000000004C0300000000000022
:100040004C0300004C0300004C0300004C03000074
:100050004C0300004C0300004C0300004C03000064
:100060004C0300004C0300004C0300004C03000054
:100070004C0300004C0300004C0300004C03000044
:100080004C0300004C0300004C0300004C03000034
:100090004C0300004C030000580A0000010000005F
:1000A000511126C022C206C4828201008244124439
:1000B000A2403101828000002A86014593F6150096
:1000C00091C2329585810606F5F98280634E05025C
:1000D00063C305042E86AA857D5515C285466378BF
:1000E000B6006356C00006068606E36CB6FE014500
:1000F00063E4C500918D558D85820582F5FA828075
:100100008682C93F2E8582823305A0406347B000B6
:10011000B305B040C1B7B305B0408682653F330533
:10012000A0408282868263C70500634905005D376F
:100130002E858282B305B040E35B05FE3305A04007
:10014000513F3305B040828201002A8311C623004B
:10015000B3007D16050365FE8280EFF27FF403A5F0
:100160008181856593858537EF0030451305803E95
:10017000DD2E3D2203A58181856593858538EF00BD
:10018000D0432DB7EFF2DFF1411148002D2A83C48F
:1001900041818347D10085C39305A0052685EF10D3
:1001A000C00F9305A00503C50181EF10000F514555
:1001B0005D2E4101E5BD035761009305F03F9317A4
:1001C0001700BA97139547001D8D0A05213703576D
:1001D000410093170501C1833EC093171700BA97DA
:1001E000139547001D8D9305F03F0A05E5359315DE
:1001F0000501C1812685EF10400A82456DB7EFF2F7
:100200003FEAF16505459385052023ACA180EF0009
:10021000702B1306000285450945B12813052003FC
:10022000238AA180EF001071130540022388A1806A
:10023000EF005070A5BD01A0B707EFBE37E700E0A3
:10024000938707083CC701A0EFF29FE561112AC020
:100250000144814402452EC20504EF00306A9245F4
:100260001374F40FAA94E39785FE2685A5354205FD
:100270004181210125BDEFF2BFE26111238FA180F1
:10028000A38EB18032C02EC2238EC180EF00B06237
:100290001245EF005062024589454125210139B5DB
:1002A000EFF21FE003C5E181C145793FB7070020A8
:1002B0002391A70003C5D181C1457937B707002035
:1002C0002390A700E5B3EFF2BFDD2A8403C5E181E7
:1002D000A1459D3F2310A40003C5D181A145AD37A1
:1002E0003707002003572700835704002311A40079
:1002F000998F2312F400B707002083D707001D8DC4
:100300002313A40003C5C181CD2D03174400133569
:100310001500A304A40093060005A14763C6E600E8
:10032000132707FB931727000317640093060005A4
:1003300063D7E60093E727002304F40085BB930608
:1003400000FBE35BD7FE93E71700FDB701A0970121
:1003500000209381214B170100201301A14A1305AE
:10036000000A970500209385E5C9170600201306AB
:1003700066C963FAC5008322050023A05500110554
:100380009105E3EAC5FE171500001305E54497053E
:100390000020938525C7170600201306A6C763FA19
:1003A000C5008322050023A0550011059105E3EA4D
:1003B000C5FE13850181970500209385A5CD637740
:1003C000B500232005001105E36DB5FE8962938217
:1003D0000288739002308D42739042809702000031
:1003E000938242C293E2320073905230EF00400198
:1003F000970200009382626273901234730020307F
:10040000EFF21FCA371402401C403707FFF841457E
:1004100093E717001CC05C40F98F5CC01C40370795
:10042000F7FE7D17F98F1CC01C403707FCFF7D17B6
:10043000F98F1CC05C4041777D17F98F5CC0B7070E
:100440009F001CC4F12A1C4C93E707021CCCB71771
:1004500001409387074098431377F7F098C3984378
:100460001367070898C3094798CBB7F7FF1F03C561
:10047000477D9307F00F6304F5007D895522B72768
:1004800002409843C176FD16719B98C39843136749
:10049000170098C3B7170240D843D8C3D843758F05
:1004A000D8C3D843B7060001D8C39843558F98C323
:1004B000984393166700E3DD06FED843B716024063
:1004C000719BD8C3D84313672700D8C32147DC42A8
:1004D000B18BE39EE7FED9BEB7160240DC4221474E
:1004E000B18B6390E704DC423775DC02130505C06D
:1004F000D84285679387076711833D8BBA9783C777
:100500000700D84293F5F70F13770708B357F500A4
:1005100011EFEFF2FFB87D3E370700202322A7003E
:1005200071B637356E0113050560D9B7370700205E
:100530002322F7008280EFF2BFB6B707002003A5A1
:100540004700B7157A009385052069361375F50FB6
:100550002381A18293175500898F8A073E950E0546
:100560002390A182A1B6EFF2BFB337F400E05C4064
:10057000AA85F99B5CC003D501823D3E08C82324AF
:1005800004001C4093E717001CC05C40858BF5DF1E
:100590001C40F99B1CC019BE944593F7060193F2C9
:1005A000F60081C7DC41B3E2F20083D3050093F784
:1005B000F30FA5C303230500611122C226C08147A2
:1005C000130480029304800405473316F70033F7C1
:1005D000C3006312E602939527003D473317B70027
:1005E0001347F7FF33776700B395B20033E3E500B5
:1005F000639D860050C985072147E397E7FC1244B5
:1006000023206500824421018280E39696FE10C972
:10061000DDB782801C4533F5F5003335A0008280BC
:10062000371702401C430E0593F777F05D8D08C322
:100630008280B7160240DC4241771307F77FF98FBB
:10064000C98FDCC28280EFF2BFA537160240584244
:10065000A1462A84318B631AD7065C42B777DC0245
:10066000938707C01CC054420567130747699182EE
:10067000BD8A36970345070058429375F50F1377E7
:10068000070833D5A70019E33E85A93448C008C43C
:1006900048C4B7170240DC438D46AD83FD8B13D7AA
:1006A00037008A07F18BD98F13F6370133F7D7005C
:1006B00063F4C600138747FF856793870768BA9777
:1006C00083C50700013C08C8D5B2B7376E019387D0
:1006D000076049BFB7170240984F81C5498F98CF2F
:1006E00082801345F5FF798D88CF8280B71702404D
:1006F000D84F81C5498FD8CF82801345F5FF798DBA
:10070000C8CF828023A2A1828280370700C083578E
:1007100005002A9719C737D7FEBF130707402A9746
:1007200011E703D7250093F7F7F8D98F03D76500B2
:1007300093F7F7CFD98F2310F50083D74500231601
:10074000F50283D705002314F502B73701409387DC
:1007500007C06316F50083C785002318F502854797
:10076000231AF50082808357050241677917F98FB4
:100770002310F50283570502035745008356850170
:1007800041661306C6F8F18E03D6050003D3250093
:10079000D18E41667516F18F03D6850033666600EB
:1007A000D18F37360140130606C06313C50203D646
:1007B000A500DD9B03D3E500D18F03D64500ED9B5B
:1007C0001377F7CFD18F03D6C50033666600518FFC
:1007D0002312E50003D76500231CD50058D9231048
:1007E000F5028280835705027D777D17F98F2310EC
:1007F000F50203570502835745008356C501657608
:100800001306F6CFF18E03D6050003D3250022068A
:10081000D18E79767D16718F03D68500336666009A
:100820003206518F37360140130606C06319C500E2
:1008300071767D167D8E83D7C5009A07D18F2312DE
:10084000F50083D76500231ED5003CC12310E502C7
:1008500082808357050091C593E717002310F500A8
:10086000828041677917F98FD5BF8357450491C5B9
:100870006177D98F2312F5048280C607C583DDBF57
:100880008357C50009C6CD8F2316F500828093C516
:10089000F5FFED8FD5BF8357050091C593E7070896
:1008A0002310F500828041671307F7F7F98FCDBF5A
:1008B0008357850141675D17F98FCD8F231CF500A4
:1008C00082808357C5017D771307F77FF98FA205D3
:1008D000CD8F231EF5008280835705010355C50087
:1008E000ED8F6D8DB337F0003335A0007D8D8280A4
:1008F00093C5F5FF2318B500828011818D4763E908
:10090000A70085670A059387C76DAA97884309E5FD
:1009100037150140130505408280EFF26FF8411151
:100920002EC0935445008D472A8463ED9704856754
:10093000139724009387C76DBA979C43A1C7856717
:10094000939624009387C76DB6979C43A9EF1377BE
:10095000F4008547B397E7002312F1008D473EC4AA
:100960008247231301002316010023170100FD17FE
:100970001947636DF70405678A071307476ABA9733
:100980009C4382870567056685651307076C930698
:10099000800513060639938585400545792A8D47DC
:1009A000E3E797FA69BF83C781828545B3949500D1
:1009B000E58FD1FF85679387C76CB6978843193B4E
:1009C00083C78182DD8C2384918251B7C1473EC6A3
:1009D000228525374C00C93641016FF02FED914734
:1009E000FDB793078004E5B793078002CDB7D147E1
:1009F000F9BFE147E9BFF147D9BFEFF26FEA2A84B7
:100A0000ED3D9377F4008545B395F500C205C181AE
:100A100011316FF0AFE9EFF2AFE80545E5316D3C1C
:100A2000193EB707002083A7470099EF370700203A
:100A30000566856513078700930650021306464333
:100A40009385C54A0545D5288520EF00D00BEFF0EA
:100A5000CFF0EFF02FF3F5BF130181FD2ACA2EC8A6
:100A600037050040854506D216D01ACE1ECC32C6B8
:100A700036C43AC23EC08D3511C9854537050040A0
:100A8000853D83A7C182850723A6F18292508252B9
:100A90007243E2435245C2453246A246124782475C
:100AA0001301810273002030EFF28FDF8545511171
:100AB0002E852D39B707002003A44700B7470F0044
:100AC0009387F72363EF870005670566856513073E
:100AD000C76E930660031306464C9385C5530545C0
:100AE000A928B7450F00938505242285231101000D
:100AF0002313010023140100EFF0CFDD7D159307D0
:100B0000703E2310A1008A85370500402312F100B2
:100B1000ED3E054637050040B285231805008D33AC
:100B2000B7E700E01307000423A2E7108545370567
:100B30000040053331016FF06FD7EFF26FD62E848E
:100B40007111B2859307800873B00730B707002092
:100B500037564553938707701306366590C3C8C34D
:100B600094C791CD370500207D461305C5703AC066
:100B7000EF002077B7070020A3850772024709CF4F
:100B8000370500207D46BA851305C572EF006075F4
:100B9000B7070020A385077409CC370500207D46E0
:100BA000A2851305C574EF00C073B7070020A385A5
:100BB00007760100FDBFEFF2AFCE03570501F577D1
:100BC000FD177D8F83D7650021112A84D98F2318C3
:100BD000F5000357C500FD779387379F7D8F83D737
:100BE00045002EC0D98F03D78500D98F03D7A50024
:100BF000D98F2316F5000357450183D7C500137716
:100C0000F7CFD98F231AF5004800EFF0DFA3B747DD
:100C100001409387078082456312F406C247035759
:100C2000C400139517003E9542070E0541878C417D
:100C30003E95635707048605EFF0CFC9930540063C
:100C40002AC0EFF02FC993144500024593054006D2
:100C5000EFF00FCB8357C400C207C18763D40702EC
:100C60000E059305400613052503EFF0AFC61D8959
:100C7000C98C2314940061016FF04FC3B24745B78C
:100C80008A055DBF12059305400613052503EFF0A5
:100C90006FC43D89F1BF8357C50091C50967D98FDE
:100CA0002316F500828079777D17F98FD5BF93F5EC
:100CB000F51F2312B5008280035505006D8D333575
:100CC000A0008280EFF2CFBD116511112E841305B3
:100CD00005028545EFF01FA0930700023EC03715BF
:100CE00001408D473EC28A85E147130505403EC459
:100CF000EFF09F8A93070004371501402310F1009D
:100D00008A859147130505403EC4EFF0FF88B1473F
:100D100037450140B305F10002CA13050580231BC6
:100D2000F10022C602C802CC79353745014085451D
:100D3000130505808D37B70700209387470323905D
:100D400007042391070471016FF04FB6EFF24FB51E
:100D500037A40700AE8413040412374501409305FD
:100D6000000813050580893F09C937450140A6855C
:100D7000130505802D3F6FF06FB37D1479FCE5BF3F
:100D8000EFF20FB2AA842E8491ED056705668565A2
:100D9000130707719306C007130646559385C55C74
:100DA0000145613B8305040099E16FF02FB093F595
:100DB000F50F26850504593FF5B7EFF26FAE2A848B
:100DC000AE8491ED05670566856513070770930688
:100DD0008008130646559385C55C0145B93BA68539
:100DE0002285793F2285B5459537A9452285B93FAA
:100DF0006FF0CFAB5841B707F1FF9387F7EF7D8FC7
:100E0000DC419441A207D58FD98F5CC11845B7F753
:100E1000F1FF9387D77FD4457D8F9C49D58F94452B
:100E20008606D58FD98F1CC55855B70710FFFD17FB
:100E30007D8F83C74501FD1793F7F70FD207D98F31
:100E40005CD582801C4589C593E717001CC582804C
:100E5000F99BEDBF1C4593E787001CC582800845C0
:100E60000D81058982801C4593E747001CC582805F
:100E700008450981058982801C4591C537075000C6
:100E8000D98F1CC582803707B0FF7D17F98FD5BF7A
:100E9000A54763F7B704138765FF93171700BA9741
:100EA0000323C5001D473317F7001347F7FF3377B8
:100EB0006700B397F600D98F5CC5994763E3C70411
:100EC0007D16931726003E965859FD47B397C700E5
:100ED00093C7F7FFF98F3396C5005D8E50D9828096
:100EE00013971500032305012E979D47B397E7003D
:100EF00093C7F7FFB3F76700B396E600DD8E14C91A
:100F00006DBFB14763E2C7026516931726003E9690
:100F10001859FD47B397C70093C7F7FFF98F33966A
:100F2000C5005D8E10D982804D16131726005455CA
:100F30003297FD47B397E70093C7F7FFF58FB39557
:100F4000E500DD8D4CD58280684542054181828077
:100F50001C4133F5F5003335A00082805C41370732
:100F600000FA7D17F98F5CC15C41CD8F5CC1828036
:100F70000567130707738147BA8621468345070033
:100F80006396A50092073385F600828085074107A6
:100F9000E396C7FE01458280EFF28F90A5472A8431
:100FA00063FFA7000567056685651307C77193068C
:100FB00050071306C65D938545650545BD3E93877D
:100FC0008187A29783C707009D4691C79387418871
:100FD000A29783C6070037250140A2850546130561
:100FE00005407D3537250140854513050540616481
:100FF00061351304046A372501408945130505400E
:10100000813F01C93725014013050540353F6FF089
:10101000EF897D146DF0E5BFEFF28F8821118545D2
:1010200013050020EFF00FEB3165EFF08FE0614624
:1010300081450A85EFF06F9137250140B7070E0013
:1010400005448A85130505403EC6230A81005D33A9
:1010500037250140B7050002130505400137372544
:101060000140A28513050540F13B372501401305DA
:1010700005406164C5331304046A37250140130534
:101080000540F13B19C17D146DF83725014013056A
:1010900005406164C93B1304046A37250140130508
:1010A0000540F93319C17D146DF805472388E182A5
:1010B00061016FE0BFFFEFE2BFFE5111553D05CD6D
:1010C00083C701832A8491E3813F48408545EFF03F
:1010D0006FE08357C40008448A852311010023125E
:1010E0000100231301002314010023150100231024
:1010F000F100EFF06FCA31016FE05FFBEFE25FFAE2
:10110000853D01C503451500413D6FE03FFA1307DA
:101110002003AA87630EE500130740020145639888
:10112000E7000545856712059387077B3E9582801A
:101130000145CDBFEFE2DFF61111D13F5DCD83C791
:1011400011832A84ADE70565854513050580EFF019
:101150006FD89307F0022316F100373501409567E9
:101160009387F7E16C00130505C02318F1002317DE
:10117000010023190100231A0100EFF00FD93735C0
:1011800001408545130505C0EFF0EFF0373501400C
:101190008545130505C0EFF04FED37350140854516
:1011A000130505C0EFF0EFEA8547A388F1824840B8
:1011B00085458544EFF00FD28357C40008448A85E3
:1011C0002310F100E1473EC42311010026C2EFF0D5
:1011D000AFBC130700068347140002C82316E100C2
:1011E0001307C05D02CA02CC231791002319E10046
:1011F0006388970011476384E70271016FE01FEB7A
:10120000373501406C00130505C0EFF0CFD53735F9
:101210000140A145130505C0EFF08FE9F9BF37354F
:1012200001406C00130505C0EFF0CFDB37350140FE
:10123000A145130505C0EFF0CFE8C1B7EFE25FE6C7
:1012400071112EC0E9351DC9824505671307479CFA
:10125000AE876373B700BA8713970701418393067C
:10126000401F6373D700B68703471500C207854642
:10127000C1836308D7009146630BD70011016FE06B
:10128000FFE237370140130707C05CDBC5BF3737C4
:101290000140130707C03CC3D5B7EFE27FE0130757
:1012A000F00A2A84BA876363B700AE8713970701F1
:1012B000418395466373D700B687C207C1831395F0
:1012C00057001D8D0A053E959305400B1205EFE072
:1012D0007FE09305451FC205C181228585376FE0F8
:1012E000FFDCAA8709CA03C7050085058507A38F08
:1012F000E7FE7D1665FB3E966393C70082808507F7
:10130000A38F07FED5BF511122C217070000130794
:10131000674C170400001304E44B198C26C006C464
:101320000984814463948402170700001307874AE5
:10133000170400001304444A198C09848144639201
:101340008402A24012448244310182809397240097
:10135000BA979C43850482971707000013078747B5
:10136000D1B793972400BA979C43850482971707B7
:10137000000013072746E1B743616C69627261742C
:10138000696E672E2E2E00005265616479000000A0
:10139000433A5C55736572735C61726D7374726FFE
:1013A0006E6773756265726F5C4465736B746F70A2
:1013B0005C50726F64756374735C30325F526F7629
:1013C0006172695F53747564696F5C526F766172A4
:1013D000695F53797374656D5F53747564696F5C8D
:1013E000746172676574735C4348333256303033CE
:1013F0005C726F766172692F726F766172695F6776
:1014000070696F2E63000000696478203C204E559F
:101410004D5F504F52545320262620706F72745FD8
:101420007461626C655B6964785D20213D204E5576
:101430004C4C0000433A5C55736572735C61726D8D
:101440007374726F6E6773756265726F5C446573F7
:101450006B746F705C50726F64756374735C303260
:101460005F526F766172695F53747564696F5C5225
:101470006F766172695F53797374656D5F537475CC
:1014800064696F5C746172676574735C434833327E
:10149000563030335C726F766172692F726F76618D
:1014A00072695F6D61696E2E630000005379737419
:1014B000656D436F7265436C6F636B203E203055E2
:1014C00000000000433A5C55736572735C61726D95
:1014D0007374726F6E6773756265726F5C44657367
:1014E0006B746F705C50726F64756374735C3032D0
:1014F0005F526F766172695F53747564696F5C5295
:101500006F766172695F53797374656D5F5374753B
:1015100064696F5C746172676574735C43483332ED
:10152000563030335C726F766172692F726F7661FC
:1015300072695F7469636B2E6300000074696D6586
:10154000725F636C6B203E3D203130303030303084
:1015500055000000433A5C55736572735C61726DAF
:101560007374726F6E6773756265726F5C446573D6
:101570006B746F705C50726F64756374735C30323F
:101580005F526F766172695F53747564696F5C5204
:101590006F766172695F53797374656D5F537475AB
:1015A00064696F5C746172676574735C434833325D
:1015B000563030335C726F766172692F726F76616C
:1015C00072695F756172742E630000002873747213
:1015D0002920213D204E554C4C000000433A5C55DB
:1015E000736572735C61726D7374726F6E6773751D
:1015F0006265726F5C4465736B746F705C50726F80
:1016000064756374735C30325F526F766172695FC8
:1016100053747564696F5C526F766172695F537958
:101620007374656D5F53747564696F5C7461726720
:101630006574735C43483332563030335C726F7676
:101640006172692F726F766172695F6164632E6384
:10165000000000006368616E6E656C203C3D2041B7
:1016600044435F4D41585F4348414E4E454C000056
:101670000102030405060708010203040506070822
:101680000204060804080C1008101820102030402E
:1016900020406080010203040506070801020304DC
:1016A00005060708DE090000E2090000E80900005D
:1016B000EE090000F2090000F6090000D009000060
:1016C00070696E5F6D6F64650000000004000000CB
:1016D0000000000010000000200000000008014091
:1016E000000000000010014000140140726F76619C
:1016F00072695F7469636B5F696E697400000000F2
:10170000756172745F7072696E746C6E00000000B7
:10171000756172745F7072696E74000072656164E5
:101720005F73696E676C655F6368616E6E656C00A0
:101730000200000004000000000801400400000056
:101740000101000004000000000801400200000048
:1017500024020000100000000010014010000000F2
:1017600032030000200000000014014004000000CB
:1017700033040000200000000014014008000000B5
:10178000350500002000000000140140200000008A
:101790003606000020000000001401404000000058
:1017A0003407000020000000001401401000000079
:1017B000320100002000000000140140040000007D
:1017C0002404000010000000001001401000000080
:0417D000FE01000016
:1017D40000020002006CDC026D61696E0000000012
:00000001FF
