:100000006F00401700000000600100006201000066
:1000100000000000000000000000000000000000E0
:1000200000000000000000000000000000000000D0
:1000300072010000000000007201000000000000DA
:1000400072010000720100007201000072010000E4
:1000500072010000720100007201000072010000D4
:1000600072010000720100007201000072010000C4
:1000700072010000720100007201000072010000B4
:1000800072010000720100007201000072010000A4
:100090007201000072010000AC06000001000000C7
:1000A000511126C022C206C4828201008244124439
:1000B000A240310182800000634E050263C3050443
:1000C0002E86AA857D5515C285466378B60063568F
:1000D000C00006068606E36CB6FE014563E4C50073
:1000E000918D558D85820582F5FA82808682C93F81
:1000F0002E8582823305A0406347B000B305B0402F
:10010000C1B7B305B0408682653F3305A040828207
:10011000868263C70500634905005D372E858282AC
:10012000B305B040E35B05FE3305A040513F330506
:10013000B0408282010081451305100205A9EFF24B
:100140003FF6A92583A701811D8D9307301F63F812
:10015000A7002D2D23A8A18013051002FD21B9B7FA
:1001600001A0B707EFBE37E700E0938707083CC759
:1001700001A001A0970100209381C1681701002010
:10018000130141681305000A97050020938585E750
:1001900017060020130606E763FAC5008322050050
:1001A00023A0550011059105E3EAC5FE17150000CF
:1001B00013054592970500209385C5E41706002096
:1001C000130646E563FAC5008322050023A0550007
:1001D00011059105E3EAC5FE13850181970500200D
:1001E000938585E46377B500232005001105E36D51
:1001F000B5FE896293820288739002308D427390BB
:100200004280970200009382E2DF93E23200739013
:100210005230EF004001970200009382A245739094
:10022000123473002030EFF2BFE7371402401C4055
:1002300061113707FFF893E717001CC05C40414588
:10024000F98F5CC01C403707F7FE7D17F98F1CC083
:100250001C403707FCFF7D17F98F1CC05C404177BD
:100260007D17F98F5CC0B7079F001CC4F5221C4C9A
:10027000A16693E707021CCCB7170140938707409C
:1002800098431377F7F098C398431367070898C308
:10029000094798CB02C002C21C4C3707014093E7C4
:1002A00017001CCC5C43D58F5CC31C404167B7066C
:1002B0000200D98F1CC009671C40F58F3EC28247DF
:1002C00085073EC0924781E78247E397E7FE1840E3
:1002D00085479316E70063D606063EC212476310B1
:1002E000F706B72702409843C176FD16719B98C365
:1002F00098431367170098C3B7170240D843D8C371
:10030000D843758FD8C3D843C166558FD8C3984397
:10031000B7060001558F98C3984393166700E3DD35
:1003200006FED843B7160240719BD8C3D843136763
:100330002700D8C32147DC42B18BE39EE7FE2101B1
:10034000B5B302C261BFB7160240DC422147B18B90
:100350006390E704DC423775DC02130505C0D84220
:1003600085679387078A11833D8BBA9783C70700F8
:10037000D84293F5F70F13770708B357F50011EF3D
:10038000EFF21FD2353B370700202320A70039BBEF
:1003900037356E0113050560D9B7370700202320D4
:1003A000F7008280EFF2DFCFB707002003A5070038
:1003B000B7157A009385052021331375F50F238B2C
:1003C000A18093175500898F8A073E950E05239AC1
:1003D000A180E9B9944593F7060193F2F60081C72D
:1003E000DC41B3E2F20083D3050093F7F30FA5C31A
:1003F00003230500611122C226C081471304800235
:100400009304800405473316F70033F7C3006312E3
:10041000E602939527003D473317B7001347F7FFD0
:1004200033776700B395B20033E3E500639D860040
:1004300050C985072147E397E7FC12442320650054
:10044000824421018280E39696FE10C9DDB7828046
:100450000CC982804CC98280371702401C430E05AC
:1004600093F777F05D8D08C38280B7170240984FED
:1004700081C5498F98CF82801345F5FF798D88CF4C
:100480008280B7170240D84F81C5498FD8CF82806C
:100490001345F5FF798DC8CF828023ACA18082807F
:1004A000370700C0835705002A9719C737D7FEBF03
:1004B000130707402A9711E703D7250093F7F7F8AA
:1004C000D98F03D7650093F7F7CFD98F2310F500A5
:1004D00083D745002316F50283D705002314F502C0
:1004E000B7370140938707C06316F50083C78500BF
:1004F0002318F5028547231AF500828083570500EB
:1005000091C593E717002310F500828041677917A2
:10051000F98FD5BF8357C50009C6CD8F2316F500C7
:10052000828093C5F5FFED8FD5BF83570501035535
:10053000C500ED8F6D8DB337F0003335A0007D8D94
:10054000828093C5F5FF2318B500828011818D4705
:1005500063E9A70085670A059387C7AAAA97884316
:1005600009E537150140130505408280EFF25FB3BE
:1005700041112EC0935445008D472A8463ED9704A2
:100580008567139724009387C7AABA979C43A1C78E
:100590008567939624009387C7AAB6979C43A9EFD3
:1005A0001377F4008547B397E7002312F1008D47D6
:1005B0003EC48247231301002316010023170100C4
:1005C000FD171947636DF70405678A07130747A7E7
:1005D000BA979C438287056705668565130707A957
:1005E000930680051306068B938585920545552253
:1005F0008D47E3E797FA69BF83C7C1818545B39407
:100600009500E58FD1FF85679387C7A9B697884383
:10061000A93D83C7C181DD8C238E918051B7C1472D
:100620003EC6228525374C007533410141B49147C0
:10063000C5BF93078004EDB793078002D5B7D147B4
:10064000C5B7E147F1BFF147E1BFEFF27FA52A84CB
:10065000F53D58459376F4008547B397D7009395B9
:100660000701F98FC18199C3F53389B4D533F5BF3B
:10067000EFF21FA305451535F9312D33B7070020DB
:1006800083A7070099EF37070020056685651307E4
:10069000870093065002130646959385C59C054531
:1006A000CD28A9286122413C593CFDBF130181FDA1
:1006B0002ACA2EC837050040854506D216D01ACE64
:1006C0001ECC32C636C43AC23EC0853511C98545F6
:1006D00037050040BD3583A70182850723A0F1823D
:1006E000925082527243E2435245C2453246A2467C
:1006F000124782471301810273002030EFF25F9AA4
:10070000854551112E85B53BB707002003A407008E
:10071000B7470F009387F72363EF870005670566E8
:1007200085651307C7AB930660031306469E938542
:10073000C5A50545B928B7450F0093850524228531
:10074000231101002313010023140100953A7D15A4
:100750009307703E2310A1008A85370500402312BD
:10076000F1003D3B054637050040B28523180500E2
:100770005533B7E700E01307000423A2E7108545CF
:1007800037050040A53B31016FF05F9203A5018260
:100790008280EFF2FF902E847111B285930780085A
:1007A00073B00730B707002037564553938707705B
:1007B0001306366590C3C8C394C789CD370500209A
:1007C0007D461305C5703AC08120B7070020A38578
:1007D0000772024701CF370500207D46BA85130511
:1007E000C5721D20B7070020A385077401CC37050B
:1007F00000207D46A2851305C5743920B707002067
:10080000A38507760100FDBFAA8709CA03C70500B3
:1008100085058507A38FE7FE7D1665FB3E966393EE
:10082000C70082808507A38F07FED5BF511122C262
:10083000170700001307072A170400001304842970
:10084000198C26C006C40984814463948402170766
:10085000000013072728170400001304A427198C8D
:100860000984814463928402A2401244824431018B
:10087000828093972400BA979C4385048297170738
:10088000000013072725D1B793972400BA979C43FC
:1008900085048297170700001307C723E1B70000FC
:1008A0000102030405060708010203040506070800
:1008B000433A5C55736572735C61726D7374726FE9
:1008C0006E6773756265726F5C4465736B746F708D
:1008D0005C50726F64756374735C30325F526F7614
:1008E0006172695F53747564696F5C526F7661728F
:1008F000695F53797374656D5F53747564696F5C78
:10090000746172676574735C4348333256303033B8
:100910005C726F766172692F726F766172695F6760
:1009200070696F2E63000000696478203C204E558A
:100930004D5F504F52545320262620706F72745FC3
:100940007461626C655B6964785D20213D204E5561
:100950004C4C0000433A5C55736572735C61726D78
:100960007374726F6E6773756265726F5C446573E2
:100970006B746F705C50726F64756374735C30324B
:100980005F526F766172695F53747564696F5C5210
:100990006F766172695F53797374656D5F537475B7
:1009A00064696F5C746172676574735C4348333269
:1009B000563030335C726F766172692F726F766178
:1009C00072695F6D61696E2E630000005379737404
:1009D000656D436F7265436C6F636B203E203055CD
:1009E00000000000433A5C55736572735C61726D80
:1009F0007374726F6E6773756265726F5C44657352
:100A00006B746F705C50726F64756374735C3032BA
:100A10005F526F766172695F53747564696F5C527F
:100A20006F766172695F53797374656D5F53747526
:100A300064696F5C746172676574735C43483332D8
:100A4000563030335C726F766172692F726F7661E7
:100A500072695F7469636B2E6300000074696D6571
:100A6000725F636C6B203E3D20313030303030306F
:100A7000550000002E060000320600003806000077
:100A80003E06000042060000460600002206000066
:100A900070696E5F6D6F6465000000000400000007
:100AA00000000000100000002000000000080140CD
:100AB000000000000010014000140140726F7661D8
:100AC00072695F7469636B5F696E6974000000002E
:100AD000006CDC02000000006D61696E0000000027
:00000001FF
