:02000004600694
:100300009701FA009381015017011A01130181CF5F
:100310000171970200009382E205739052309702B8
:10032000FA00938222CE1703FA00130323D66386C2
:10033000620023A002009102DDBF971200009382A9
:10034000E2551703FA001303E3CB9703FA009383F4
:1003500063CB6309730003AE02002320C301910243
:100360001103C5BFEF00F00D73005010F5BF010081
:100370007310013417011A011301C1C8130181F769
:1003800006C00EC412C616C81ACA1ECC22CE26D06B
:100390002AD22ED432D636D83ADA3EDC42DEC6C075
:1003A000CAC2CEC4D2C6D6C8DACADECCE2CEE6D045
:1003B000EAD2EED4F2D6F6D8FADAFEDCF322103422
:1003C00096DEF322003016C1F322003416C21171FA
:1003D000052B17011A011301E1C2130181F7F6522F
:1003E000739012348A42739002308240A2413242AA
:1003F000C2425243E243724482541255A2553256CD
:10040000C2565257E257725886481649A649364A8C
:10041000C64A564BE64B764C865C165DA65D365E4C
:10042000C65E565FE65F1241730020300100130084
:100430000000130000001300000037150660411192
:100440001305853906C6612D3725B92913050570B1
:10045000EF003030B71506602146938545710145A0
:10046000EF00504B0945EF00306601469305606D83
:100470000145EF0090570545EF00505FB24037153A
:1004800006601305453B410199ADB747125093876C
:1004900007099843411106C69316370163C0060247
:1004A0008C438567FD1737150660FD8D1305453EA6
:1004B0003D25B2401305007D41018DA3371506602F
:1004C00013050540292DF5B7411122C426C24AC0A3
:1004D00006C69547AA842E84328963F3A70237178C
:1004E000066037160660B715066013074775930652
:1004F000800413060641938585480145EF00A078E6
:10050000BD4763F387023717066037160660B715D5
:1005100006601307477593069004130606419385FA
:10052000054A0145EF002076B7C70414135534007F
:10053000938707C03E95860426950A051D881C41B1
:1005400006040D47331787001347F7FF7D8F937716
:100550003900B240B39787002244D98F1CC192441E
:10056000024941018280411122C426C24AC006C606
:1005700095472A84AE84328963F2A7023717066052
:1005800037160660B71506601307477493066006B2
:1005900013060641938585480145F525BD4763F25D
:1005A00097023717066037160660B71506601307FF
:1005B000477493067006130606419385054A014564
:1005C000D925B7C70414938727C53305F4000A0556
:1005D0001C418545B3959500630A0900DD8DB24045
:1005E00022440CC1924402494101828093C5F5FF27
:1005F000FD8DF5B7411122C426C206C695472A844F
:10060000AE8463F2A7023717066037160660B71587
:100610000660130747739306000A13060641938585
:10062000854801458D25BD4763F29702371706605F
:1006300037160660B7150660130747739306100A4E
:10064000130606419385054A0145352DB7C70414A5
:10065000938787C53E940A041C408545B395950051
:10066000DD8DB2400CC02244924441018280411190
:1006700022C406C626C24AC08D472E8463F1A70E47
:100680003717066037160660B71506601307077838
:100690009306B0071306464B9385C5520145E523E3
:1006A00061C00145B2402244924402494101828026
:1006B00083A7C18795E3B7371050D853B7576E0A51
:1006C0009387079C418319C7B7470F009387072477
:1006D000B307F70223AEF186B7170660131925009A
:1006E0009387C778B7061050CA9798429C43D98F12
:1006F0009CC289476315F50205463285B545E93345
:100700000146B54505458535B5450545E5350546FB
:100710003285B945553B0546B9453285A93503A70C
:10072000C18793571400BA97054763E4870033D70E
:100730008702B71706609387C779CA97944323A2A5
:1007400006020F00F00F9317070193E76731DCD221
:100750000F00F00F03A5C1873355E502A1B7A9F932
:100760003717066037160660B71506601307077857
:100770009306C0071306464B9385C55401452123B4
:100780000DB7411122C406C68D472E8463FFA70E04
:100790003717066037160660B715066013074777E8
:1007A0009306F00B1306464B9385C5520145E1298C
:1007B00069E82244B2403717066037160660B7155D
:1007C0000660130747779306000C1306464B938584
:1007D000C5550145410145A937470F0013070724B7
:1007E0009441C18A99C27D1765FF37470F001307EF
:1007F00007249443858A99C27D1765FF9841418BF0
:1008000049E39843058B35EFB2866374CF009306B6
:100810000010B30FE40083C20F00B30FA700050759
:1008200023805F00E397E6FE23A0AE002320DE00D6
:1008300023A065000F00F00F37470F0013070724B0
:1008400083AF050093FF0F0163840F007D176DFBDD
:1008500037470F001307072483AF070093FF1F00DC
:1008600063840F007D176DFB9841418B19EB984312
:10087000058B01EB3694158E850801C63387080178
:1008800021FFB24022444101828085D5B71706601E
:100890000A059387C779AA979C43217837050050AA
:1008A00093858701938E0701138E470181489387B3
:1008B000070213080896130F0010130505004143A3
:1008C0006DBF011106CEA307B1008D4763E9A700F4
:1008D00005469305F1007535F240056182803717B2
:1008E000066037160660B71506601307877693060D
:1008F00050111306464B9385C55201456926E9BF41
:10090000797106D622D426D24AD04ECE52CC56CABF
:1009100073272034B7070080AD076318F706F32963
:1009200000FC37040061939719001304040063D995
:1009300007003C5C91C737C701E0054508CF8297A7
:10094000B71406609384C47A0149854A514AB39723
:100950002A01B3F7370199C79C40884B88CB1C40CC
:1009600091C38297050991041104E31249FF856739
:100970009387078073A04730B25022549254025993
:10098000F249624AD24A45618280B7F712509847CD
:100990004D9B98C7B7F712509387C71498431367B6
:1009A000270098C3B7F712509387471398431367EC
:1009B000270098C302C6B247F5DF7DBF83A7018831
:1009C00089EFB7570500B7B601E0938707739CD24C
:1009D0000F00F00F854723A0F188828083A701884C
:1009E00095E3411106C6D93FB7B701E037B701E03B
:1009F000910721078C4308439443E39DD5FEB24001
:100A000041018280B7B701E037B701E091072107C4
:100A10008C4308439443E39DD5FE828083A70188DD
:100A2000411122C406C626C24AC02A8491E37937FE
:100A30007537AA842E895D37B30795403335F500A5
:100A4000B38525416394A500E3E787FEB2402244C5
:100A50009244024941018280011126CA06CE22CC6D
:100A60004AC8440031E1930700032302F10085479F
:100A70003E8793060003634EC70401446344F600B7
:100A80003304F6403E947D147D59B38784008385FA
:100A9000070009457D143535E31924FFF24062440F
:100AA000D24442490561828026878147A548B376B2
:100AB000B5021388760563E4D80013880603230083
:100AC0000701B356B50285070507E363B5FA368516
:100AD000F9BFB385E4002380D500050769BF5971CC
:100AE000A2C486C6A6C2CAC04EDE52DC56DA5AD8A6
:100AF0005ED6AECAB2CCB6CEBAD0BED2C2D4C6D6FC
:100B00002A8405E13717066037160660B7150660B8
:100B10001307C77F9306A0021306C6569385455E4A
:100B20009D22DC083ECE93095002130A00031309EC
:100B30003007930A5007130B3006930B40068305CA
:100B4000040081EDB640264496440649F259625AA3
:100B5000D25A425BB25B656182806395350D830535
:100B600014006387450305040146638B250963422E
:100B7000B9046383650B638A750593075002638329
:100B8000F50A9305500209452D3B8305040059A839
:100B9000090401462547294583050400938705FD7F
:100BA00093F6F70FE363D7FC3306A60205043E96DF
:100BB000E5B76380550593078007E394F5FCF2479A
:100BC000C145138747003ACE15A8F24784431387DF
:100BD00047003ACE63DA04009305D002094532C6D5
:100BE000CD313246B3049040A9452685B53505047C
:100BF000B9B7F247A945138747003ACE8843FDB7F6
:100C0000F2478443138747003ACE83850400E5D139
:100C1000094585047D31D5BFF247838507001387D9
:100C200047003ACE09457139D9B7F165938505205A
:100C3000094535BC411106C6CD3FB24001454101D1
:100C4000F1BB411106C6FD37CD2DEFF00FFFEFF0E0
:100C5000DF83F5BF11CAFD1581473307F60003078F
:100C6000070011E7BE852E9523000500828093863C
:100C70001700AA972380E700E387B6FEB687F1BF87
:100C80008280828001A0697123261112232481129F
:100C9000232291123684AA8423202113232E31117A
:100CA0002E89BA89232C4111232A5111B28AC93FB6
:100CB000B7574553370A2061938737652320FAF0E9
:100CC0004A86930500041305CAF023229AF02324D0
:100CD0008AF049375686930500041305CAF49D3FF0
:100CE0004E86930500031305CAF8AD378D47232EB2
:100CF0000AFA63EE9708B7270660139724009387D4
:100D00008780BA979443B717066001479387476077
:100D100008089305F00F3306F700030606002DEED2
:100D2000BA879305F00F3386E74036960306060030
:100D300019C2639BB7061387270063EEE50093870C
:100D400007118A979306D0052380D7F093060002F7
:100D5000A380D7F0BA87BE861306F00F63910A0608
:100D600013871600930700106304F7069387061194
:100D7000B38627009307A0032380F6F0B306E500AF
:100D8000635B04043304804005468147A1A8B7167D
:100D900006609386465F85BFE304B7F83308E50035
:100DA0002300C800050785BF3308F5002300C800ED
:100DB000850795BFB305D5002380E50085063387F9
:100DC000F64056970307070041DFE395C6FE49BF8B
:100DD0001307F00F65B725EC930700032302F1001A
:100DE00001468547B14813034100294821A8B3654E
:100DF0000403330EF300850733440403938505038E
:100E00002300BE0019C0E39417FF814509CA1306E9
:100E100007119305D0020A962300B6F08545AE96D9
:100E20003E861308410015E6BA97AE97638209061D
:100E300093855700BE86B71706609387C75F130672
:100E4000F00F36878506637FD600BA862DA001464F
:100E50002DBF7D16B308C80083C808008506A38F80
:100E600016FFD1B7038807003307D5008507A30F06
:100E700007FFE398B6FCB6879305F00F3387D7409A
:100E80004E970306070009C61387170063FAE506A5
:100E9000138747009306F00F63E6E60213870711F6
:100EA000B30627001307A0032380E6F01306000211
:100EB00013872711A380C6F00A97930680028D0737
:100EC0002300D7F03E879305F00F631609049307BC
:100ED00037009306F00F63EBF6049307071133878F
:100EE0002700930790022300F7F0A947A300F7F02B
:100EF000230107F079338947638DF402613301A040
:100F0000B307E500A38FC7FEBA878DBF3307D500AF
:100F1000A30FC7FE3687B306F740CA9603860600BE
:100F20005DD693061700E3F3D5FE55B7A30701106E
:100F3000D1B78320C11203248112832441120329D3
:100F400001128329C111032A8111832A411155619C
:100F50008280411122C406C62A8419ED3727066013
:100F600037160660B71506601307C788F1461306E3
:100F700046639385C56B013B23A28188B747125016
:100F800023A007001307003098C723A2070423A853
:100F9000070423AA070423AC070423AE0704B727DA
:100FA00006609387078637A601A093850701BE8652
:100FB0000565050698423308A70010C31107E31E14
:100FC00007FF9106E398B6FE37A601A0BE86056529
:100FD000050698423308A700832807006387C800E6
:100FE0007D55B2402244410182801107E31607FF7C
:100FF0009106E390B6FE0567374812507D1723200F
:10100000E8001305080241479305480213068802C9
:101010009306C8028328050083A8050083280600DC
:1010200083A806007D177DF737471250BD4634C7A9
:101030003726066023200800814613060687F14301
:101040008545BA82130507021308470293088702F1
:101050001303C702914E83AF07000147330FC70048
:10106000032F0F00338EEF0011072320EE01E3174B
:1010700077FE13874600138E8600339EC501339793
:10108000E5003367C701339ED5003367C70123A04E
:10109000E2004147032E0500032E080003AE0800BE
:1010A000032E03007D177DF723A00200850691071C
:1010B000E393D6FBB74712503D47B8C723A00706B6
:1010C00023A2070623A4070623A6070623A80706CC
:1010D00023AA070623AC070623AE070623A00708AA
:1010E000DC43214793F6F70FE39CE6EE416713D507
:1010F0000701130707F013050580F98F1305058015
:10110000938707C03335A000B337F0005D8D3305FA
:10111000A040C1BD411122C426C24AC006C6AA844D
:101120002E8432898DE13727066037160660B715A1
:1011300006601307C7849306F00E13064663938573
:10114000856C014589363725066093F734008A0798
:10115000130505863E951841131629008147639CA7
:10116000C70081476391C7020145B24022449244BF
:10117000024941018280B305F4008C41B306F700B7
:1011800091078CC2E9BFB306F70091078C42B30602
:10119000F40083A6C6FFE387D5FC7D55F9B741115E
:1011A00022C406C68D472A8463F2A7023727066049
:1011B00037160660B7150660130787829306501925
:1011C000130646639385856D0145753C374712507C
:1011D00074430D888547B3978700B240224493C774
:1011E000F7FFF58F7CC341018280411122C426C2E2
:1011F0004AC006C68D472A84AE84328963F2A702AC
:101200003727066037160660B71506601307C783D1
:1012100093068010130646639385856D0145A534BA
:1012200093178900139604015D8E09479377340064
:101230006386E7020D476387E7020547638CE70093
:10124000B7471250B0CB22852244B24092440249A3
:101250004101B1B7B7471250F0CBF5B7B7471250BD
:10126000B0CFD5B7B7471250F0CFF1BF411122C46C
:1012700006C6BD472A8463F2A702372706603716E1
:101280000660B7150660130787819306101A1306C8
:1012900046639385456F0145FD32930710113D88E4
:1012A0003304F40237471250E1679387076A00C39B
:1012B000144313D646001376F60F19C2FD17EDFB43
:1012C000B240224441018280FD4763E3A7049D4769
:1012D00063F0A706BD4763EEA702B7F712501307E6
:1012E00085FFB107904306078D46B396E60093C687
:1012F000F6FFF18E05463317E600558F98C3B7F712
:1013000012509387072098433316A600598E90C336
:101310008280DD4763E8A700B7F71250130705FF87
:10132000C107C9B7B7F71250130785FED1075DBFD4
:10133000B7F712502A87A10775B7411122C426C2F8
:101340001704000013048455970400009384045587
:10135000818C4AC006C68984014963159902170425
:1013600000001304A4539704000093842453818C39
:1013700089840149631D9900B24022449244024984
:10138000410182801C40050911048297F9B71C4075
:10139000050911048297F9BF42494F2053717561C5
:1013A00072652057617665206F6E205042320D0ABB
:1013B0000000000042494F20636F726520302072A8
:1013C000756E6E696E672E2045787065637465640E
:1013D0003A20313030206B487A206F6E20504232F4
:1013E0002E0D0A0042494F2072756E6E696E672C91
:1013F0002050433D3078253033780D0A000000003E
:1014000042494F2054524150504544210D0A00009A
:10141000433A5C55736572735C61726D7374726F7D
:101420006E6773756265726F5C4465736B746F7021
:101430005C50726F64756374735C30325F526F76A8
:101440006172695F53747564696F5C526F76617223
:10145000695F53797374656D5F53747564696F5C0C
:10146000746172676574735C42616F63686970313F
:10147000785C76656E646F722F62616F31785F673A
:1014800070696F2E63000000706F7274203C2047FB
:1014900050494F5F4E554D5F504F5254530000001E
:1014A00070696E203C3D204750494F5F4D41585F69
:1014B00050494E00433A5C55736572735C61726DBE
:1014C0007374726F6E6773756265726F5C44657377
:1014D0006B746F705C50726F64756374735C3032E0
:1014E0005F526F766172695F53747564696F5C52A5
:1014F0006F766172695F53797374656D5F5374754C
:1015000064696F5C746172676574735C42616F6378
:1015100068697031785C76656E646F722F62616F96
:1015200031785F756172742E63000000696E7374A8
:10153000616E6365203C20554152545F494E5354BF
:10154000414E43455F434F554E5400006261756400
:1015500072617465203E203075000000286461745B
:10156000612920213D204E554C4C0000433A5C55EA
:10157000736572735C61726D7374726F6E6773758D
:101580006265726F5C4465736B746F705C50726FF0
:1015900064756374735C30325F526F766172695F39
:1015A00053747564696F5C526F766172695F5379C9
:1015B0007374656D5F53747564696F5C7461726791
:1015C0006574735C42616F6368697031785C7665DD
:1015D0006E646F722F62616F5F737464696F2E63E4
:1015E0000000000028666D742920213D204E554CD6
:1015F0004C000000554E4B4E4F574E003A20696E3E
:10160000200000005B534556532D000041535345C5
:1016100052540000494E56415249414E5400000078
:10162000434845434B000000554E52454143484115
:10163000424C4500433A5C55736572735C61726D50
:101640007374726F6E6773756265726F5C446573F5
:101650006B746F705C50726F64756374735C30325E
:101660005F526F766172695F53747564696F5C5223
:101670006F766172695F53797374656D5F537475CA
:1016800064696F5C746172676574735C42616F63F7
:1016900068697031785C76656E646F722F62616F15
:1016A00031785F62696F2E6300000000735F6663CC
:1016B0006C6B5F687A203E203000000066636C6BC4
:1016C0005F687A203E20300028776F72647329208B
:1016D000213D204E554C4C00636F7265203C3D20EF
:1016E0003300000062696F5F70696E203C20333206
:1016F0000000000028636F72655F6D61736B2026C8
:101700002030784629203D3D20636F72655F6D6112
:10171000736B000093024000138D0200138C0200D3
:10172000138B0200130A0000930B0000130A000041
:101730006FF01FFF6770696F5F70756C6C5F75701D
:10174000000000006770696F5F7365745F646972A1
:10175000000000006770696F5F7365745F66756E87
:101760006374696F6E000000756172745F707574E8
:1017700063000000756172745F77726974650000C0
:10178000756172745F696E69740000000100000089
:1017900002000000040000000800000000101050CB
:1017A000002010500030105000401050004000E069
:1017B000005000E0000001E0001001E0002001E026
:1017C000003001E0004001E0005001E0006001E075
:1017D000007001E0006000E0007000E0008000E0C8
:1017E000009000E000A000E000B000E000C000E0D9
:1017F00000D000E000E000E000F000E06D696E69FC
:101800005F7072696E7466000C16066014160660CE
:10181000201606602816066062696F5F7374617235
:10182000745F636F7265730062696F5F636C65619B
:10183000725F657874636C6B0000000062696F5FB3
:101840007365745F646976696465720062696F5F6D
:101850006C6F61645F636F64655F776F7264730060
:101860000050125000601250007012500080125050
:1018700023A0000283220002370120611301C1FF6F
:1018800023200100832201006F00000062696F5F66
:08189000696E6974000000009C
:04000005600603008E
:00000001FF
