:02000004600694
:100300009701FA009381015017011A01130181CF5F
:100310000171970200009382E205739052309702B8
:10032000FA00938222CE1703FA001303E3DA6386FE
:10033000620023A002009102DDBF971200009382A9
:1003400022021703FA001303E3CB9703FA00938307
:1003500063CB6309730003AE02002320C301910243
:100360001103C5BFEF00900273005010F5BF0100EC
:100370007310013417011A011301C1C8130181F769
:1003800006C00EC412C616C81ACA1ECC22CE26D06B
:100390002AD22ED432D636D83ADA3EDC42DEC6C075
:1003A000CAC2CEC4D2C6D6C8DACADECCE2CEE6D045
:1003B000EAD2EED4F2D6F6D8FADAFEDCF322103422
:1003C00096DEF322003016C1F322003416C21171FA
:1003D0003D2B17011A011301E1C2130181F7F652F7
:1003E000739012348A42739002308240A2413242AA
:1003F000C2425243E243724482541255A2553256CD
:10040000C2565257E257725886481649A649364A8C
:10041000C64A564BE64B764C865C165DA65D365E4C
:10042000C65E565FE65F1241730020300100130084
:1004300000001300000013000000411145458145F4
:1004400006C6352DB240494541016F00407F41113C
:10045000494506C6EF00D00409C5B24045454101F3
:10046000E5A5B24041018280411122C426C24AC0A2
:1004700006C69547AA842E84328963F3A7023717EC
:10048000066037160660B7150660130747299306FE
:100490008004130646029385C5090145EF00D00587
:1004A000BD4763F387023717066037160660B71536
:1004B00006601307472993069004130646029385A6
:1004C000450B0145EF005003B7C704141355340022
:1004D000938707C03E95860426950A051D881C4112
:1004E00006040D47331787001347F7FF7D8F937777
:1004F0003900B240B39787002244D98F1CC192447F
:10050000024941018280411122C426C24AC006C666
:1005100095472A84AE84328963F3A70237170660B1
:1005200037160660B715066013078727930660061F
:10053000130646029385C5090145EF00E07BBD47E0
:1005400063F397023717066037160660B715066023
:100550001307872793067006130646029385450BFB
:100560000145EF006079B7C70414938727C53305A9
:10057000F4000A051C418545B3959500630A0900FE
:10058000DD8DB24022440CC1924402494101828077
:1005900093C5F5FFFD8DF5B7411122C426C206C6ED
:1005A00095472A84AE8463F3A7023717066037168F
:1005B0000660B71506601307C72693068008130662
:1005C00046029385C5090145EF000073BD4763F3FB
:1005D00097023717066037160660B71506601307CF
:1005E000C72693069008130646029385450B0145DE
:1005F000EF008070B7C704149387E7C53E940A04E0
:100600000840B24022443355950005899244410187
:100610008280411122C426C206C695472A84AE8430
:1006200063F2A7023717066037160660B715066033
:100630001307072693064009130646029385C5094A
:1006400001455D2DBD4763F29702371706603716E7
:100650000660B715066013070726930650091306B0
:1006600046029385450B0145412DB7C70414938776
:10067000C7C43E940A041C408545B3959500BD8DC2
:10068000B2400CC02244924441018280411122C4F4
:1006900026C206C695472A84AE8463F2A70237179E
:1006A000066037160660B715066013070725930620
:1006B000000A130646029385C5090145352DBD473D
:1006C00063F297023717066037160660B7150660A3
:1006D000130707259306100A130646029385450B58
:1006E0000145192DB7C70414938787C53E940A04A2
:1006F0001C408545B3959500DD8DB2400CC0224469
:10070000924441018280411122C426C206C6954707
:100710002A84AE8463F2A702371706603716066094
:10072000B71506601307C7239306C00A13064602CF
:100730009385C5090145C923BD4763F29702371761
:10074000066037160660B71506601307C7239306C1
:10075000D00A130646029385450B0145712BB7C796
:100760000414938787C53E940A041C408545B395BD
:10077000950093C5F5FFFD8DB2400CC02244924414
:1007800041018280411122C426C206C695472A84AF
:10079000AE8463F2A7023717066037160660B715F6
:1007A0000660130787289306800513064602938583
:1007B000C50901459123BD4763F2970237170660CB
:1007C00037160660B715066013078728930690054D
:1007D000130646029385450B0145392BA6852285D4
:1007E00001465931A68522850146313B22852244A6
:1007F000B240A6859244410139B7411122C406C6D0
:1008000026C24AC08D472E8463F1A70E37170660B3
:1008100037160660B71506601307872A9306B007D8
:100820001306860C938505140145F92161C0014525
:10083000B2402244924402494101828083A7C18C84
:1008400095E3B7371050D853B7576E0A9387079C74
:10085000418319C7B7470F0093870724B307F702EF
:1008600023A6F18CB7170660131925009387472B31
:10087000B7061050CA9798429C43D98F9CC28947AB
:100880006315F50205463285B545F93E0146B54585
:1008900005459539B5450545D53B05463285B945EC
:1008A000E1360546B9453285B93903A7C18C93575E
:1008B0001400BA97054763E4870033D78702B71758
:1008C00006609387472CCA97944323A206020F0021
:1008D000F00F9317070193E76731DCD20F00F00F99
:1008E00003A5C18C3355E502A1B7A9F937170660F6
:1008F00037160660B71506601307872A9306C007E8
:100900001306860C938505160145FD260DB77971F2
:1009100006D622D426D24AD04ECE52CC56CA7327FF
:100920002034B7070080AD076318F706F32900FCF1
:1009300037040061939719001304040063D907007A
:100940003C5C91C737C701E0054508CF8297B714D3
:1009500006609384442D0149854A514AB3972A0180
:10096000B3F7370199C79C40884B88CB1C4091C393
:100970008297050991041104E31249FF8567938763
:10098000078073A04730B250225492540259F24962
:10099000624AD24A45618280B7F7125098474D9B10
:1009A00098C7B7F712509387C71498431367270067
:1009B00098C3B7F7125093874713984313672700DC
:1009C00098C302C6B247F5DF7DBF83A7018D89EFCB
:1009D000B7570500B7B601E0938707739CD20F00A5
:1009E000F00F854723A8F18C828083A7018D95E3C2
:1009F000411106C6D93FB7B701E037B701E091070B
:100A000021078C4308439443E39DD5FEB240410146
:100A10008280B7B701E037B701E0910721078C4327
:100A200008439443E39DD5FE828083A7018D411145
:100A300022C406C626C24AC02A8491E37937753794
:100A4000AA842E895D37B30795403335F500B38509
:100A500025416394A500E3E787FEB2402244924417
:100A6000024941018280F16593850520094571B3F2
:100A7000411106C6CD3FB240014541017DB741114C
:100A800022C426C24AC006C6135445009547AE8408
:100A90001379F50063F28702371706603716066090
:100AA000B71506601307073493068002130606176E
:100AB0009385851E05458924CA852285E1318947AC
:100AC0006386F40263E5970091C4014629A0F114FE
:100AD000E3ED97FE0546CA852285353422852244FA
:100AE000B2409244CA850249410131B9CA85228582
:100AF0000146113C22852244B2409244CA850249F3
:100B0000410169B6411122C426C206C613544500EC
:100B100095479374F50063F287023717066037161E
:100B20000660B7150660130707339306A005130682
:100B300006179385851E0545C12222852244B240B1
:100B4000A6859244410189BC411122C426C206C631
:100B50001354450095479374F50063F287023717E5
:100B6000066037160660B71506601307473293060E
:100B70007006130606179385851E0545B52A22853E
:100B80002244B240A6859244410161B4411106C697
:100B9000C5350D29EFF07F8AEFF07F8BF5BF938786
:100BA000C1870147BE86114683C5170099C983C511
:100BB00007006398A500D1473307F7023385E600A5
:100BC00082800507D107E311C7FE014582804111EC
:100BD00022C426C22A8406C6093D1C48AA8499C399
:100BE000638DA7000345040004C8293F8347240000
:100BF000638AA7002301A40004C4B24022449244A3
:100C0000410182801844CD463387E440E3F7E6FE95
:100C100003473400E303F7FE10408546A301F400C8
:100C20006317D700F9FB2302E40044C4F9B79357D4
:100C300006410547E393E7FCA302D4007DBF4111C1
:100C400022C406C62A84A13F21E99386C1870147B1
:100C5000B687114683C5160085EDD1463307D70206
:100C600022858945BA970547A380E700130710102E
:100C7000238087002391E700239207002244B2409B
:100C800023A4070023A6070023A807004101C5BB32
:100C90000507D106E310C7FCB2402244410182801F
:100CA000411106C622C4E53D11E50145B24022448A
:100CB000410182802A84213F83474400FDD72302DB
:100CC00004000545E5B711CAFD1581473307F60055
:100CD0000307070011E7BE852E95230005008280DB
:100CE00093861700AA972380E700E387B6FEB687AE
:100CF000F1BF8280828001A0697123261112232412
:100D00008112232291123684AA8423202113232EB8
:100D100031112E89BA89232C4111232A5111B28A0B
:100D2000C93FB7574553370A20619387376523205A
:100D3000FAF04A86930500041305CAF023229AF0BC
:100D400023248AF049375686930500041305CAF414
:100D50009D3F4E86930500031305CAF8AD378D47B6
:100D6000232E0AFA63EE9708B7170660139724003C
:100D70009387C734BA979443B717066001479387A0
:100D8000C72008089305F00F3306F7000306060096
:100D90002DEEBA879305F00F3386E74036960306AB
:100DA000060019C2639BB7061387270063EEE500B0
:100DB000938707118A979306D0052380D7F093066F
:100DC0000002A380D7F0BA87BE861306F00F6391A6
:100DD0000A0613871600930700106304F70693872B
:100DE0000611B38627009307A0032380F6F0B3060D
:100DF000E500635B04043304804005468147A1A8F5
:100E0000B71606609386C61F85BFE304B7F833089C
:100E1000E5002300C800050785BF3308F50023005F
:100E2000C800850795BFB305D5002380E50085067A
:100E30003387F64056970307070041DFE395C6FE68
:100E400049BF1307F00F65B725EC93070003230292
:100E5000F10001468547B14813034100294821A804
:100E6000B3650403330EF30085073344040393850D
:100E700005032300BE0019C0E39417FF814509CA8A
:100E8000130607119305D0020A962300B6F0854594
:100E9000AE963E861308410015E6BA97AE97638278
:100EA000090693855700BE86B717066093874720CB
:100EB0001306F00F36878506637FD600BA862DA00D
:100EC00001462DBF7D16B308C80083C808008506FB
:100ED000A38F16FFD1B7038807003307D500850716
:100EE000A30F07FFE398B6FCB6879305F00F33878F
:100EF000D7404E970306070009C61387170063FA09
:100F0000E506138747009306F00F63E6E6021387B2
:100F10000711B30627001307A0032380E6F013068A
:100F2000000213872711A380C6F00A979306800258
:100F30008D072300D7F03E879305F00F6316090451
:100F4000930737009306F00F63EBF604930707113E
:100F500033872700930790022300F7F0A947A300E7
:100F6000F7F0230107F079338947638DF402613389
:100F700001A0B307E500A38FC7FEBA878DBF330773
:100F8000D500A30FC7FE3687B306F740CA9603867F
:100F900006005DD693061700E3F3D5FE55B7A30709
:100FA0000110D1B78320C11203248112832441127E
:100FB000032901128329C111032A8111832A4111B6
:100FC00055618280411122C426C217040000130417
:100FD0002439970400009384A438818C4AC006C643
:100FE00089840149631599021704000013044437EA
:100FF000970400009384C436818C89840149631D61
:101000009900B240224492440249410182801C402E
:10101000050911048297F9B71C400509110482974C
:10102000F9BF0000433A5C55736572735C61726D81
:101030007374726F6E6773756265726F5C4465730B
:101040006B746F705C50726F64756374735C303274
:101050005F526F766172695F53747564696F5C5239
:101060006F766172695F53797374656D5F537475E0
:1010700064696F5C746172676574735C42616F630D
:1010800068697031785C76656E646F722F62616F2B
:1010900031785F6770696F2E63000000706F727443
:1010A000203C204750494F5F4E554D5F504F5254A2
:1010B0005300000070696E203C3D204750494F5F4F
:1010C0004D41585F50494E00433A5C557365727309
:1010D0005C61726D7374726F6E6773756265726F47
:1010E0005C4465736B746F705C50726F647563748D
:1010F000735C30325F526F766172695F53747564EE
:10110000696F5C526F766172695F53797374656D54
:101110005F53747564696F5C746172676574735C46
:1011200042616F6368697031785C76656E646F7276
:101130002F62616F31785F756172742E63000000F9
:10114000696E7374616E6365203C20554152545F33
:10115000494E5354414E43455F434F554E54000052
:101160006261756472617465203E20307500000014
:10117000433A5C55736572735C61726D7374726F20
:101180006E6773756265726F5C4465736B746F70C4
:101190005C50726F64756374735C30325F526F764B
:1011A0006172695F53747564696F5C526F766172C6
:1011B000695F53797374656D5F53747564696F5CAF
:1011C000746172676574735C42616F6368697031E2
:1011D000785C726F766172692F726F766172695F87
:1011E0006770696F2E630000706F7274203C204E30
:1011F000554D5F504F52545300000000554E4B4E1A
:101200004F574E003A20696E200000005B53455650
:10121000532D00004153534552540000494E56414E
:101220005249414E54000000434845434B000000E2
:10123000554E524541434841424C45006770696FE5
:101240005F64697361626C655F70756C6C730000DC
:101250006770696F5F70756C6C5F7570000000007F
:101260006770696F5F746F67676C65006770696F3F
:101270005F676574000000006770696F5F73657475
:101280005F646972000000006770696F5F696E6972
:10129000740000006770696F5F7365745F66756ED8
:1012A0006374696F6E000000756172745F696E69C6
:1012B00074000000010000000200000004000000B3
:1012C0000800000000101050002010500030105096
:1012D00000401050004000E0005000E0000001E03D
:1012E000001001E0002001E0003001E0004001E0DA
:1012F000005001E0006001E0007001E0006000E0EB
:10130000007000E0008000E0009000E000A000E03D
:1013100000B000E000C000E000D000E000E000E02D
:1013200000F000E070696E5F746F67676C650000C5
:101330006469676974616C5F7265616400000000D4
:1013400070696E5F6D6F64650000000014120660C6
:0C1350001C1206602812066030120660B5
:04000005600603008E
:00000001FF
