:100000006F00201B000000009E010000A001000006
:1000100000000000000000000000000000000000E0
:1000200000000000000000000000000000000000D0
:10003000B001000000000000B0010000000000005E
:10004000B0010000B0010000B0010000B0010000EC
:10005000B0010000B0010000B0010000B0010000DC
:10006000B0010000B0010000B0010000B0010000CC
:10007000B0010000B0010000B0010000B0010000BC
:10008000B0010000B0010000B0010000B0010000AC
:10009000B0010000B0010000F806000001000000FF
:1000A000511126C022C206C4828201008244124439
:1000B000A2403101828000002A86014593F6150096
:1000C00091C2329585810606F5F98280634E05025C
:1000D00063C305042E86AA857D5515C285466378BF
:1000E000B6006356C00006068606E36CB6FE014500
:1000F00063E4C500918D558D85820582F5FA828075
:100100008682C93F2E8582823305A0406347B000B6
:10011000B305B040C1B7B305B0408682653F330533
:10012000A0408282868263C70500634905005D376F
:100130002E858282B305B040E35B05FE3305A04007
:10014000513F3305B04082820100EFF27FF58145D7
:100150001305100281210D44854513051002112B52
:10016000130500059D2481451305100219237D14F4
:10017000130500051374F40F892C79FC056513052C
:1001800005FAEF00C0701DB7EFF29FF113051002E2
:1001900019231305800C152CEF00207701BF01A057
:1001A000B707EFBE37E700E0938707083CC701A019
:1001B00001A0970100209381E16417010020130141
:1001C00061641305000A970500209385A5E31706CF
:1001D0000020130626E363FAC5008322050023A04E
:1001E000550011059105E3EAC5FE1715000013053A
:1001F000A59F970500209385E5E0170600201306CC
:10020000E6E163FAC5008322050023A0550011052D
:100210009105E3EAC5FE138581819705002093854A
:10022000E5E06377B500232005001105E36DB5FE19
:10023000896293820288739002308D42739042806B
:1002400097020000938202DC93E2320073905230F6
:10025000EF004001970200009382824673901234AF
:1002600073002030EFF2DFE3371402401C40370701
:10027000FFF8414593E717001CC05C40F98F5CC054
:100280001C403707F7FE7D17F98F1CC01C4037074D
:10029000FCFF7D17F98F1CC05C4041777D17F98FFB
:1002A0005CC0B7079F001CC4E12A1C4C93E70702FF
:1002B0001CCCB71701409387074098431377F7F09A
:1002C00098C398431367070898C3094798CBB7F7B3
:1002D000FF1F03C5477D9307F00F6304F5007D8979
:1002E0004522B72702409843C176FD16719B98C3FB
:1002F00098431367170098C3B7170240D843D8C371
:10030000D843758FD8C3D843B7060001D8C39843E4
:10031000558F98C3984393166700E3DD06FED843D4
:10032000B7160240719BD8C3D84313672700D8C3C0
:100330002147DC42B18BE39EE7FE8DBBB71602403E
:10034000DC422147B18B6390E704DC423775DC0265
:10035000130505C0D84285679387479A11833D8B63
:10036000BA9783C70700D84293F5F70F13770708AA
:10037000B357F50011EFEFF2BFD2A93B37070020CA
:100380002320A70025B337356E0113050560D9B7C3
:10039000370700202320F7008280EFF27FD0B707D5
:1003A000002003A50700B7157A00938505201D33AB
:1003B0001375F50F238DA18093175500898F8A0738
:1003C0003E950E05239CA180D5B1EFF27FCD37F489
:1003D00000E05C40AA85F99B5CC003D58181E939C6
:1003E00008C8232404001C4093E717001CC05C408D
:1003F000858BF5DF1C40F99B1CC04DB9944593F7E4
:10040000060193F2F60081C7DC41B3E2F20083D328
:10041000050093F7F30FA5C303230500611122C262
:1004200026C08147130480029304800405473316D5
:10043000F70033F7C3006312E602939527003D47A8
:100440003317B7001347F7FF33776700B395B20050
:1004500033E3E500639D860050C985072147E39794
:10046000E7FC124423206500824421018280E39648
:1004700096FE10C9DDB782800CC982804CC982808B
:10048000371702401C430E0593F777F05D8D08C3C4
:100490008280B7170240984F81C5498F98CF8280DC
:1004A0001345F5FF798D88CF8280B7170240D84F6A
:1004B00081C5498FD8CF82801345F5FF798DC8CF8C
:1004C000828023AEA1808280370700C08357050059
:1004D0002A9719C737D7FEBF130707402A9711E796
:1004E00003D7250093F7F7F8D98F03D7650093F763
:1004F000F7CFD98F2310F50083D745002316F502D7
:1005000083D705002314F502B7370140938707C04E
:100510006316F50083C785002318F5028547231A63
:10052000F50082808357050091C593E717002310DB
:10053000F500828041677917F98FD5BF8357C500D1
:1005400009C6CD8F2316F500828093C5F5FFED8F88
:10055000D5BF835705010355C500ED8F6D8DB337AA
:10056000F0003335A0007D8D828093C5F5FF231800
:10057000B500828011818D4763E9A70085670A0570
:10058000938707BBAA97884309E5371501401305F0
:1005900005408280EFF2DFB041112EC09354450038
:1005A0008D472A8463ED970485671397240093870A
:1005B00007BBBA979C43A1C785679396240093878E
:1005C00007BBB6979C43A9EF1377F4008547B39711
:1005D000E7002312F1008D473EC482472313010038
:1005E0002316010023170100FD171947636DF70457
:1005F00005678A07130787B7BA979C438287056701
:1006000005668565130747B9930680051306469B63
:100610009385C5A20545D1228D47E3E797FA69BFC7
:1006200083C701828545B3949500E58FD1FF856727
:10063000938707BAB6978843A93D83C70182DD8CAB
:100640002380918251B7C1473EC6228525374C0091
:1006500075334101A1BC9147C5BF93078004EDB735
:1006600093078002D5B7D147C5B7E147F1BFF1473E
:10067000E1BFEFF2FFA22A84AE84ED3D854593777A
:10068000F400B397F50093950701C18199C0ED334C
:1006900031BCED33F5BFEFF2BFA02A84E13D5845F0
:1006A0009376F4008547B397D70093950701F98FA8
:1006B000C18199C3E133DDBAC133F5BFEFF25F9E6B
:1006C00005450135A539D139B707002083A70700B3
:1006D00099EF3707002005668565130787009306A5
:1006E0005002130686A5938505AD0545FD20A92872
:1006F0008124A13C513CFDBF130181FD2ACA2EC8B3
:1007000037050040854506D216D01ACE1ECC32C61B
:1007100036C43AC23EC0353D11C985453705004053
:10072000A93583A74182850723A2F1829250825284
:100730007243E2435245C2453246A24612478247BF
:100740001301810273002030EFF29F95854551110E
:100750002E85A13BB707002003A40700B7470F0071
:100760009387F72363EF87000567056685651307A1
:1007700007BC93066003130686AE938505B6054550
:10078000A928B7450F009385052422852311010070
:100790002313010023140100EFF0DF937D1593076D
:1007A000703E2310A1008A85370500402312F10016
:1007B000213B054637050040B28523180500BD3BA7
:1007C000B7E700E01307000423A2E71085453705CB
:1007D0000040893B31016FF07F8DEFF27F8C2E84DA
:1007E0007111B2859307800873B00730B7070020F6
:1007F00037564553938707701306366590C3C8C3B1
:1008000094C789CD370500207D461305C5703AC0D1
:10081000F528B7070020A3850772024701CF3705E7
:1008200000207D46BA851305C572CD20B70700208C
:10083000A385077401CC370500207D46A2851305EA
:10084000C574E920B7070020A38507760100FDBF26
:10085000B737004088C38280B7370040C8C3828062
:10086000B737004088C78280AD673737004093872D
:10087000A7AA1CC38280B567373700409387C7CCCF
:100880001CC3371702405C53898BF5DF8280EFF27F
:100890003F8193142500AA9471118E04014493871B
:1008A00001813306F4008345060026852EC0EFF053
:1008B0007F8205677D1579178245938701819D4663
:1008C000636EA7028567938747BD06043E948357EE
:1008D0000400014463E5B40013140501418015656B
:1008E000130555553EC0AD3703450100B537228588
:1008F000853F9D3F493711016FF04FFB0504E3121F
:10090000D4FA05647D149947D9BFB9BFAA8709CA2B
:1009100003C7050085058507A38FE7FE7D1665FBE8
:100920003E966393C70082808507A38F07FED5BFDD
:10093000511122C2170700001307072B17040000EC
:100940001304842A198C26C006C409848144639444
:100950008402170700001307272917040000130457
:10096000A428198C0984814463928402A240124411
:1009700082443101828093972400BA979C43850476
:1009800082971707000013072726D1B793972400F3
:10099000BA979C4385048297170700001307C72462
:1009A000E1B7000001020304050607080102030481
:1009B00005060708433A5C55736572735C61726D96
:1009C0007374726F6E6773756265726F5C44657382
:1009D0006B746F705C50726F64756374735C3032EB
:1009E0005F526F766172695F53747564696F5C52B0
:1009F0006F766172695F53797374656D5F53747557
:100A000064696F5C746172676574735C4348333208
:100A1000563030335C726F766172692F726F766117
:100A200072695F6770696F2E6300000069647820E7
:100A30003C204E554D5F504F525453202626207077
:100A40006F72745F7461626C655B6964785D2021AC
:100A50003D204E554C4C0000433A5C557365727313
:100A60005C61726D7374726F6E6773756265726FBD
:100A70005C4465736B746F705C50726F6475637403
:100A8000735C30325F526F766172695F5374756464
:100A9000696F5C526F766172695F53797374656DCB
:100AA0005F53747564696F5C746172676574735CBD
:100AB00043483332563030335C726F766172692F3F
:100AC000726F766172695F6D61696E2E63000000FE
:100AD00053797374656D436F7265436C6F636B20FC
:100AE0003E20305500000000433A5C557365727338
:100AF0005C61726D7374726F6E6773756265726F2D
:100B00005C4465736B746F705C50726F6475637472
:100B1000735C30325F526F766172695F53747564D3
:100B2000696F5C526F766172695F53797374656D3A
:100B30005F53747564696F5C746172676574735C2C
:100B400043483332563030335C726F766172692FAE
:100B5000726F766172695F7469636B2E6300000067
:100B600074696D65725F636C6B203E3D203130307F
:100B70003030303055000000560600005A060000A4
:100B800060060000660600006A0600006E060000AF
:100B90004A06000070696E5F6D6F646500000000BA
:100BA0000400000000000000100000002000000011
:100BB0000008014000000000001001400014014046
:100BC000726F766172695F7469636B5F696E697475
:100BD0000000000000000100020003000400050006
:040BE000060000000B
:100BE400006CDC02000000006D61696E0000000012
:080BF4000408102040800000FD
:00000001FF
