:02000004600694
:100300009701FA009381015017011A01130181CF5F
:100310000171970200009382E205739052309702B8
:10032000FA00938222CE1703FA001303E3D5638603
:10033000620023A002009102DDBF971200009382A9
:10034000623B1703FA001303E3CB9703FA0093838E
:1003500063CB6309730003AE02002320C301910243
:100360001103C5BFEF00F02D73005010F5BF010061
:100370007310013417011A011301C1C8130181F769
:1003800006C00EC412C616C81ACA1ECC22CE26D06B
:100390002AD22ED432D636D83ADA3EDC42DEC6C075
:1003A000CAC2CEC4D2C6D6C8DACADECCE2CEE6D045
:1003B000EAD2EED4F2D6F6D8FADAFEDCF322103422
:1003C00096DEF322003016C1F322003416C21171FA
:1003D000B12D17011A011301E1C2130181F7F65281
:1003E000739012348A42739002308240A2413242AA
:1003F000C2425243E243724482541255A2553256CD
:10040000C2565257E257725886481649A649364A8C
:10041000C64A564BE64B764C865C165DA65D365E4C
:10042000C65E565FE65F1241730020300100130084
:1004300000001300000013000000411181454545F4
:1004400006C6EF00D0121305007DEF005056B240F3
:10045000371506601305452441016F00007B4111EB
:10046000454506C6EF009019B2401305401F4101F3
:10047000E1AD411122C426C24AC006C69547AA84EE
:100480002E84328963F3A702371706603716066099
:10049000B71506601307875F930680041306462688
:1004A0009385C52D0145EF00101EBD4763F38702FC
:1004B0003717066037160660B71506601307875FA3
:1004C00093069004130646269385452F0145EF00B9
:1004D000901BB7C7041413553400938707C03E958B
:1004E000860426950A051D881C4106040D4733170E
:1004F00087001347F7FF7D8F93773900B240B3979A
:1005000087002244D98F1CC1924402494101828054
:10051000411122C426C24AC006C695472A84AE8429
:10052000328963F3A7023717066037160660B715DE
:1005300006601307C75D930660061306462693857B
:10054000C52D0145EF003014BD4763F397023717FF
:10055000066037160660B71506601307C75D930679
:100560007006130646269385452F0145EF00B0110E
:10057000B7C70414938727C53305F4000A051C4147
:100580008545B3959500630A0900DD8DB24022448C
:100590000CC1924402494101828093C5F5FFFD8D53
:1005A000F5B7411122C426C206C695472A84AE84F7
:1005B00063F3A7023717066037160660B7150660A3
:1005C0001307075D93064009130646269385C52D3C
:1005D0000145EF00500BBD4763F3970237170660E4
:1005E00037160660B71506601307075D93065009B6
:1005F000130646269385452F0145EF00D008B7C75F
:1006000004149387C7C43E940A041C408545B395DF
:100610009500BD8DB2400CC02244924441018280BD
:10062000411122C426C206C695472A84AE8463F3CC
:10063000A7023717066037160660B715066013075E
:10064000075C9306000A130646269385C52D0145CF
:10065000EF007003BD4763F3970237170660371644
:100660000660B71506601307075C9306100A1306A9
:1006700046269385452F0145EF00F000B7C70414C7
:10068000938787C53E940A041C408545B395950021
:10069000DD8DB2400CC02244924441018280411160
:1006A00022C426C206C695472A84AE8463F3A702F5
:1006B0003717066037160660B71506601307C75A66
:1006C0009306C00A130646269385C52D0145EF0003
:1006D000807BBD4763F397023717066037160660C5
:1006E000B71506601307C75A9306D00A13064626A5
:1006F0009385452F0145EF000079B7C70414938710
:1007000087C53E940A041C408545B395950093C562
:10071000F5FFFD8DB2400CC022449244410182801D
:10072000411122C426C206C695472A84AE8463F3CB
:10073000A7023717066037160660B715066013075D
:10074000C75E93068005130646269385C52D014591
:10075000EF006073BD4763F39702371706603716E3
:100760000660B71506601307C75E9306900513066B
:1007700046269385452F0145EF00E070A68522852A
:100780000146C539A6852285014659332285224472
:10079000B240A6859244410119B7411122C406C650
:1007A00026C24AC08D472E8463F1A70E3717066014
:1007B00037160660B7150660130747629306B00741
:1007C00013068630938505380145752D61C00145B6
:1007D000B2402244924402494101828083A7C187EA
:1007E00095E3B7371050D853B7576E0A9387079CD5
:1007F000418319C7B7470F0093870724B307F70250
:1008000023AEF186B7170660131925009387076397
:10081000B7061050CA9798429C43D98F9CC289470B
:100820006315F50205463285B545A1310146B5454A
:100830000545F939B5450545E53305463285B945E0
:100840000D390546B9453285E13103A7C187935774
:100850001400BA97054763E4870033D78702B717B8
:10086000066093870764CA97944323A206020F0089
:10087000F00F9317070193E76731DCD20F00F00FF9
:1008800003A5C1873355E502A1B7A9F9371706605B
:1008900037160660B7150660130747629306C00750
:1008A000130686309385053A0145F12B0DB74111AA
:1008B00022C406C68D472E8463FFA70E3717066035
:1008C00037160660B7150660130787619306F00BAD
:1008D00013068630938505380145752369E822445F
:1008E000B2403717066037160660B7150660130763
:1008F00087619306000C130686309385053B0145FE
:10090000410151A337470F00130707249441C18ABF
:1009100099C27D1765FF37470F00130707249443DB
:10092000858A99C27D1765FF9841418B49E39843B9
:10093000058B35EFB2866374CF0093060010B30FBA
:10094000E40083C20F00B30FA700050723805F00F8
:10095000E397E6FE23A0AE002320DE0023A065007F
:100960000F00F00F37470F001307072483AF050070
:1009700093FF0F0163840F007D176DFB37470F0056
:100980001307072483AF070093FF1F0063840F0042
:100990007D176DFB9841418B19EB9843058B01EB5B
:1009A0003694158E850801C63387080121FFB240B1
:1009B00022444101828085D5B71706600A059387D6
:1009C0000764AA979C4321783705005093858701D7
:1009D000938E0701138E47018148938707021308FE
:1009E0000896130F00101305050041436DBF011158
:1009F00006CEA307B1008D4763E9A700054693051E
:100A0000F1007535F24005618280371706603716B0
:100A10000660B71506601307C760930650111306EA
:100A20008630938505380145B929E9BF797106D625
:100A300022D426D24AD04ECE52CC56CA7327203466
:100A4000B7070080AD076318F706F32900FC3704E9
:100A50000061939719001304040063D907003C5CFC
:100A600091C737C701E0054508CF8297B7140660E4
:100A7000938404650149854A514AB3972A01B3F723
:100A8000370199C79C40884B88CB1C4091C3829703
:100A9000050991041104E31249FF856793870780D4
:100AA00073A04730B250225492540259F249624A1C
:100AB000D24A45618280B7F7125098474D9B98C73C
:100AC000B7F712509387C71498431367270098C34A
:100AD000B7F712509387471398431367270098C3BB
:100AE00002C6B247F5DF7DBF83A7018889EFB757FC
:100AF0000500B7B601E0938707739CD20F00F00F93
:100B0000854723A0F188828083A7018895E341115E
:100B100006C6D93FB7B701E037B701E09107210713
:100B20008C4308439443E39DD5FEB240410182804B
:100B3000B7B701E037B701E0910721078C430843BD
:100B40009443E39DD5FE828083A70188411122C48E
:100B500006C626C24AC02A8491E379377537AA842B
:100B60002E895D37B30795403335F500B3852541B0
:100B70006394A500E3E787FEB24022449244024911
:100B800041018280011126CA06CE22CC4AC8440007
:100B900031E1930700032302F10085473E87930666
:100BA0000003634EC70401446344F6003304F64077
:100BB0003E947D147D59B3878400838507000945E1
:100BC0007D143535E31924FFF2406244D244424992
:100BD0000561828026878147A548B376B5021388D0
:100BE000760563E4D8001388060323000701B35693
:100BF000B50285070507E363B5FA3685F9BFB38506
:100C0000E4002380D500050769BF5971A2C486C6D8
:100C1000A6C2CAC04EDE52DC56DA5AD85ED6AECA7A
:100C2000B2CCB6CEBAD0BED2C2D4C6D62A8405E1E2
:100C30003717066037160660B71506601307076A90
:100C40009306A0021306063C938585432D2CDC08F1
:100C50003ECE93095002130A000313093007930A8A
:100C60005007130B3006930B40068305040081EDFB
:100C7000B640264496440649F259625AD25A425B1B
:100C8000B25B656182806395350D830514006387CF
:100C9000450305040146638B25096342B904638358
:100CA000650B638A7505930750026383F50A930504
:100CB000500209452D3B8305040059A8090401464B
:100CC0002547294583050400938705FD93F6F70F13
:100CD000E363D7FC3306A60205043E96E5B76380BE
:100CE000550593078007E394F5FCF247C145138748
:100CF00047003ACE15A8F2478443138747003ACEFF
:100D000063DA04009305D002094532C6CD3132467C
:100D1000B3049040A9452685B5350504B9B7F24717
:100D2000A945138747003ACE8843FDB7F24784436D
:100D3000138747003ACE83850400E5D10945850431
:100D40007D31D5BFF24783850700138747003ACE30
:100D500009457139D9B7F16593850520094535BC39
:100D6000411106C6CD3FB24001454101F1BB4111E1
:100D700022C426C24AC006C6135445009547AE8415
:100D80001379F50063F2870237170660371606609D
:100D9000B71506601307876B930680021306864417
:100DA0009385054C0545C520CA852285953A894716
:100DB0006388F40263E5970091C4014629A0F11409
:100DC000E3ED97FE0546CA852285EFF06FF4228594
:100DD0002244B2409244CA85024941016FF03F8CDF
:100DE000CA8522850146EFF0AFF222852244B24047
:100DF0009244CA85024941016FF09F82411122C489
:100E000026C206C61354450095479374F50063F255
:100E100087023717066037160660B7150660130796
:100E2000C76A93067006130686449385054C0545EC
:100E3000992822852244B240A685924441016FF050
:100E40004FF6411106C6293F712EEFF00FDFEFF08C
:100E50000FE1F5BF11CAFD1581473307F6000307FF
:100E6000070011E7BE852E9523000500828093863A
:100E70001700AA972380E700E387B6FEB687F1BF85
:100E80008280828001A0697123261112232481129D
:100E9000232291123684AA8423202113232E311178
:100EA0002E89BA89232C4111232A5111B28AC93FB4
:100EB000B7574553370A2061938737652320FAF0E7
:100EC0004A86930500041305CAF023229AF02324CE
:100ED0008AF049375686930500041305CAF49D3FEE
:100EE0004E86930500031305CAF8AD378D47232EB0
:100EF0000AFA63EE9708B7170660139724009387E2
:100F0000476CBA979443B717066001479387474EDB
:100F100008089305F00F3306F700030606002DEED0
:100F2000BA879305F00F3386E7403696030606002E
:100F300019C2639BB7061387270063EEE50093870A
:100F400007118A979306D0052380D7F093060002F5
:100F5000A380D7F0BA87BE861306F00F63910A0606
:100F600013871600930700106304F7069387061192
:100F7000B38627009307A0032380F6F0B306E500AD
:100F8000635B04043304804005468147A1A8B7167B
:100F900006609386464D85BFE304B7F83308E50045
:100FA0002300C800050785BF3308F5002300C800EB
:100FB000850795BFB305D5002380E50085063387F7
:100FC000F64056970307070041DFE395C6FE49BF89
:100FD0001307F00F65B725EC930700032302F10018
:100FE00001468547B14813034100294821A8B3654C
:100FF0000403330EF300850733440403938505038C
:101000002300BE0019C0E39417FF814509CA1306E7
:1010100007119305D0020A962300B6F08545AE96D7
:101020003E861308410015E6BA97AE97638209061B
:1010300093855700BE86B71706609387C74D130682
:10104000F00F36878506637FD600BA862DA001464D
:101050002DBF7D16B308C80083C808008506A38F7E
:1010600016FFD1B7038807003307D5008507A30F04
:1010700007FFE398B6FCB6879305F00F3387D74098
:101080004E970306070009C61387170063FAE506A3
:10109000138747009306F00F63E6E60213870711F4
:1010A000B30627001307A0032380E6F0130600020F
:1010B00013872711A380C6F00A97930680028D0735
:1010C0002300D7F03E879305F00F631609049307BA
:1010D00037009306F00F63EBF6049307071133878D
:1010E0002700930790022300F7F0A947A300F7F029
:1010F000230107F079338947638DF402613301A03E
:10110000B307E500A38FC7FEBA878DBF3307D500AD
:10111000A30FC7FE3687B306F740CA9603860600BC
:101120005DD693061700E3F3D5FE55B7A30701106C
:10113000D1B78320C11203248112832441120329D1
:1011400001128329C111032A8111832A411155619A
:101150008280411122C406C62A8405E13717066041
:1011600037160660B71506601307476D93066002D1
:10117000130646519385C5583933B727044037E7DE
:10118000CC1A938707C01307175598C30F00F00FA9
:101190003717044000C38D4614C70F00F00F23A07B
:1011A00007000F00F00FB24022444101828019C5B0
:1011B0008D67938737C83305F50261BF371706601F
:1011C00037160660B715066041111307476EE546EE
:1011D000130646519385C55906C67531B24005457B
:1011E0004101E1BF411122C426C2170400001304CB
:1011F0006450970400009384E44F818C4AC006C673
:101200008984014963159902170400001304844E70
:10121000970400009384044E818C89840149631DE6
:101220009900B240224492440249410182801C400C
:10123000050911048297F9B71C400509110482972A
:10124000F9BF00005761746368646F67207374614D
:1012500072746564202832732074696D656F7574CB
:10126000290D0A00433A5C55736572735C61726DB7
:101270007374726F6E6773756265726F5C446573C9
:101280006B746F705C50726F64756374735C303232
:101290005F526F766172695F53747564696F5C52F7
:1012A0006F766172695F53797374656D5F5374759E
:1012B00064696F5C746172676574735C42616F63CB
:1012C00068697031785C76656E646F722F62616FE9
:1012D00031785F6770696F2E63000000706F727401
:1012E000203C204750494F5F4E554D5F504F525460
:1012F0005300000070696E203C3D204750494F5F0D
:101300004D41585F50494E00433A5C5573657273C6
:101310005C61726D7374726F6E6773756265726F04
:101320005C4465736B746F705C50726F647563744A
:10133000735C30325F526F766172695F53747564AB
:10134000696F5C526F766172695F53797374656D12
:101350005F53747564696F5C746172676574735C04
:1013600042616F6368697031785C76656E646F7234
:101370002F62616F31785F756172742E63000000B7
:10138000696E7374616E6365203C20554152545FF1
:10139000494E5354414E43455F434F554E54000010
:1013A0006261756472617465203E203075000000D2
:1013B00028646174612920213D204E554C4C000069
:1013C000433A5C55736572735C61726D7374726FCE
:1013D0006E6773756265726F5C4465736B746F7072
:1013E0005C50726F64756374735C30325F526F76F9
:1013F0006172695F53747564696F5C526F76617274
:10140000695F53797374656D5F53747564696F5C5C
:10141000746172676574735C42616F63686970318F
:10142000785C76656E646F722F62616F5F7374644F
:10143000696F2E630000000028666D742920213D2D
:10144000204E554C4C000000433A5C557365727356
:101450005C61726D7374726F6E6773756265726FC3
:101460005C4465736B746F705C50726F6475637409
:10147000735C30325F526F766172695F537475646A
:10148000696F5C526F766172695F53797374656DD1
:101490005F53747564696F5C746172676574735CC3
:1014A00042616F6368697031785C726F76617269EE
:1014B0002F726F766172695F6770696F2E630000CB
:1014C000706F7274203C204E554D5F504F525453F4
:1014D00000000000554E4B4E4F574E003A20696EAB
:1014E000200000005B534556532D000041535345E7
:1014F00052540000494E56415249414E540000009A
:10150000434845434B000000554E52454143484136
:10151000424C4500433A5C55736572735C61726D71
:101520007374726F6E6773756265726F5C44657316
:101530006B746F705C50726F64756374735C30327F
:101540005F526F766172695F53747564696F5C5244
:101550006F766172695F53797374656D5F537475EB
:1015600064696F5C746172676574735C42616F6318
:1015700068697031785C76656E646F722F62616F36
:1015800031785F7764742E63000000006C6F6164D3
:101590005F76616C7565203E2030000074696D6572
:1015A0006F75745F6D73203E203000006770696F47
:1015B0005F64697361626C655F70756C6C73000069
:1015C0006770696F5F70756C6C5F7570000000000C
:1015D0006770696F5F746F67676C65006770696FCC
:1015E0005F7365745F646972000000006770696F03
:1015F0005F696E69740000006770696F5F7365747E
:101600005F66756E6374696F6E0000007561727459
:101610005F70757463000000756172745F77726942
:1016200074650000756172745F696E697400000012
:10163000010000000200000004000000080000009B
:10164000001010500020105000301050004010507A
:10165000004000E0005000E0000001E0001001E068
:10166000002001E0003001E0004001E0005001E016
:10167000006001E0007001E0006000E0007000E048
:10168000008000E0009000E000A000E000B000E07A
:1016900000C000E000D000E000E000E000F000E06A
:1016A0006D696E695F7072696E74660070696E5FF5
:1016B000746F67676C65000070696E5F6D6F64655D
:1016C00000000000EC140660F414066000150660CB
:1016D000081506607764745F73746172745F726179
:1016E000770000007764745F7374617274000000A7
:04000005600603008E
:00000001FF
