:100000006F00C01F00000000E8010000EA010000CE
:1000100000000000000000000000000000000000E0
:1000200000000000000000000000000000000000D0
:10003000FA01000000000000FA01000000000000CA
:10004000FA010000FA010000FA010000FA010000C4
:10005000FA010000FA010000FA010000FA010000B4
:10006000FA010000FA010000FA010000FA010000A4
:10007000FA010000FA010000FA010000FA01000094
:10008000FA010000FA010000FA010000FA01000084
:10009000FA010000FA010000BC06000001000000A7
:1000A000511126C022C206C4828201008244124439
:1000B000A2403101828000002A86014593F6150096
:1000C00091C2329585810606F5F98280634E05025C
:1000D00063C305042E86AA857D5515C285466378BF
:1000E000B6006356C00006068606E36CB6FE014500
:1000F00063E4C500918D558D85820582F5FA828075
:100100008682C93F2E8582823305A0406347B000B6
:10011000B305B040C1B7B305B0408682653F330533
:10012000A0408282868263C70500634905005D376F
:100130002E858282B305B040E35B05FE3305A04007
:10014000513F3305B040828201002A8311C623004B
:10015000B3007D16050365FE828015C22A8385469D
:100160006367B500FD561307F6FF3A93BA9583838C
:100170000500230073007D163693B6956DFA8280D4
:100180002A8309CA83830500230073007D160503B3
:1001900085056DFA8280EFF2BFF0F1659385052049
:1001A0000545EF00E0770545EF00303B8965938515
:1001B00085860545EF00D005D5BDEFF27FEE7111C4
:1001C0000545EF00F03D2AC00545EF00903E024690
:1001D0008965AA86938545870545EF0010071305B5
:1001E000401F0D2C1101D9B501A0B707EFBE37E7AD
:1001F00000E0938707083CC701A001A097010020F9
:1002000093814165170100201301C15F1305000AA6
:1002100097050020938505DF17060020130686DE6C
:1002200063FAC5008322050023A05500110591053E
:10023000E3EAC5FE17250000130585A397050020F6
:10024000938545DC17060020130646E263FAC500D5
:100250008322050023A0550011059105E3EAC5FEA0
:100260001385818197050020938505E86377B500A4
:10027000232005001105E36DB5FE89629382028893
:10028000739002308D4273904280970200009382F7
:1002900062D793E2320073905230EF004001970230
:1002A00000009382423E7390123473002030EFF2CC
:1002B0003FDF371402401C403707FFF8414593E702
:1002C00017001CC05C40F98F5CC01C403707F7FE6C
:1002D0007D17F98F1CC01C403707FCFF7D17F98F75
:1002E0001CC05C4041777D17F98F5CC0B7079F0049
:1002F0001CC4ED2A1C4C93E707021CCCB717014025
:100300009387074098431377F7F098C39843136790
:10031000070898C3094798CBB7F7FF1F03C5477D68
:100320009307F00F6304F5007D89C922B7270240C7
:100330009843C176FD16719B98C3984313671700C5
:1003400098C3B7170240D843D8C3D843758FD8C3D2
:10035000D843B7060001D8C39843558F98C3984334
:1003600093166700E3DD06FED843B7160240719B83
:10037000D8C3D84313672700D8C32147DC42B18BC9
:10038000E39EE7FE25B3B7160240DC422147B18B5E
:100390006390E704DC423775DC02130505C0D842E0
:1003A0008967938707B111833D8BBA9783C707008D
:1003B000D84293F5F70F13770708B357F50011EFFD
:1003C000EFF21FCE013B370700202328A704F9B91D
:1003D00037356E0113050560D9B73707002023288C
:1003E000F7048280EFF2DFCBB707002003A50705F3
:1003F000B7157A0093850520F1391375F50F238D14
:10040000A18093175500898F8A073E950E05239C7E
:10041000A18069B9EFF2DFC837F400E05C40AA853B
:10042000F99B5CC003D58181413908C823240400AD
:100430001C4093E717001CC05C40858BF5DF1C4017
:10044000F99B1CC0A5B1B7060020AA8703A54605E5
:10045000138701EBAA97636BF70037070020130798
:10046000470E63E5E70023AAF60482807D5582806B
:10047000944593F7060193F2F60081C7DC41B3E29D
:10048000F20083D3050093F7F30FA5C30323050000
:10049000611122C226C081471304800293048004A4
:1004A00005473316F70033F7C3006312E60293954E
:1004B00027003D473317B7001347F7FF337767002F
:1004C000B395B20033E3E500639D860050C985070C
:1004D0002147E397E7FC1244232065008244210171
:1004E0008280E39696FE10C9DDB7828037170240FE
:1004F0001C430E0593F777F05D8D08C38280B71615
:100500000240DC4241771307F77FF98FC98FDCC2C5
:100510008280EFF2FFB8371602405842A1462A8483
:10052000318B631AD7065C42B777DC02938707C02A
:100530001CC054420967130747B39182BD8A36979E
:100540000345070058429375F50F1377070833D515
:10055000A70019E33E85BD3E48C008C448C4B7178C
:100560000240DC438D46AD83FD8B13D737008A07ED
:10057000F18BD98F13F6370133F7D70063F4C60038
:10058000138747FF8967938707B2BA9783C5070028
:10059000913608C821BEB7376E019387076049BFFF
:1005A000B7170240984F81C5498F98CF8280134575
:1005B000F5FF798D88CF8280B7170240D84F81C56B
:1005C000498FD8CF82801345F5FF798DC8CF8280BF
:1005D00023AEA1808280370700C0835705002A9789
:1005E00019C737D7FEBF130707402A9711E703D76C
:1005F000250093F7F7F8D98F03D7650093F7F7CF66
:10060000D98F2310F50083D745002316F50283D731
:1006100005002314F502B7370140938707C063161E
:10062000F50083C785002318F5028547231AF500D6
:1006300082808357050091C593E717002310F500CA
:10064000828041677917F98FD5BF8357C50009C6E6
:10065000CD8F2316F500828093C5F5FFED8FD5BFB2
:10066000835705010355C500ED8F6D8DB337F0003D
:100670003335A0007D8D828093C5F5FF2318B5002A
:100680008280EFF2FFA10545A137F539A13BB707FD
:10069000002083A7070589EF096689651387018113
:1006A0009306500213068688938505900545FD2024
:1006B000B128EF00007BC5340936FDBF130181FD71
:1006C0002ACA2EC837050040854506D216D01ACE54
:1006D0001ECC32C636C43AC23EC0593711C9854510
:1006E00037050040513F83A70182850723A0F1828F
:1006F000925082527243E2435245C2453246A2466C
:10070000124782471301810273002030EFF25F9994
:10071000854551112E854D35B707002003A40705E7
:10072000B7470F009387F72363EF870009670966D0
:100730008965130747B49306600313068691938572
:1007400005990545A128B7450F0093850524228505
:10075000231101002313010023140100A53A7D1584
:100760009307703E2310A1008A85370500402312AD
:10077000F1009535054637050040B2852318050080
:10078000E935B7E700E01307000423A2E710854529
:1007900037050040793D31016FF05F91EFF25F90D6
:1007A0002E847111B2859307800873B00730B707A4
:1007B000002037564553938707701306366590C35C
:1007C000C8C394C791CD370500207D461305C57079
:1007D0003AC0EF00C066B7070020A3850772024742
:1007E00001CF370500207D46BA851305C572812DDE
:1007F000B7070020A385077401CC370500207D468C
:10080000A2851305C574252DB7070020A38507769B
:100810000100FDBFEFF2DF8803570501F577FD17F3
:100820007D8F83D7650021112A84D98F2318F50085
:100830000357C500FD779387379F7D8F83D745008A
:100840002EC0D98F03D78500D98F03D7A500D98FA4
:100850002316F5000357450183D7C5001377F7CF5B
:10086000D98F231AF50048006D31B74701409387AF
:10087000078082456312F406C2470357C4001395EC
:1008800017003E9542070E0541878C413E95635700
:1008900007048605EFF01F84930540062AC0EFF099
:1008A0007F8393144500024593054006EFF05F8572
:1008B0008357C400C207C18763D407020E0593059E
:1008C000400613052503EFF0FF801D89C98C231412
:1008D000940061016FF08FFDB24745B78A055DBF97
:1008E00012059305400613052503EFF0AFFE3D8981
:1008F000F1BF8357C50091C50967D98F2316F5004D
:10090000828079777D17F98FD5BF93F5F51F231274
:10091000B5008280035505006D8D3335A0008280BF
:10092000EFF20FF8116511112E84130505028545AC
:100930008539930700023EC0371501408D473EC2FE
:100940008A85E147130505403EC41D369307000420
:10095000371501402310F1008A85914713050540A2
:100960003EC43936B14737450140B305F10002CAEC
:1009700013050580231BF10022C602C802CC593D95
:1009800037450140854513050580A537B707002089
:1009900093878708239007042391070471016FF060
:1009A000EFF0EFF2EFEF37A40700AE841304041268
:1009B000374501409305000813050580A13F09C98B
:1009C00037450140A6851305058081376FF00FEE8E
:1009D0007D1479FCE5BFEFF2AFECAA842E8491ED93
:1009E000096709668965130747B79306C0071306A9
:1009F000869A938505A2014555338305040099E144
:100A00006FF0CFEA93F5F50F26850504593FF5B74A
:100A1000EFF20FE92A84AE8491ED096709668965D2
:100A2000130747B6930680081306869A938505A296
:100A30000145AD33A6852285793F2285B545953799
:100A4000A9452285B93F6FF06FE65971A2CCA6CABD
:100A500086CEB2D0B6D2BAD4BED6AA842E8491EDB8
:100A6000096709668965130787B593064009130668
:100A7000869A938505A30145153394102286930524
:100A80000005480036C06D264C002685A937F64083
:100A90006644D644656182805841B707F1FF938769
:100AA000F7EF7D8FDC419441A207D58FD98F5CC1D0
:100AB0001845B7F7F1FF9387D77FD4457D8F9C49C1
:100AC000D58F94458606D58FD98F1CC55855B70745
:100AD00010FFFD177D8F83C74501FD1793F7F70FB3
:100AE000D207D98F5CD582801C4589C593E7170052
:100AF0001CC58280F99BEDBF1C4593E787001CC590
:100B0000828008450D81058982801C4593E7470056
:100B10001CC5828008450981058982801C4591C5D4
:100B200037075000D98F1CC582803707B0FF7D176B
:100B3000F98FD5BFA54763F7B704138765FF9317F0
:100B40001700BA970323C5001D473317F700134753
:100B5000F7FF33776700B397F600D98F5CC59947E5
:100B600063E3C7047D16931726003E965859FD4748
:100B7000B397C70093C7F7FFF98F3396C5005D8E13
:100B800050D9828013971500032305012E979D47A6
:100B9000B397E70093C7F7FFB3F76700B396E60094
:100BA000DD8E14C96DBFB14763E2C70265169317A6
:100BB00026003E961859FD47B397C70093C7F7FF25
:100BC000F98F3396C5005D8E10D982804D161317AC
:100BD000260054553297FD47B397E70093C7F7FFB8
:100BE000F58FB395E500DD8D4CD5828068454205D3
:100BF000418182801C4133F5F5003335A0008280AD
:100C00005C41370700FA7D17F98F5CC15C41CD8FDD
:100C10005CC182800967130747B98147BA862146BC
:100C2000834507006396A50092073385F60082800E
:100C300085074107E396C7FE01458280EFF24FC664
:100C4000A5472A8463FFA70009670966896513071A
:100C500007B893065007130606A4938585AB054590
:100C6000353E9387C187A29783C707009D4691C7EA
:100C700093878188A29783C6070037250140A28504
:100C80000546130505407D3537250140854513058B
:100C90000540616461351304046A372501408945C4
:100CA00013050540813F01C9372501401305054063
:100CB000353F6FF0AFBF7D146DF0E5BFEFF24FBE73
:100CC0002111854513050020EFF09F8D3165EFF070
:100CD0001F83614681450A85EFF02FC73725014004
:100CE000B7070E0005448A85130505403EC6230A52
:100CF00081005D3337250140B7050002130505402B
:100D0000013737250140A28513050540F13B372502
:100D10000140130505406164C5331304046A372597
:100D2000014013050540F13B19C17D146DF83725CD
:100D30000140130505406164C93B1304046A37256B
:100D4000014013050540F93319C17D146DF80547BD
:100D50002382E18261016FF06FB5EFF26FB4511140
:100D6000553D05CD83C741822A8491E3813F4840A8
:100D70008545EFF0FF828357C40008448A8523111C
:100D80000100231201002313010023140100231585
:100D900001002310F100EFF0AFED31016FF00FB162
:100DA000EFF20FB0853D01C503451500413D6FF0E1
:100DB000EFAFEFF2EFAEED378565938545CEEFF0FF
:100DC000AFAF9305F03FEFF0EFB0420541816FF018
:100DD000EFAD1301C1F8A6D486D8A2D6AA84635C6D
:100DE00006009307B0081CC17D55C6503654A65462
:100DF0001301410782803284B3378000B307F44087
:100E00003EC43ECAC1779387872036862EC02EC83F
:100E1000BA868A853EC682D2712AFD576355F5008F
:100E20009307B0089CC071D082472380070075BF2C
:100E30003687B2862E86AA8503A5818059BFAA87E8
:100E400009CA03C7050085058507A38FE7FE7D1640
:100E500065FB3E966393C70082808507A38F07FEDC
:100E6000D5BF511122C217170000130767E01714EE
:100E700000001304E4DF198C26C006C409848144F1
:100E80006394840217170000130787DE171400000D
:100E9000130404DE198C0984814463928402A24005
:100EA000124482443101828093972400BA979C4374
:100EB0008504829717170000130787DBD1B7939734
:100EC0002400BA979C4385048297171700001307E4
:100ED00027DAE1B7111122CA3684944526C806CC18
:100EE0002AC232C4AE846365D40C0395C50036872C
:100EF0001376054835C698408C49B307B740D848A3
:100F00003EC093161700BA9613D7F601369793068C
:100F100014000587BE963A866374D70036873686F6
:100F2000137505403AC62DC11245B285BD2F35C592
:100F300002468C482AC2EFF0AFA403D6C400924602
:100F400032471376F6B7136606082396C400824725
:100F500094C8D8C8BE961D8F94C098C4A286228714
:100F60003A84A2458840228636C0EFF00F9F98440D
:100F700082460145158F98C49840229798C0E24058
:100F80005244C244710182801245EF00B0033247DF
:100F9000AA8655FD8C4812452525924731477D5537
:100FA00098C303D7C400136707042396E400C1BFA6
:100FB000A28645BF03D7C500130181F7A6DE9307BC
:100FC000F10106C322C12AC22EC01377070893F489
:100FD00087FF05CF984915EB9305000436C832C644
:100FE000E92582473246C24688C388CB19E91247B1
:100FF000B1471CC37D559A400A44F6541301810839
:101000008280824713070004D8CB13070002A38C09
:10101000E4001307000323AA0400238DE40036CA6A
:10102000328483460400B332D0009386B6FDB336D3
:10103000D000B3F2D2006392020AB306C440630F39
:10104000C4008245124516C836C669357D5663010F
:10105000C51CD048B246C2423696D0C8834604006A
:101060006388061A7D57050423A0040023A6040004
:10107000D8C023A40400A381040423AC0404834542
:101080000400154617150000130505A516C6212BEB
:101090009840B2421306140039E19376070189C6DD
:1010A00093060002A381D4049376870089C6930631
:1010B000B002A381D404834504009306A002638C8C
:1010C000D502D4440147A54503460400130606FD96
:1010D00063FEC50C15CBD4C405A8050499B79716B3
:1010E00000009386669F158D8546B396A600558FA2
:1010F00098C0328469B7D2469385460094422ECA7E
:1011000063CF0608D4C43284834604001307E00288
:101110006392E602834614001307A0026391E60A75
:101120005247090493064700184336CA6353070021
:101130007D57D8C0834504000D46171500001305E0
:10114000259A952111CD1717000013076799198D5E
:10115000984093060004B396A600558F050498C0E6
:10116000834504001946171500001305A597238C25
:10117000B40015295DC51307000035EB98405246B1
:10118000137707109306860019C39306460036CAE4
:10119000D848A247130614003E97D8C851B5B306E5
:1011A000D04013672700D4C498C0B1BF139726005E
:1011B00036970607B306C7000504054731B705048F
:1011C00023A204008146A54503460400130606FD3C
:1011D00063F6C500E38002F6D4C0A9BF13972600CA
:1011E000369706070504B306C7008542F1BF0246DD
:1011F0001245580897060000938606CEA6859700EC
:101200000000E70000002AC4A2477D57E392E7F8F8
:10121000824703D7C70013770704E31D07DCC848DC
:10122000D9BB024612455808970600009386C6CAE5
:10123000A6850122C9BF01113AC49C49984522CC18
:1012400026CA06CE2AC036C2AE84328463D3E700F3
:10125000BA871CC003C7340419C385071CC09C404F
:1012600093F7070281C71C4089071CC09C40998BDB
:10127000B9CB9C4083C6340493F70702B336D00041
:10128000B5EBA24792450245138634048297FD5779
:10129000630CF504984091468147198B6319D70078
:1012A0001840DC44998F13C7F7FF7D87F98F984466
:1012B000944863D4E600158FBA970147639BE7040F
:1012C000014525A08507D8441440158FE3D3E7FADC
:1012D0003EC69245A24702458546138694018297F1
:1012E0007D57B247E310E5FE7D55F2406244D2449B
:1012F000056182803387D40013060003A301C7046D
:1013000003C7540493871600A6978906A381E704B0
:101310008DBF3EC692450245A24785461386A4016D
:101320003AC88297FD56E301D5FC4247B24705070C
:1013300071B7130141FD26D006D422D283C785019F
:1013400036C42AC032C293068007AE8463E2F60236
:101350001306200693863504636FF6006389071C25
:101360009305800517060000130646786388B714B6
:101370001384240405A81386D7F91376F60FD545F0
:10138000E3E8C5FE97150000938505890A062E96A9
:1013900010422E9602861C43138424049386470031
:1013A0009C4314C32381F40485475DA29C400843F9
:1013B00013F60708930545000DC21C410CC363D802
:1013C00007001307D002B307F040A381E404170617
:1013D00000001306A671A94599A013F607041C4145
:1013E0000CC371DEC207C187D9BF8C40104313F50F
:1013F00005081C42110611E593F5050499C1C207C1
:10140000C18310C303C684011307F0066317E60EF9
:10141000170600001306866DA145A3810404D84079
:1014200098C46348070088405D8F36846D9988C0F2
:101430001DCB36843E8536CC3EC632CA2EC8EFE080
:101440003FCC5246C2457D143295034705003245D4
:101450002300E400EFE01FC83247C2455246E2468F
:10146000AA87E379B7FCA147639EF5009C40858B72
:1014700091CBD8409C4863C7E70093070003A30FB4
:10148000F4FE7D14818E94C822479246024570086E
:10149000A6855533FD576311F50C7D55A2501254A6
:1014A00082541301C10282809C4093E707029CC0D2
:1014B000930780071706000013068664A382F404CE
:1014C0008C40084313F305081C4111056318030001
:1014D00013F3050463040300C207C18308C313F7B1
:1014E000150001C793E505028CC099C3C14535B706
:1014F00098401377F7FD98C0D5BF17060000130674
:10150000E65EA94519BF90401C43CC4813730608FA
:10151000138547006306030008C39C438CC301A8DE
:1015200008C3137606049C4375DA2390B70023A8FA
:101530000400368491BF1C43D04081459386470008
:1015400014C380432285852019C1018DC8C0DC40A9
:101550009CC8A38104040DBFA2479448924502454C
:1015600022868297FD57E30AF5F29C40898B95EB22
:10157000F247C844E354F5F23E850DB73EC69245A6
:101580000245A24785461386940182977D57E3065C
:10159000E5F0B2478507D844F246158FE3C0E7FE71
:1015A000C1BF8147CDBF93F5F50F2A966314C500DF
:1015B0000145828083470500E38DB7FE0505FDB731
:1015C000D1CD83A7C5FF511122C206C41384C5FF24
:1015D00063D307003E942AC0C5221387C1821C43EF
:1015E000024581EB2322040000C31244A2403101D2
:1015F000F9A2637DF4001040B306C4006396D700DF
:101600009443DC43B29614C05CC0F9BF3E87DC4310
:1016100099C3E37DF4FE14433306D700631F8600AD
:101620001040B29614C33306D700E390C7FC904332
:10163000DC43B29614C35CC34DBF6375C400B147AD
:101640001CC165B71040B306C4006396D70094432D
:10165000DC43B29614C05CC040C341BF82804111DC
:1016600026C2938481829C4022C406C62AC02E844E
:1016700081E78145552A88C00245A285FD546D2227
:10168000631995007D54B240228522449244410161
:101690008280130435007198E30785FEB305A440EA
:1016A00002455922E31195FEF1BF938735003111B0
:1016B000F19B26C406C822C693848700314763F392
:1016C000E400BA8463C4040063FAB400B1471CC1E7
:1016D0000145C2403244A244510182802AC0E92817
:1016E0001383C182032703003A8421E80245A685BB
:1016F000BD377D572A84631FE50A03A4C182228770
:1017000051EB5DC018400245814522973AC2292A13
:101710001247631BA7080C4002458D8CA6858137B4
:10172000FD576303F5081C40A6971CC083A7C18220
:10173000D84325E723A6018215A01040058E6348F3
:101740000604AD4663FDC60204C0B30694006316EA
:1017500087022320D3005C4090C2DCC20245852072
:101760001305B4009307440061993307F540E30281
:10177000F5F63A94898F1CC0A9BF54C3E9BF5C40F9
:10178000631587002320F300D1BF5CC3C1BF22874C
:101790004040A1BF3A845843A5B73E87DC43E39E4F
:1017A00087FE232207005DBF0247B1471CC33A856D
:1017B000392039BF04C15DB71385018351A8138552
:1017C000018341A899E1B285CDB5311126C406C87F
:1017D00022C62AC0B28409EAE5330144C240228508
:1017E0003244A244510182802E84AD20AA876366D0
:1017F000950013571500E36397FE0245A6853EC288
:101800006D3592472A8719E13A84C9BF268663F36A
:1018100097003E863A85A2853AC2EFE07F96024560
:10182000A285793B1247CDB7611122C02A842E854B
:1018300023AA018206C2EFE01FC1FD576316F5001F
:1018400083A7418391C31CC092400244210182803E
:101850008280828083A7C5FF1385C7FF63D50700F9
:10186000AA959C413E958280414443205265616423
:10187000696E67007261773A20256420206D763AA0
:101880002025640D0A000000433A5C5573657273AD
:101890005C61726D7374726F6E6773756265726F7F
:1018A0005C4465736B746F705C50726F64756374C5
:1018B000735C30325F526F766172695F5374756426
:1018C000696F5C526F766172695F53797374656D8D
:1018D0005F53747564696F5C746172676574735C7F
:1018E00043483332563030335C726F766172692F01
:1018F000726F766172695F6D61696E2E63000000C0
:1019000053797374656D436F7265436C6F636B20BD
:101910003E20305500000000433A5C5573657273F9
:101920005C61726D7374726F6E6773756265726FEE
:101930005C4465736B746F705C50726F6475637434
:10194000735C30325F526F766172695F5374756495
:10195000696F5C526F766172695F53797374656DFC
:101960005F53747564696F5C746172676574735CEE
:1019700043483332563030335C726F766172692F70
:10198000726F766172695F7469636B2E6300000029
:1019900074696D65725F636C6B203E3D2031303041
:1019A0003030303055000000433A5C557365727337
:1019B0005C61726D7374726F6E6773756265726F5E
:1019C0005C4465736B746F705C50726F64756374A4
:1019D000735C30325F526F766172695F5374756405
:1019E000696F5C526F766172695F53797374656D6C
:1019F0005F53747564696F5C746172676574735C5E
:101A000043483332563030335C726F766172692FDF
:101A1000726F766172695F756172742E6300000087
:101A2000287374722920213D204E554C4C00000033
:101A300028666D742920213D204E554C4C00000035
:101A4000433A5C55736572735C61726D7374726F47
:101A50006E6773756265726F5C4465736B746F70EB
:101A60005C50726F64756374735C30325F526F7672
:101A70006172695F53747564696F5C526F766172ED
:101A8000695F53797374656D5F53747564696F5CD6
:101A9000746172676574735C434833325630303317
:101AA0005C726F766172692F726F766172695F61C5
:101AB00064632E63000000006368616E6E656C20D5
:101AC0003C3D204144435F4D41585F4348414E4EA9
:101AD000454C0000232D302B20000000686C4C008A
:101AE0006566674546470000303132333435363756
:101AF000383941424344454600000000303132331A
:101B00003435363738396162636465660000000039
:101B1000010203040506070801020304050607087D
:101B20000204060804080C10081018201020304089
:101B30002040608001020304050607080102030437
:101B400005060708726F766172695F7469636B5F7F
:101B5000696E697400000000756172745F7072696B
:101B60006E746600756172745F7072696E746C6E0B
:101B700000000000756172745F7072696E7400001D
:101B8000726561645F73696E676C655F6368616EDF
:101B90006E656C00020000000400000000080140B7
:101BA00004000000010100000400000000080140E2
:101BB000020000002402000010000000001001409C
:101BC000100000003203000020000000001401405B
:101BD0000400000033040000200000000014014055
:101BE000080000003505000020000000001401403E
:101BF0002000000036060000200000000014014014
:101C000040000000340700002000000000140140E4
:101C10001000000082F7FFFF98F7FFFF5CF7FFFF5F
:101C20005CF7FFFF5CF7FFFF5CF7FFFF98F7FFFF34
:101C30005CF7FFFF5CF7FFFF5CF7FFFF5CF7FFFF60
:101C4000F2F8FFFFD6F7FFFF94F8FFFF5CF7FFFF06
:101C50005CF7FFFF22F9FFFF5CF7FFFFD6F7FFFFFE
:0C1C60005CF7FFFF5CF7FFFF9CF8FFFF44
:101C6C00000000000000000068000000D000000030
:101C7C000000000000000000000000000000000058
:101C8C000000000000000000000000000000000048
:101C9C000000000000000000000000000000000038
:101CAC000000000000000000000000000000000028
:101CBC00006CDC02E40000200000002000000000AA
:081CCC006D61696E000000006B
:00000001FF
