:02000004600694
:100300009701FA009381015017011A01130181CF5F
:100310000171970200009382E2057390523093823C
:1003200081801703FA00130363016386620023A030
:1003300002009102DDBF973200009382E24717036B
:10034000FA00130323CC9703FA00938323CC6309A9
:10035000730003AE02002320C30191021103C5BF45
:10036000EF00D05573005010F5BF130000000100DE
:100370007310013417011A011301C1C8130181F769
:1003800006C00EC412C616C81ACA1ECC22CE26D06B
:100390002AD22ED432D636D83ADA3EDC42DEC6C075
:1003A000CAC2CEC4D2C6D6C8DACADECCE2CEE6D045
:1003B000EAD2EED4F2D6F6D8FADAFEDCF322103422
:1003C00096DEF322003016C1F322003416C21171FA
:1003D000EF00900017011A011301C1C2130181F748
:1003E000F652739012348A42739002308240A241D6
:1003F0003242C2425243E243724482541255A255E1
:100400003256C2565257E257725886481649A64984
:10041000364AC64A564BE64B764C865C165DA65D60
:10042000365EC65E565FE65F124173002030010003
:1004300013000000130000001300000037350660B1
:1004400071711305C51506D722D526D34AD14ECFD3
:1004500052CDEF0010160145EF20F0009377150004
:1004600099CFAA8537350660130545172A54BA5027
:100470009A540A59FA496A4A4D616F009013373508
:10048000066013050519EF00D012B7350660370472
:1004900000619385C526054613054407EF10706675
:1004A000AA8511C5373506601305051AC1B78345FE
:1004B0004407373506601305451BEF00900F3735AD
:1004C00006601305051DEF00D00EB735066037092D
:1004D00000619385451E13050902EF20E04325E5E1
:1004E000B70700613704006193891701B7370660C9
:1004F000814413048400138A871FB7070061A28513
:1005000013850702EF20004A05E5830794008DC399
:1005100083478400C18B638C070C37350660CE851A
:100520001305851EEF00F0088504D147E397F4FC1E
:1005300013050902EF20404599E43735066013059D
:10054000C520EF0010073735066013050517EF00CB
:100550005006B73406602946938584211385C184EB
:10056000EF10F05E1DE5B735066014081306500362
:10057000938545221385C184EF204012C24537354B
:1005800006601305C525EF00D0021385C184EF2056
:1005900040360546938584211385C184EF10305B76
:1005A00015E974001306F0070C081385C184EF10D9
:1005B0003078B2453735066013050527938705095E
:1005C0008A97238007F81008EF00A07E1385C18466
:1005D000EF2020322A54BA509A540A59FA496A4AEA
:1005E00037350660130585284D616F00807C10400B
:1005F000CE855285EF00E07B05BF03C501B24111F6
:1006000006C6EF005027B2401305401F4101CDA59B
:10061000454581452380A1B26F00F01C411122C4E1
:1006200026C24AC006C69547AA842E84328963F33F
:10063000A7023737066037360660B73506601307FE
:10064000C764930680041306462A9385C531014585
:10065000EF00302BBD4763F387023737066037362C
:100660000660B73506601307C76493069004130647
:10067000462A938545330145EF00B028B7C70414D7
:1006800013553400938707C03E95860426950A05C6
:100690001D881C4106040D47331787001347F7FFD9
:1006A0007D8F93773900B240B39787002244D98F6A
:1006B0001CC19244024941018280411122C426C2D8
:1006C0004AC006C695472A84AE84328963F3A702DE
:1006D0003737066037360660B7350660130707639D
:1006E000930660061306462A9385C5310145EF003F
:1006F0005021BD4763F397023737066037360660EF
:10070000B735066013070763930670061306462A7B
:10071000938545330145EF00D01EB7C70414938776
:1007200027C53305F4000A051C418545B39595009E
:10073000630A0900DD8DB24022440CC19244024993
:100740004101828093C5F5FFFD8DF5B7411122C4AB
:1007500026C206C695472A84AE8463F3A7023737BC
:10076000066037360660B7350660130747629306A2
:1007700040091306462A9385C5310145EF007018DC
:10078000BD4763F397023737066037360660B735E3
:10079000066013074762930650091306462A93859D
:1007A00045330145EF00F015B7C704149387C7C45C
:1007B0003E940A041C408545B3959500BD8DB2401A
:1007C0000CC02244924441018280411122C426C2BD
:1007D00006C695472A84AE8463F3A70237370660BE
:1007E00037360660B7350660130747619306000A7F
:1007F0001306462A9385C5310145EF009010BD4789
:1008000063F397023737066037360660B735066000
:10081000130747619306100A1306462A938545334A
:100820000145EF00100EB7C70414938787C53E94A7
:100830000A041C408545B3959500DD8DB2400CC07F
:100840002244924441018280411122C426C206C63C
:1008500095472A84AE8463F3A7023737066037369C
:100860000660B7350660130707609306C00A1306D3
:10087000462A9385C5310145EF00B008BD4763F3B3
:1008800097023737066037360660B73506601307BC
:1008900007609306D00A1306462A9385453301451F
:1008A000EF003006B7C70414938787C53E940A0447
:1008B0001C408545B395950093C5F5FFFD8DB2406D
:1008C0000CC02244924441018280411122C426C2BC
:1008D00006C695472A84AE8463F3A70237370660BD
:1008E00037360660B7350660130707649306800540
:1008F0001306462A9385C5310145EF009000BD4798
:1009000063F397023737066037360660B7350660FF
:1009100013070764930690051306462A938545330B
:100920000145EF00007EA68522850146C539A685D2
:1009300022850146593322852244B240A68592443D
:10094000410119B7411122C406C626C24AC08D47CB
:100950002E8463F2A70E3737066037360660B73548
:100960000660130787679306B007130686349385DE
:10097000053C0145EF00E07861C00145B2402244EA
:10098000924402494101828083A741B295E3B7377F
:100990001050D853B7576E0A9387079C418319C7E5
:1009A000B7470F0093870724B307F70223A2F1B2DA
:1009B000B73706601319250093874768B7061050AC
:1009C000CA9798429C43D98F9CC289476315F50208
:1009D00005463285B54599310146B5450545F1399C
:1009E000B5450545DD3305463285B945053905462A
:1009F000B9453285D93103A741B293571400BA974C
:100A0000054763E4870033D78702B73706609387CB
:100A10004769CA97944323A206020F00F00F931769
:100A2000070193E76731DCD20F00F00F03A541B255
:100A30003355E502A1B7A9F93737066037360660A6
:100A4000B7350660130787679306C0071306863419
:100A50009385053E014575250DB7411122C406C693
:100A60008D472E8463FFA70E373706603736066042
:100A7000B73506601307C7669306F00B1306863476
:100A80009385053C0145B52D69E82244B2403737CE
:100A9000066037360660B73506601307C7669306EB
:100AA000000C130686349385053F0145410191AD45
:100AB00037470F00130707249441C18A99C27D1755
:100AC00065FF37470F00130707249443858A99C2AF
:100AD0007D1765FF9841418B49E39843058B35EFBE
:100AE000B2866374CF0093060010B30FE40083C294
:100AF0000F00B30FA700050723805F00E397E6FE12
:100B000023A0AE002320DE0023A065000F00F00F1D
:100B100037470F001307072483AF050093FF0F012A
:100B200063840F007D176DFB37470F001307072401
:100B300083AF070093FF1F0063840F007D176DFBD9
:100B40009841418B19EB9843058B01EB3694158E38
:100B5000850801C63387080121FFB24022444101C4
:100B6000828085D5B73706600A0593874769AA97BB
:100B70009C4321783705005093858701938E0701A8
:100B8000138E470181489387070213080896130FB5
:100B900000101305050041436DBF011106CEA307E8
:100BA000B1008D4763E9A70005469305F10075354F
:100BB000F240056182803737066037360660B73508
:100BC0000660130707669306501113068634938553
:100BD000053C01453D23E9BF797106D622D426D2D2
:100BE0004AD04ECE52CC56CA73272034B707008065
:100BF000AD076316F706F32900FC939719001384D9
:100C000041AA63D907003C5C91C737C701E005459D
:100C100008CF8297B73406609384446A0149854AB5
:100C2000514AB3972A01B3F7370199C79C40884BC3
:100C300088CB1C4091C38297050991041104E312EB
:100C400049FF85679387078073A04730B2502254CD
:100C500092540259F249624AD24A45618280B7F7FA
:100C6000125098474D9B98C7B7F712509387C714F7
:100C700098431367270098C3B7F712509387471319
:100C800098431367270098C302C6B247F5DF7DBFBC
:100C900083A781B289EFB7570500B7B601E0938704
:100CA00007739CD20F00F00F854723A4F1B2828016
:100CB00083A781B295E3411106C6D93FB7B701E0DA
:100CC00037B701E0910721078C4308439443E39D24
:100CD000D5FEB24041018280B7B701E037B701E0ED
:100CE000910721078C4308439443E39DD5FE8280FE
:100CF00083A781B2411122C406C626C24AC02A84F3
:100D000091E379377537AA842E895D37B30795400B
:100D10003335F500B38525416394A500E3E787FEED
:100D2000B24022449244024941018280011126CA04
:100D300006CE22CC4AC8440031E1930700032302C7
:100D4000F10085473E8793060003634EC7040144C4
:100D50006344F6003304F6403E947D147D59B38716
:100D600084008385070009457D14053DE31924FFB0
:100D7000F2406244D244424905618280268781471D
:100D8000A548B376B5021388760563E4D8001388C6
:100D9000060323000701B356B50285070507E36381
:100DA000B5FA3685F9BFB385E4002380D500050781
:100DB00069BF5971A2C486C6A6C2CAC04EDE52DC43
:100DC00056DA5AD85ED6AECAB2CCB6CEBAD0BED2F9
:100DD000C2D4C6D62A8405E13737066037360660A6
:100DE000B73506601307476F9306A0021306064047
:100DF000938585473926DC083ECE93095002130AB5
:100E0000000313093007930A5007130B3006930BA6
:100E100040068305040081EDB64026449644064909
:100E2000F259625AD25A425BB25B65618280639525
:100E3000350D830514006387450305040146638B64
:100E400025096342B9046383650B638A75059307BB
:100E500050026383F50A9305500209453D3B830523
:100E6000040059A8090401462547294583050400C3
:100E7000938705FD93F6F70FE363D7FC3306A602CD
:100E800005043E96E5B76380550593078007E39414
:100E9000F5FCF247C145138747003ACE15A8F24743
:100EA0008443138747003ACE63DA04009305D002E7
:100EB000094532C6DD313246B3049040A945268546
:100EC000B5350504B9B7F247A945138747003ACEAF
:100ED0008843FDB7F2478443138747003ACE8385A2
:100EE0000400E5D1094585044D39D5BFF247838516
:100EF0000700138747003ACE09454531D9B78147E6
:100F00006313F60082803387F500834607003307BA
:100F1000F50085072300D700E5B72A96AA876393D3
:100F2000C70082808507A38FB7FED5BF411122C4B9
:100F300026C24AC006C62A84AE84328905E1373704
:100F4000066037360660B73506601307877A930662
:100F5000A002130686489385055065228DE0373739
:100F6000066037360660B73506601307877A930642
:100F7000B002130686489385C55001455922814722
:100F80006314F900014529A83307F40085070345D8
:100F900007003387F4000347F7FFE303E5FE198DED
:100FA000B240224492440249410182801397850154
:100FB00061878307050099E793B51500B305B04035
:100FC0006D8D8280E30FF7FE0505E5B7F16593852A
:100FD000052009456FF01F97411106C6C53FB24075
:100FE0000145410131B3411122C426C24AC006C69F
:100FF000135445009547AE841379F50063F28702D8
:101000003737066037360660B73506601307C77096
:101010009306800213068651938505590545D52010
:10102000CA852285EFF07F8A89476388F40263E5E9
:10103000970091C4014629A0F114E3ED97FE0546FF
:10104000CA852285EFF06FE722852244B2409244A0
:10105000CA85024941016FF02FFFCA8522850146EA
:10106000EFF0AFE522852244B2409244CA8502499E
:1010700041016FF08FF5411122C426C206C61354F8
:10108000450095479374F50063F287023737066091
:1010900037360660B735066013070770930670068B
:1010A00013068651938505590545A12822852244BA
:1010B000B240A685924441016FF04FE9411106C646
:1010C000213FEF20A003EFF06FB7EFF00FD3F5BF94
:1010D00011CAFD1581473307F6000307070011E722
:1010E000BE852E9523000500828093861700AA975F
:1010F0002380E700E387B6FEB687F1BF8280828057
:1011000001A0697123261112232481122322911236
:101110003684AA8423202113232E31112E89BA89E3
:10112000232C4111232A5111B28AC93FB757455385
:10113000370A2061938737652320FAF04A869305A2
:1011400000041305CAF023229AF023248AF04937B9
:101150005686930500041305CAF49D3F4E869305F9
:1011600000031305CAF8AD378D47232E0AFA63EE44
:101170009708B73706601397240093878771BA974B
:101180009443B737066001479387475B0808930588
:10119000F00F3306F700030606002DEEBA8793051D
:1011A000F00F3386E74036960306060019C2639BAC
:1011B000B7061387270063EEE500938707118A9728
:1011C0009306D0052380D7F093060002A380D7F0C2
:1011D000BA87BE861306F00F63910A0613871600BE
:1011E000930700106304F70693870611B386270060
:1011F0009307A0032380F6F0B306E500635B0404C5
:101200003304804005468147A1A8B736066093861F
:10121000465A85BFE304B7F83308E5002300C80049
:10122000050785BF3308F5002300C800850795BF73
:10123000B305D5002380E50085063387F640569731
:101240000307070041DFE395C6FE49BF1307F00F10
:1012500065B725EC930700032302F100014685479B
:10126000B14813034100294821A8B3650403330E94
:10127000F300850733440403938505032300BE0070
:1012800019C0E39417FF814509CA13060711930596
:10129000D0020A962300B6F08545AE963E86130826
:1012A000410015E6BA97AE97638209069385570009
:1012B000BE86B73706609387C75A1306F00F368786
:1012C0008506637FD600BA862DA001462DBF7D1608
:1012D000B308C80083C808008506A38F16FFD1B7DE
:1012E000038807003307D5008507A30F07FFE3989E
:1012F000B6FCB6879305F00F3387D7404E970306A9
:10130000070009C61387170063FAE506138747002D
:101310009306F00F63E6E60213870711B306270072
:101320001307A0032380E6F013060002138727119A
:10133000A380C6F00A97930680028D072300D7F09A
:101340003E879305F00F6316090493073700930651
:10135000F00F63EBF6049307071133872700930719
:1013600090022300F7F0A947A300F7F0230107F04C
:1013700079338947638DF402613301A0B307E50037
:10138000A38FC7FEBA878DBF3307D500A30FC7FE53
:101390003687B306F740CA96038606005DD69306E5
:1013A0001700E3F3D5FE55B7A3070110D1B783208B
:1013B000C1120324811283244112032901128329BB
:1013C000C111032A8111832A41115561828003478B
:1013D00015008347050022075D8F834725000345DD
:1013E0003500C207D98F62055D8D82805C49F91591
:1013F000F91763FAF5008357A5005855B387B7026C
:101400003385E7008280014582801C41FD569DCBDB
:101410003E87930500021306A00383060700050715
:1014200013F8F60F63FF0501E399C6FE83850700F5
:1014300013060003FD566397C50089076314F70080
:1014400018C181463685828001ED814725459CC1C2
:10145000828025458147F24062449CC105618280BB
:101460001C41011122CC06CE2A84E5D703C7070010
:101470006DD38356450003D76700E39CE6FC03C5A4
:1014800017002EC6EF10807D0589B24579F11C400A
:10149000D9B783474500B1CB011122CC06CE9305C5
:1014A0000503504D2A840345150085462EC6EF10CE
:1014B0007027854615E5504C5C50184C23020400FB
:1014C000B307F64063FDE700034534008947B245A2
:1014D0006317F500034514003A96EF10B0248146D7
:1014E000F24062443685056182808146368582807D
:1014F00093578600A38DF500238DC5000347050093
:101500008D476319F700935706016182238AF5001E
:10151000A38AC50082805C4D638BB702411122C44F
:1015200026C206C62A84AE84AD3709ED03451400F1
:101530008546268693050403EF10100B19C1054557
:10154000FD5444CCB2402244924441018280014582
:101550008280411122C44AC006C626C2FD5723021A
:1015600005005CCD2A84453F114971E58344F4228E
:101570008347E42203470403A204DD8C9307870119
:1015800093F7F70F93B727002A8981E7130757F1DD
:1015900059EBAD67938757A5639CF400B735066098
:1015A00021469385455E13052408EFF03F9841C519
:1015B0008347C4038346B4030347D403A207D58FEC
:1015C000938707E0ADE325C39307F7FFF98FA1EFFA
:1015D0008347F4030347E403A207D98FA9C78347CE
:1015E00004040547FD176360F70483472404034799
:1015F0001404A207D98F85CB8347440403473404DE
:10160000A207D98F1307F0076368F70013050405D5
:101610007D3BC1676369F500834774040347640435
:10162000A207D98F89EBAD67938757A59D8CB334FB
:10163000900013892400B240224492444A85024912
:101640004101828001114EC6094706CE22CC26CA2E
:101650004AC852C456C28549BA8763FCB902544984
:101660002A8963F8D502834605003284AE84638CF0
:10167000E6088D47638CF60ABA87639C360193D9D6
:1016800015005C51AE9993D59900BE95693501CD91
:101690008547F2406244D2444249B249224A924AC2
:1016A0003E8505618280130A0903938A19008588A3
:1016B00093F9F91FD299A28799C403C70900931718
:1016C00044003D8BD98F2380F90085472302F90020
:1016D0008327490293D59A004A85BE952D3D4DF941
:1016E00093FAFA1F569A9357440099E483470A00E5
:1016F00021803D88C19BC18F2300FA0085472302CA
:10170000F900814779B75C51A181BE95293549F12E
:1017100086049307090393F4E41FA69723808700A8
:101720002180A380870023023901E1BF5C519D81A4
:10173000BE95D53331FD8A049307090393F4C41F82
:10174000BE9426856931B70700F012047D8D1180A3
:10175000498C9357840023808400A380F40093571E
:10176000040161802381F400A38184006DBF79713D
:1017700022D426D206D64AD04ECEAA842EC6113BFB
:101780002A841DE5B245268595312A89C8CC1306E1
:101790000020814513850403EFF02FF883D7A400C0
:1017A0006360F40283D7A40033848740333480001D
:1017B000B2502285225492540259F24945618280E6
:1017C00003C5140085463306890093850403EF1092
:1017D000607569F90504D9B7397126DA06DE22DCAD
:1017E0004AD84ED652D456D25AD023A00500B2843D
:1017F0002EC62139FD576307F52803A401B3B1476D
:101800000DC4B24593F4E40F80C1834704008DCB2F
:1018100003451400EF1080449377150095E363822D
:1018200004241189630F0522A947F2506254D2544F
:101830004259B259225A925A025B3E8521618280F6
:101840000345140023000400EF10E0411377150056
:101850008D4761FF99C0118961F981452285D5398C
:1018600089476311F50404081309641F130A6423EC
:10187000A6894A85A93E23A0A90041099109E31A36
:1018800049FF1389040185498C400D4589C522858E
:10189000C93163F3A9029104E31899FE9147631BD0
:1018A000F50021A091476314F5008547BDBF85472A
:1018B00063F4A700B54795BF8347C4030347B40348
:1018C000A207D98F13070020E396E7FE034A7404AA
:1018D000834764040329C401220A336AFA006316A9
:1018E0000A0013054405E5342A8A83490404232C9D
:1018F000440105479387F9FFA301340193F7F70FDC
:10190000E36AF7FA034BD40323156401E3040BFAEB
:101910009307FBFFB3F76701D1FF834A2404834792
:101920001404A20AB3EAFA002314540193F7FA004C
:10193000D1F38344440483473404A20433E5F40020
:1019400001E51305040561348347F4030347E40309
:10195000A207D98FA5D3B386490313D74A003E9770
:101960003697E369E5F4B304E540E3E564F5B3D401
:101970006403370600105516E36E96F2416655165D
:101980008D49636796008569D519B3B999008509B2
:101990004A978904CA9758D444C8232024035CD0AA
:1019A0000D476392E90C8347B4050347A405A207DA
:1019B000D98FB3E7FA00E39F07EE1305C405EFF0F4
:1019C0001FA18A049384F41F08D4A580E3649AEECF
:1019D000FD571CC85CC4930700F8A302F4008D47B0
:1019E0006398F9068347140603470406A207D98FB4
:1019F0000547639FE704B305E9002285293E29E9ED
:101A0000A302040013050403EFF07F9CB757614164
:101A100093872725631EF50213054421EFF03F9BB2
:101A2000B7774161938727276314F5021305C42212
:101A3000EFF0FF99B70755AA631CF5001305842141
:101A4000EFF0FF9808C81305C421EFF05F9848C471
:101A500083D7C1B22300340185072396F1B2231343
:101A6000F4008147D9B3E3870AE43385D700894777
:101A70006394F9008604B9B73387E4028588058347
:101A8000BA9489B7AD4755B3011122CC06CE2A844A
:101A900081470147130500021548A5481303E002DA
:101AA0002D460507B306E4008386F6FF6381A60290
:101AB00063930601955663171701338EF500A3044F
:101AC0006E008507338EF500A304DE008507E31A58
:101AD000C7FCAE97A38407008347B4001305C40175
:101AE0002EC693F7F7032384F500EFF05F8EB2451F
:101AF000F24088C18347740103476401A207D98F6C
:101B00002393F50083479401034784016244A207AD
:101B1000D98F2392F5000561828083C7B50183C602
:101B2000A5012A87A20733E5D7008D47631AF7007E
:101B300083C7550103C74501A207D98FC2075D8D31
:101B40008280854763FBB70C5849011126CA06CE2F
:101B500022CC4AC84EC6AA8463F8E50203470500B2
:101B600089462E846308D7068D466306D708631D11
:101B7000F70013D915005C512E9993559900BE9525
:101B8000EFF07F9911C9FD57F2406244D2444249B7
:101B9000B2493E8505618280DC509309190093D5D6
:101BA00099001379F91F2699BE95268503490903E3
:101BB000EFF07F9669F993F9F91FA69983C7090396
:101BC0000588A207B3E7270119C0918375BFD20723
:101BD000D1835DBF5C51A181BE95EFF0DF9345F5E8
:101BE00006041374E41F2694834714030347040375
:101BF000A207D98F51BF5C519D81BE95EFF0BF9177
:101C000059F113152400938404031375C51F2695F9
:101C1000EFF0EFFB931745004DBF3E858280797151
:101C200022D4004526D24AD006D64ECE52CC56CA31
:101C30002328050004412A8939E403C704008947A1
:101C400063F4E7009C549DEF83D7840099EB09452A
:101C5000B250225492540259F249624AD24A456122
:101C6000828088548145232CA900232AB90065D19C
:101C70002580229593840403232CA900232E990008
:101C80000145F9B73E8483D9A400A2857D5AA609EF
:101C90000144854A6378340126852EC6EFF00FF59E
:101CA000B245D1B703250900693DAA85630A4501FC
:101CB000E3FFAAF8DC48E37CF5F833043441D9BFEC
:101CC000054579B7854763F8B708797126D204418D
:101CD00022D406D6DC484AD04ECE52CC2E8463F8AD
:101CE000F506B2852A8909EE85497D5A0325090042
:101CF000A28522C6B935B2452A8405E1014531A045
:101D00007D562685EFF01F9465D1B250225492542F
:101D10000259F249624A45618280630A3503630AC7
:101D2000450301462685EFF0FF9165F1D8489C48B0
:101D30009306E7FF63FAD70085079CC883C7540062
:101D400093E71700A382F400E362E4FA45BF094574
:101D50006DBF05455DBF09458280011126CA52C489
:101D600056C206CE22CC4AC84EC65AC00441AA8AE0
:101D70002E8A81ED03A9C40063010904DC48637E57
:101D8000F9029C488DEF014431A826855D3B8547CB
:101D90002A8463F9A70CFD576308F50CDC485289C7
:101DA000E371F5FEF24022856244D2444249B249D1
:101DB000224A924A024B056182800549D9B7631ACB
:101DC0004903DC48130419006363F400094403A5C4
:101DD0000A00A285BD3385476306F5087D57630574
:101DE000E5081DCD83A9C40063F53701DC4863E332
:101DF000F900CA894E8405497D5BDC4805046365AA
:101E0000F400E38229F9094403A50A00A285153BE1
:101E100009C96309250563096505E31034FFA5B702
:101E200069D87D56A2852685EFF0DF810DE9631222
:101E30000A029C48C0C4BDD7D8487917E364F7F6B6
:101E4000FD179CC883C7540093E71700A382F400D2
:101E500091BF2286D2852685EFF0CFFE79D98547BE
:101E60006304F50005443DBF7D542DBF79714AD010
:101E70000329050126D206D622D44ECE52CC56CA0C
:101E800013090902B707200004416364F900232CF9
:101E900005001C4D9DC39379F91F2E8A2A846397F0
:101EA00009084C4985071CCD9DE103D78400935751
:101EB000590063EDE706232C04001145B25022546B
:101EC00092540259F249624AD24A4561828083D7CC
:101ED000A40013579900FD17F98FA9EB26859531BA
:101EE000854AAA8563E4AA000945C9BFFD57631462
:101EF000F5000545E1B7DC486365F502E30D0AFA34
:101F00004C482285993DAA851D45CDD9E38E55FDC6
:101F1000FD57E380F5FE26852EC6EFF05F85B245BE
:101F200069F94CC82685EFF06FCC08CC1385040303
:101F30004E9548CC23282401014549B7397156D222
:101F4000832A05004AD806DE22DC26DA4ED652D491
:101F50005AD05ECE62CC66CA6AC86EC62E89830726
:101F60000900138747FA630C070E938717FD6388F0
:101F7000070E2324050003470900FD4763F3E70E1E
:101F8000B7370660AA84130B0002930BF002130C00
:101F9000C005938D075F138A04022D469305000246
:101FA0005285EFE09FF7814C8149214D8509B307A8
:101FB00039010387F7FF1374F70F63708B02630413
:101FC00074016315840DB3073901838707001387F4
:101FD00017FD5DCB938747FAC5CB63850C1403C708
:101FE00004029307500E4E996315F700954723801E
:101FF000F402914963778B008309090093A91902C0
:102000008A09A3853403268503AD040009392A848F
:1020100071E98C4C6A85EFF00FD02A8461E5C84CD9
:102020008347050085CB834CB50093F7FC032383DE
:10203000F4008347B500A18B91E72D46D285EFE0F0
:10204000FFEE59CD8145268515352A8479D19147F2
:10205000631AF508114463970908154461A005093E
:10206000FDBD930700F8A305F5026254F250D25467
:102070004259B259225A925A025BF24B624CD24CEC
:10208000424DB24D216161BE850935BF930724FDE4
:1020900099C363E9AC01551D63060D08C1E7A14C66
:1020A0002D4D29B7635B0700B73706601377F70735
:1020B00093878772BA9703C40700A2856E85EFE005
:1020C000FFEE2DE19307F4F993F7F70F654763638C
:1020D000F7000114B3079A0123808700850CF9B536
:1020E00063820902F25022856254D2544259B25995
:1020F000225A925A025BF24B624CD24C424DB24D84
:102100002161828093FC0C01E3890CF49C4803C597
:102110000A0093850A0393F7F71FBE95EFF0FF9F20
:1021200088C495BD19447DBF1C41411122C426C2FB
:102130004AC02A8406C63E891145A1440C4C89E94F
:1021400031ED0145B240224492440249410182806E
:102150004A85EFF04FBC21E15C4C03C707001DCF5F
:1021600083C7B700930627FD1307B7F193F7F7036B
:10217000B336D0003337E0002303F400758F01CB72
:10218000138717FF09C793F7F7FDE39C97FA81457B
:102190002285E93945D5232C04006DB71145E5BFEB
:1021A000411122C426C24AC006C603290500AA84DA
:1021B000EFF0FFA62A840DE58C4C4A85EFF0AFB511
:1021C00039EDDC4C83C707001387B7F139C3B1C3BE
:1021D0008545268561392A8465D191476309F502D1
:1021E000B240228522449244024941018280C84C77
:1021F000130600028145EFE05FD2C84C2D4693855F
:102200000402EFE0DFCF85472302F900D1BF1D4470
:10221000C1BF8C4C4A85EFF00FB02A8469D90544C0
:10222000C1B7011122CC06CE2A84EFF08FA671E54A
:10223000834654008547639AF60A03470400A302C5
:1022400004008D476313F70A130600208145130528
:10225000040336C6EFE07FCC930720052308F40281
:10226000A308F402930710062309F402A30BF42039
:102270001C4813061004A309C402230BC42013D660
:102280008700230CF420A30CC42013D60701E1839C
:10229000A30DF4205C44230DC4209305200713D61E
:1022A0008700A30EC42013D60701230FC4201050AB
:1022B000230EF420E183230AB420A30AB420A30F41
:1022C000F420AA8593075005B2460345140023075E
:1022D000F42205069307A0FA23060422A30604228B
:1022E000A307F42250CCEF00F0430345140001464D
:1022F0008145EF00505D3335A000F2406244056136
:10230000828079712AC6680806D62EC432C22ECEC3
:10231000EFF0AF8FFD57630AF50203A701B3124632
:1023200009C723A801B223000700324709C72310B9
:10233000070023A8E1B2014511C601466C00280040
:10234000EFF08FC9B250456182802D45E5BF1D7108
:10235000CEC686CEA2CCA6CACAC8D2C4D6C2DAC05D
:102360002EC6A54963030514137AF603B2842A84A2
:1023700052860C086800EFF02FC6AA891DE9424971
:10238000B2454808232024014ACA4D3E11E583077F
:10239000F10363D30700194593F7C4016382071261
:1023A00009CD91476317F5004808DD3B136A8A00A1
:1023B00005C123200400AA89CDA893F744006393A4
:1023C00007168347A101C58B63970710A188C1C871
:1023D000C257930610021307C0052388D700A388AD
:1023E000E70023870700A3870700C257238CD70085
:1023F000A38CE700238B0700A38B0700C25A034579
:102400000900D685EFF06FF193070002A385FA006B
:10241000C255AA8401464A85EFF08F8DC257238E9C
:102420000700A38E0700238F0700A38F07008547AF
:102430002302F9008DC00146A6854808832AC901F8
:10244000EFF05F883DF5D6854A85FD14EFF0AF8C3F
:102450002326990039FD136A0A04137AFA0F832799
:10246000C901C2541CD044D003450900A685EFF031
:10247000CFEA08C42AC41385C401EFE05FF583578F
:10248000690023084401135A5A0048C42312F40077
:10249000A3080400232E0400137A1A00AA846304FC
:1024A0000A00A2451DE9232A0400F6406644D644EA
:1024B0004649264A964A064B4E85B6492561828092
:1024C000E31905EE8347A10113F7070131EF89886E
:1024D000D9D4858BC9D71D45E9BD035AA90048C881
:1024E000854A260A7D5B63619A0201450CCCE312A2
:1024F00005EC93F7F41FD5DB4A85EFE03FEF1DC5F0
:10250000A580AA9444CC55B70840B3844441EFF069
:102510004FE3AA8563F6AA00E31765FD0545F9B701
:102520000945E9B7214571B5114561B5094551B571
:102530005D71A2C4CAC052DC56DA86C6A6C24EDE9F
:102540005AD85ED662D466D22E8A23A006006C08C2
:102550002A8932C6B68AEFE03FEF254431ED0344C5
:10256000190139E8834709011D44858BB1C703244C
:10257000C9008327490132461D8C6373860032846B
:10258000130B0020854B7D5C05C883274901F24968
:1025900013F7F71F69EB83DCA90013D79700FD1C25
:1025A000B3FCEC0063950C0495E70325890063EA0E
:1025B000AB020944A3088900B6402285264496440C
:1025C0000649F259625AD25A425BB25B225C925C73
:1025D000616182808325890103250900EFF06FD6B0
:1025E000F9B7631485010544F1B7232CA9008325AD
:1025F00089014E85EFE09FDF4DDD935494003386D3
:10260000AC00A5C083D7A90033879C0063F4E70022
:10261000B384974103C51900A686D28532C6EF0060
:10262000A07C71F183C7490099CF03A5C901324647
:10263000118D637A95002605130600209385090302
:102640005295EFE0DF8BA60483A70A00058C269A3B
:10265000A69723A0FA0083274901A697232AF90009
:1026600025B7232EC9008325C9014E85832449013E
:10267000EFE07FEA2DF913F6F41FB304CB40637348
:102680009400A2848325490193890903268693F542
:10269000F51FCE955285EFE09F867DB75D71A2C490
:1026A000CAC04EDE52DC56DA86C6A6C25AD85ED6FC
:1026B00062D466D26AD06ECE2E8A23A006006C0049
:1026C0002A84B289B68AEFE03FD825493DE903491B
:1026D00014016318090683470401898B6387071671
:1026E0005C48338737016374F70093C9F7FF930B96
:1026F0000020054B7D5C638009045C48B24C13F7F5
:10270000F71F631A071003DDAC0013D797007D1D78
:10271000337DED00631F0D0491EB0844814501C931
:10272000631165050949A308240121A80C4C2285E1
:10273000EFF0AFE275F58347040193E70704230840
:10274000F400B64026449644F259625AD25A425B8B
:10275000B25B225C925C025DF24D4A850649616182
:1027600082806314850105497DBF1C4408CC91E338
:1027700008C403A7CC015C4C6316F7006685EFE044
:102780005FD175F10C4C6685EFE05FC641DD93D4F7
:102790009900B30DAD00A5C483D7AC0033079D00ED
:1027A00063F4E700B384A74103C51C00A6866E86C8
:1027B000D285EF00207745F983A5CC01B385B541DB
:1027C00063FC9500A60513060020D29513850C0323
:1027D000EFE0EFF223820C00A60483A70A00B3897E
:1027E0009940269AA69723A0FA005C48B386F40085
:1027F0005C4454C863F3D700B6875CC4EDBD584849
:102800005C446368F7006685EFE0BFC829FD23AE2E
:10281000BC01232EB4014C4C66854448EFE0BFCF89
:1028200039F113F6F41FB384CB4063F39900CE84DF
:102830005C4813850C03268693F7F71FD2853E95D7
:10284000EFE0EFEB23826C0149BF1D49DDBD7971DB
:102850006C0822D406D626D22A84EFE0FFBE41E9D6
:102860008347040193F70704B5CFF2440C50268543
:10287000EFE07FCA25E94C5083C7B5002EC693E729
:102880000702A385F50010440840EFE07FC65C44D2
:10289000B245268513D78700238EF500A38EE50069
:1028A00013D70701E183A38FF50093071002238C50
:1028B000F5009307C005A38CF500238FE50085473D
:1028C000238B0500A38B050023890500A389050040
:1028D0002382F400EFF0FF948347040193F7F7FBA2
:1028E0002308F400B2502254925445618280254559
:1028F000D5BF011122CC06CE2A84913F01E96C009C
:102900002285EFE07FB419E523200400F240624401
:10291000056182802545DDBF797106D622D426D295
:102920002EC62DC12A8401466C086800EFE0DFEA5C
:1029300015EDF244B245228504C0EFF02FE015ED0D
:102940008307B40263CC070083476400C18B8DCB3F
:1029500003C504004C4CEFF04F9C08C483D76400BF
:1029600022852312F400EFF08FAB19C1232004005D
:10297000B25022549254456182809147E318F5FE8B
:102980001545EDB72545EDB701116C0022CC06CEFB
:102990002A84EFE07FAB19E123200400F240624477
:1029A00005618280011122CC2E846C0026CA06CEDD
:1029B000AA84EFE07FA931E101E86244F240268574
:1029C000D24405616FF0AFA5A30404002685EFF0A3
:1029D000AFF59377B5FF95EBA30404009C4C89C732
:1029E000C84CA285EFF04F8A81452685EFF00FC8CD
:1029F0009147631BF500014519A0254519E4F240F4
:102A00006244D244056182807DD9A3040400C5BF1D
:102A100037771050130787021C43C18BF5FF3777B8
:102A2000105061071C43C18BF5FF37771050210709
:102A30001C43C18BF5FF8280B7070061011183C77A
:102A4000470022CC3704005006CE130404101CC0EB
:102A5000B70700105CC09307F5FFC207370707C030
:102A6000C183D98F1CC4B707009089072AC65CC4EC
:102A700045373245B717005037771050938787B4E2
:102A80001CCB48CBC1471CCF37070050B77610503E
:102A90001307071298C2C8C29CC680D2DCD2514725
:102AA00098D60F00F00F6244F240056195B74111CE
:102AB000856702C693877738324763D4E7004101C0
:102AC00082800100324705073AC6FDB7814781463B
:102AD00015483307D5000347070021468607B3C5CD
:102AE000E700E205E18563D4050093C79700060778
:102AF0007D161377F70F7DF28506E39C06FD13958F
:102B00001700136515001375F50F82800111136509
:102B1000050493D785002304A100280006CE22CC0B
:102B2000A305F10032842306B100A30401002305AC
:102B30000100693FA306A10037150050FD5713059A
:102B400085B42300F50019462C000505EFE02FBBE6
:102B50003715005051469305F00F1305F5B4EFE01B
:102B6000CFBB6D45D13DB70700501D479387071276
:102B70001306F00FED46B305F70003C50500631615
:102B8000C5000507E319D7FE7D57D94663EFE60078
:102B9000BA979146014783C517003306E40005073D
:102BA0002300B6008507E318D7FEF24062440561B2
:102BB000828001119317850122CC26CA06CEE187B7
:102BC0002A84AE8463C007081374F40793D7840182
:102BD00013640404A1802800A304F10023048100ED
:102BE00023050100A305910023060100C535A306B6
:102BF000A10037150050FD57130585B42300F500DB
:102C000019462C000505EFE08FAF37150050294617
:102C10009305F00F1305F5B4EFE02FB04545293DBE
:102C2000370700509D47130707121306F00FC546DC
:102C3000B385E70003C50500631DC5008507E3995B
:102C4000D7FE01A8814513057007A5378547E3FD29
:102C5000A7F6F2406244D24405618280B707006162
:102C600003C50700828079714AD09307A00737090E
:102C700000612322F90037F712501C4B06D622D4EC
:102C800093F707F026D24ECE93E7A70A1CCBB7F7EF
:102C900012509387071598431367B70098C398435A
:102CA0006D9B98C3B7F712509387871698431367A5
:102CB000470098C3370710501C4393E707041CC311
:102CC0000F00F00F37140050130484B4FD571CC0DC
:102CD0005CC02314F40083474900B7040050938478
:102CE00004109CC0B7070760A507DCC01533B77791
:102CF000105080CB2947D8CB414798CF84D3A144EB
:102D0000C4D3514798D70F00F00F193381450145BF
:102D10004D3585476309F5020144238A81B28D4709
:102D20002322F9000545B707006109C403C5070060
:102D30001375E50FB25022542380A7009254025914
:102D4000F249456182802A8470009305A01A268585
:102D5000753B631B85028347E100E39FA7FA0347A6
:102D6000F1009307A00AE319F7FA09641304047148
:102D7000B70500401305900A2D3D31C57D1442046E
:102D80004180353375F449BF81451305900A1535E7
:102D9000930910046365A4009309900A09448964A7
:102DA0009384047181454E85293501E993050020FE
:102DB00013050005FD3B2DF18DB7FD14C204C18044
:102DC000FD31EDF091BF700081451305A0033D3B3F
:102DD00021F50344C10013740404133414003304B4
:102DE00080406198310415BF1145638C0612B70706
:102DF000006183C707000D45858B6394071283C765
:102E000041B3397122DC4ED606DE26DA4AD852D4D6
:102E100056D25AD05ECE62CCA18BAE89328499E371
:102E200013149600371A0050B7170050B70400501B
:102E300033898600130B1005130A8AB4FD5A930BCD
:102E4000F00F138CF7B49384041293578401A304F6
:102E5000F100935704012305F100280093578400E3
:102E6000A305F1002304610123068100EFF01FC6D2
:102E7000A306A10019462C0013051A0023005A01CD
:102E8000EFE0EF8705661306969F9305F00F6285C6
:102E9000EFE0AF880565130505A0EFF0FFB99D478A
:102EA000D1463387970003470700631777018507EB
:102EB000E399D7FE054591A875FF8566850713063A
:102EC000E00F938606A03387F400834507006386EE
:102ED000C5008507E399D7FEF1BF9306E07FE3CBFA
:102EE000F6FCBA8793060020014783C51700338696
:102EF000E90005072300B6008507E318D7FE05049F
:102F000093890920E31389F40145F2506254D254A5
:102F10004259B259225A925A025BF24B624C2161D9
:102F2000828082801145638F0618B707006183C7CE
:102F300007000D45858B6397071883C741B3397127
:102F400022DC4ED606DE26DA4AD852D456D25AD0E1
:102F50005ECE62CC66CAA18BAE89328499E313142B
:102F60009600371B0050370A0050338986009304BF
:102F70008BB4FD5A930BF00F130A0A1293078005C6
:102F80002304F10093578401A304F1009357040133
:102F90002305F100280093578400A305F1002306C0
:102FA0008100EFF0BFB2A306A10019462C001385E3
:102FB000140023805401EFD09FF4371500502946A8
:102FC0009305F00F1305F5B4EFD03FF5F9572389BA
:102FD000F400A38854012687814793060020338696
:102FE000F90003460600850705072309C700E39893
:102FF000D7FE37150050130600049305F00F130594
:10300000D5D5A3895421238A5421EFD01FF113056C
:103010005025EFF07FA29D47C54633874701034700
:103020000700631777018507E399D7FE054595A843
:1030300075FF1307202193065025B307EA0083C7C5
:103040000700639677010507E319D7FEC5B7FD8B27
:103050001547E39DE7FC130C2003930C0010B717F2
:103060000050138587B4130600109305F00FEFD0BE
:10307000DFEA13050010EFF03F9C81473307FA00A9
:103080000347070005EF8507E39A97FF81477D1CFB
:1030900063080C02E9D7050493890920E31024EFA3
:1030A0000145F2506254D2544259B259225A925AAE
:1030B000025BF24B624CD24C216182808547C1BFDA
:1030C000F9FBADB78280B707006183C707000D45E4
:1030D000858B85E789476389F500638DA500B33546
:1030E000B000139525008280930700202310F6007E
:1030F0000145828085471CC2E5BF8280411122C400
:1031000026C2170400001304E46A970400009384A5
:10311000646A818C4AC006C6898401496315990294
:103120001704000013040469970400009384C46822
:10313000818C89840149631D9900B24022449244E4
:103140000249410182801C40050911048297F9B7A8
:103150001C40050911048297F9BF000046617446BE
:1031600053205344204361726420546573740D0AE4
:103170000D0A00006469736B20696E697420464112
:10318000494C2028307825303278290D0A0000007B
:103190006469736B20696E6974204F4B0D0A0000DF
:1031A000665F6D6F756E74204641494C202825641A
:1031B000290D0A004D6F756E7465642028464154D0
:1031C00020747970653D2564290D0A0D0A00000000
:1031D000526F6F74206469726563746F72793A0D0F
:1031E0000A0000002F00000020205B4449525D20AF
:1031F0002025730D0A00000020202573202028259B
:1032000075206279746573290D0A000020202865F5
:103210006D707479290D0A00444142414F2E545873
:103220005400000048656C6C6F2066726F6D20441E
:103230006162616F210D0A42616F636869702D31AF
:1032400078202B20526F766172692053444B202BDB
:103250002046617446532E0D0A00000057726F74A9
:10326000652025752062797465730D0A00000000E1
:10327000526561642025752062797465733A202255
:103280002573220D0A0000000D0A53442043617289
:1032900064207465737420636F6D706C6574652E43
:1032A0000D0A0000433A5C55736572735C61726D80
:1032B0007374726F6E6773756265726F5C44657369
:1032C0006B746F705C50726F64756374735C3032D2
:1032D0005F526F766172695F53747564696F5C5297
:1032E0006F766172695F53797374656D5F5374753E
:1032F00064696F5C746172676574735C42616F636B
:1033000068697031785C76656E646F722F62616F88
:1033100031785F6770696F2E63000000706F7274A0
:10332000203C204750494F5F4E554D5F504F5254FF
:103330005300000070696E203C3D204750494F5FAC
:103340004D41585F50494E00433A5C557365727366
:103350005C61726D7374726F6E6773756265726FA4
:103360005C4465736B746F705C50726F64756374EA
:10337000735C30325F526F766172695F537475644B
:10338000696F5C526F766172695F53797374656DB2
:103390005F53747564696F5C746172676574735CA4
:1033A00042616F6368697031785C76656E646F72D4
:1033B0002F62616F31785F756172742E6300000057
:1033C000696E7374616E6365203C20554152545F91
:1033D000494E5354414E43455F434F554E540000B0
:1033E0006261756472617465203E20307500000072
:1033F00028646174612920213D204E554C4C000009
:10340000433A5C55736572735C61726D7374726F6D
:103410006E6773756265726F5C4465736B746F7011
:103420005C50726F64756374735C30325F526F7698
:103430006172695F53747564696F5C526F76617213
:10344000695F53797374656D5F53747564696F5CFC
:10345000746172676574735C42616F63686970312F
:10346000785C76656E646F722F62616F5F737464EF
:10347000696F2E630000000028666D742920213DCD
:10348000204E554C4C000000433A5C5573657273F6
:103490005C61726D7374726F6E6773756265726F63
:1034A0005C4465736B746F705C50726F64756374A9
:1034B000735C30325F526F766172695F537475640A
:1034C000696F5C526F766172695F53797374656D71
:1034D0005F53747564696F5C746172676574735C63
:1034E00042616F6368697031785C76656E646F7293
:1034F0002F62616F5F7374646C69622E63000000F9
:1035000028612920213D204E554C4C00286229205D
:10351000213D204E554C4C00433A5C557365727307
:103520005C61726D7374726F6E6773756265726FD2
:103530005C4465736B746F705C50726F6475637418
:10354000735C30325F526F766172695F5374756479
:10355000696F5C526F766172695F53797374656DE0
:103560005F53747564696F5C746172676574735CD2
:1035700042616F6368697031785C726F76617269FD
:103580002F726F766172695F6770696F2E630000DA
:10359000706F7274203C204E554D5F504F52545303
:1035A00000000000554E4B4E4F574E003A20696EBA
:1035B000200000005B534556532D000041535345F6
:1035C00052540000494E56415249414E54000000A9
:1035D000434845434B000000554E52454143484146
:1035E000424C450046415433322020200000000068
:1035F0002A2B2C3A3B3C3D3E5B5D7C223F7F00000A
:103600006770696F5F64697361626C655F70756C28
:103610006C7300006770696F5F70756C6C5F7570BC
:10362000000000006770696F5F746F67676C65000A
:103630006770696F5F7365745F6469720000000092
:103640006770696F5F696E69740000006770696F09
:103650005F7365745F66756E6374696F6E000000FA
:10366000756172745F7075746300000075617274C7
:103670005F77726974650000756172745F696E6965
:1036800074000000010000000200000004000000BF
:1036900008000000001010500020105000301050A2
:1036A00000401050004000E0005000E0000001E049
:1036B000001001E0002001E0003001E0004001E0E6
:1036C000005001E0006001E0007001E0006000E0F7
:1036D000007000E0008000E0009000E000A000E04A
:1036E00000B000E000C000E000D000E000E000E03A
:1036F00000F000E06D696E695F7072696E7466005B
:1037000070696E5F746F67676C65000070696E5FEB
:103710006D6F646500000000BC350660C43506604E
:10372000D0350660D8350660809A45418E418F803D
:103730004545454949498E8F9092924F994F55552D
:1037400059999A9B9C9D9E9F41494F55A5A5A6A717
:10375000A8A9AAABACADAEAFB0B1B2B3B4B5B6B771
:10376000B8B9BABBBCBDBEBFC0C1C2C3C4C5C6C761
:10377000C8C9CACBCCCDCECFD0D1D2D3D4D5D6D751
:10378000D8D9DADBDCDDDEDFE0E1E2E3E4E5E6E741
:10379000E8E9EAEBECEDEEEFF0F1F2F3F4F5F6F731
:0837A000F8F9FAFBFCFDFEFF45
:0737A8006D656D636D70009B
:0437B0001006066099
:0837B400010000007A00000092
:04000005600603008E
:00000001FF
