:100000006F00003500000000280200002A020000F6
:1000100000000000000000000000000000000000E0
:1000200000000000000000000000000000000000D0
:100030004E030000000000004E030000000000001E
:100040004E0300004E0300004E0300004E0300006C
:100050004E0300004E0300004E0300004E0300005C
:100060004E0300004E0300004E0300004E0300004C
:100070004E0300004E0300004E0300004E0300003C
:100080004E0300004E0300004E0300004E0300002C
:100090004E0300004E0300008C0900000100000028
:1000A000511126C022C206C4828201008244124439
:1000B000A2403101828000002A86014593F6150096
:1000C00091C2329585810606F5F98280634E05025C
:1000D00063C305042E86AA857D5515C285466378BF
:1000E000B6006356C00006068606E36CB6FE014500
:1000F00063E4C500918D558D85820582F5FA828075
:100100008682C93F2E8582823305A0406347B000B6
:10011000B305B040C1B7B305B0408682653F330533
:10012000A0408282868263C70500634905005D376F
:100130002E858282B305B040E35B05FE3305A04007
:10014000513F3305B0408282010015C22A838546A3
:100150006367B500FD561307F6FF3A93BA9583839C
:100160000500230073007D163693B6956DFA8280E4
:100170002A8309CA83830500230073007D160503C3
:1001800085056DFA828003A5C18189659385058304
:100190006F001038EFF2DFF003C581816111312A61
:1001A00031C993171500AA979207AA972A86139523
:1001B00037001D8D1305753E9307F07C63FCA70285
:1001C0009305007D32C23937A9452A84153F2AC0DC
:1001D000A945228501378247124689652A87A2866A
:1001E000938545840545EF0050361305800C752630
:1001F00021016DBD03A5C181896593850587EF0048
:100200003031E5B7EFF2DFE9F1650545938505206B
:1002100023AEA180EF00D020130510029305200229
:10022000238CA180A92059B501A0B707EFBE37E7FD
:1002300000E0938707083CC701A01387018283472A
:10024000270089C7834707006381A70283465700B9
:10025000814791CA834637006397A6008547B30755
:10026000F0408D8BBA973E8582808147CDBFEFF2FB
:100270003FE32A84AE84D13711E99387018203C713
:10028000270011C703C75700854619C305B5814626
:10029000139716003697BA97228505478145238024
:1002A0008700A38097002381E700512322858145A1
:1002B000B92D8D452685A52BD1BFEFF27FDE7111BB
:1002C0002AC0A53F01E501451101CDB383471500C3
:1002D000BE84EF00C0792A842685A92D15ED02453C
:1002E0008145352509454924024585450D2531457A
:1002F000A52C02458145212DEF0060772A842685B3
:10030000152D05C5EF00A0762A84268525251DE537
:10031000EF00E075018D4DBFEF006075B167018D95
:1003200093870735E3FAA7FA79BFEF004074B16706
:10033000018D93870735E3F4A7FC71B7EF002073B5
:10034000B167018D93870735E3F1A7FCADBF01A02D
:100350009701002093810150170100201301814A69
:100360001305000A970500209385C5C917060020CC
:10037000130646C963FAC5008322050023A0550071
:1003800011059105E3EAC5FE172500001305058A4E
:1003900097050020938505C717060020130606CD94
:1003A00063FAC5008322050023A0550011059105BD
:1003B000E3EAC5FE1385818197050020938545D228
:1003C0006377B500232005001105E36DB5FE896252
:1003D00093820288739002308D427390428097021C
:1003E0000000938222C293E2320073905230EF00F9
:1003F0004001970200009382E2557390123473001B
:100400002030EFF2FFC9371402401C403707FFF8D5
:10041000414593E717001CC05C40F98F5CC01C404D
:100420003707F7FE7D17F98F1CC01C403707FCFF0C
:100430007D17F98F1CC05C4041777D17F98F5CC038
:10044000B7079F001CC481241C4C93E707021CCCF7
:10045000B71701409387074098431377F7F098C385
:1004600098431367070898C3094798CBB7F7FF1F4E
:1004700003C5477D9307F00F6304F5007D892124B0
:10048000B72702409843C176FD16719B98C39843E5
:100490001367170098C3B7170240D843D8C3D8438F
:1004A000758FD8C3D843B7060001D8C39843558F7A
:1004B00098C3984393166700E3DD06FED843B7164A
:1004C0000240719BD8C3D84313672700D8C3214784
:1004D000DC42B18BE39EE7FED1BEB7160240DC42A0
:1004E0002147B18B6390E704DC423775DC021305CA
:1004F00005C0D8428967938747B111833D8BBA976E
:1005000083C70700D84293F5F70F13770708B3574F
:10051000F50011EFEFF2DFB8753E37070020232812
:10052000A70469B637356E0113050560D9B73707DB
:1005300000202328F7048280EFF29FB6B70700203F
:1005400003A50705B7157A00938505206136137555
:10055000F50F2384A18293175500898F8A073E9552
:100560000E052393A18299B6EFF29FB337F400E012
:100570005C40AA85F99B5CC003C58182353E08C8F2
:10058000232404001C4093E717001CC05C40858BAB
:10059000F5DF1C40F99B1CC011BEEFF27FB037F4B1
:1005A00000E05C40AA85F99B5CC003D561822936D6
:1005B00008C8232404001C4093E717001CC05C40BB
:1005C000858BF5DF1C40F99B1CC0CDB4B70600201D
:1005D000AA8703A54605138701EBAA97636BF7006B
:1005E000370700201307C70D63E5E70023AAF604C9
:1005F00082807D558280944593F7060193F2F60040
:1006000081C7DC41B3E2F20083D3050093F7F30F17
:10061000A5C303230500611122C226C0814713042C
:1006200080029304800405473316F70033F7C300B4
:100630006312E602939527003D473317B70013472F
:10064000F7FF33776700B395B20033E3E500639DAE
:10065000860050C985072147E397E7FC1244232011
:100660006500824421018280E39696FE10C9DDB7C1
:1006700082801C4533F5F5003335A00082800CC91B
:1006800082804CC98280371702401C430E0593F7C5
:1006900077F05D8D08C38280EFF29FA0371602408D
:1006A0005842A1462A84318B631AD7065C42B77739
:1006B000DC02938707C01CC054420967130787B345
:1006C0009182BD8A36970345070058429375F50F0E
:1006D0001377070833D5A70019E33E85E53A48C0EC
:1006E00008C448C4B7170240DC438D46AD83FD8B78
:1006F00013D737008A07F18BD98F13F6370133F7F9
:10070000D70063F4C600138747FF8967938747B212
:10071000BA9783C507007D3A08C849BAB7376E0152
:100720009387076049BFB7170240984F81C5498F2B
:1007300098CF82801345F5FF798D88CF8280B717D7
:100740000240D84F81C5498FD8CF82801345F5FF2D
:10075000798DC8CF828023A6A1828280370700C00E
:10076000835705002A9719C737D7FEBF13070740DD
:100770002A9711E703D7250093F7F7F8D98F03D706
:10078000650093F7F7CFD98F2310F50083D7450085
:100790002316F50283D705002314F502B73701406D
:1007A000938707C06316F50083C785002318F502F9
:1007B0008547231AF50082808357050091C593E78A
:1007C00017002310F500828041677917F98FD5BF94
:1007D0008357C50009C6CD8F2316F500828093C5C7
:1007E000F5FFED8FD5BF0355450282808357050184
:1007F0000355C500ED8F6D8DB337F0003335A00084
:100800007D8D828093C5F5FF2318B500828011810C
:100810008D4763E9A70089670A05938707B8AA97F8
:10082000884309E537150140130505408280EFF242
:100830003F8741112EC0935445008D472A8463EDB4
:100840009704896713972400938707B8BA979C4346
:10085000A1C7896793962400938707B8B6979C43EE
:10086000A9EF1377F4008547B397E7002312F1004F
:100870008D473EC48247231301002316010023172E
:100880000100FD171947636DF70409678A0713070D
:1008900087B4BA979C4382870967096689651307FD
:1008A00047B6930680051306C6879385458F054591
:1008B000FD228D47E3E797FA69BF83C7018385452A
:1008C000B3949500E58FD1FF8967938707B7B697F3
:1008D0008843913D83C70183DD8C2388918251B782
:1008E000C1473EC6228525374C00313341016FF0A8
:1008F000EFFB9147FDB793078004E5B793078002AC
:10090000CDB7D147F9BFE147E9BFF147D9BFEFF212
:100910002FF92A84AE84E53D85459377F400B3979B
:10092000F50093950701C18181C4913B6FF00FF8E9
:10093000893BEDBFEFF2CFF62A84D13D9377F400E7
:100940008545B395F500C205C18125336FF00FF6DB
:10095000EFF20FF5054501354936F93EB70700209E
:1009600083A7070589EF09668965138701819306C7
:100970005002130606929385859905450D22B928E4
:100980006521EFF05F80EFF0FF80F5BF130181FD7F
:100990002ACA2EC837050040854506D216D01ACE81
:1009A0001ECC32C636C43AC23EC0893511C985450F
:1009B00037050040813D83A74183850723AAF18243
:1009C000925082527243E2435245C2453246A24699
:1009D000124782471301810273002030EFF24FEC7F
:1009E000854551112E85A13BB707002003A40705BB
:1009F000B7470F009387F72363EF870009670966FE
:100A00008965130707B9930660031306069B938550
:100A100085A205456920B7450F00938505242285E9
:100A2000231101002313010023140100EFF08FEACA
:100A30007D159307703E2310A1008A85370500407D
:100A40002312F100213B054637050040B2852318EB
:100A50000500BD3BB7E700E01307000423A2E71041
:100A6000854537050040893B31016FF02FE4EFF2F7
:100A70002FE311443705004083A44183AD3303A71E
:100A800041836385E4007D1475F42687931757002E
:100A9000998F8A07BA978E073E956FF02FE1EFF294
:100AA0002FE02E847111B2859307800873B0073050
:100AB000B7070020375645539387077013063665EE
:100AC00090C3C8C394C789CD370500207D46130560
:100AD000C5703AC0052EB7070020A38507720247EC
:100AE00001CF370500207D46BA851305C572192E42
:100AF000B7070020A385077401CC370500207D4689
:100B0000A2851305C574FD2CB7070020A3850776C1
:100B10000100FDBFEFF2CFD803570501F577FD17B0
:100B20007D8F83D7650021112A84D98F2318F50082
:100B30000357C500FD779387379F7D8F83D7450087
:100B40002EC0D98F03D78500D98F03D7A500D98FA1
:100B50002316F5000357450183D7C5001377F7CF58
:100B6000D98F231AF5004800053EB7470140938707
:100B7000078082456312F406C2470357C4001395E9
:100B800017003E9542070E0541878C413E956357FD
:100B900007048605EFF00FD4930540062AC0EFF056
:100BA0006FD393144500024593054006EFF04FD5EF
:100BB0008357C400C207C18763D407020E0593059B
:100BC000400613052503EFF0EFD01D89C98C2314CF
:100BD000940061016FF08FCDB24745B78A055DBFC4
:100BE00012059305400613052503EFF0AFCE3D89AE
:100BF000F1BF8357C50091C50967D98F2316F5004A
:100C0000828079777D17F98FD5BF93F5F51F231271
:100C1000B5008280035505006D8D3335A0008280BC
:100C2000EFF20FC8116511112E84130505028545D9
:100C3000DD3C930700023EC0371501408D473EC2A0
:100C40008A85E147130505403EC4EFF0DF9A93071C
:100C50000004371501402310F1008A8591471305E0
:100C600005403EC4EFF03F99B14737450140B30519
:100C7000F10002CA13050580231BF10022C602C839
:100C800002CC493D37450140854513050580953720
:100C900093878184239007042391070471016FF0E7
:100CA000EFC0EFF2EFBF37A40700AE8413040412C5
:100CB000374501409305000813050580A13F09C988
:100CC00037450140A6851305058081376FF00FBEBB
:100CD0007D1479FCE5BFEFF2AFBCAA842E8491EDC0
:100CE000096709668965130707BC9306C0071306E1
:100CF00006A4938585AB01455D338305040099E126
:100D00006FF0CFBA93F5F50F26850504593FF5B777
:100D1000EFF20FB92A84AE8491ED096709668965FF
:100D2000130707BB93068008130606A4938585ABBB
:100D30000145B533A6852285793F2285B54595378E
:100D4000A9452285B93F6FF06FB65971A2CCA6CAEA
:100D500086CEB2D0B6D2BAD4BED6AA842E8491EDB5
:100D6000096709668965130747BA930640091306A0
:100D700006A4938585AC01451D3394102286930506
:100D80000005480036C085284C002685A937F64066
:100D90006644D644656182801301C1F8A6D486D822
:100DA000A2D6AA84635C06009307B0081CC17D55D7
:100DB000C6503654A6541301410782803284B3379B
:100DC0008000B307F4403EC43ECAC17793878720B2
:100DD00036862EC02EC8BA868A853EC682D2712A31
:100DE000FD576355F5009307B0089CC071D082474A
:100DF0002380070075BF3687B2862E86AA8503A595
:100E0000818059BFAA8709CA03C7050085058507E0
:100E1000A38FE7FE7D1665FB3E966393C700828035
:100E20008507A38F07FED5BF511122C217170000F7
:100E3000130787DF17140000130404DF198C26C082
:100E400006C40984814463948402171700001307C1
:100E5000A7DD17140000130464DD198C0984814494
:100E600063928402A24012448244310182809397AB
:100E70002400BA979C438504829717170000130734
:100E8000A7DAD1B793972400BA979C438504829739
:100E900017170000130747D9E1B7111122CA36848A
:100EA000944526C806CC2AC232C4AE846365D40CED
:100EB0000395C50036871376054835C698408C499A
:100EC000B307B740D8483EC093161700BA9613D759
:100ED000F6013697930614000587BE963A8663742A
:100EE000D70036873686137505403AC62DC11245A0
:100EF000B285BD2F35C502468C482AC2EFF04FA7F8
:100F000003D6C400924632471376F6B71366060836
:100F10002396C400824794C8D8C8BE961D8F94C03B
:100F200098C4A28622873A84A2458840228636C089
:100F3000EFF0AFA1984482460145158F98C49840C0
:100F4000229798C0E2405244C24471018280124507
:100F5000EF00B0033247AA8655FD8C48124525257F
:100F6000924731477D5598C303D7C40013670704E0
:100F70002396E400C1BFA28645BF03D7C500130175
:100F800081F7A6DE9307F10106C322C12AC22EC053
:100F90001377070893F487FF05CF984915EB93055E
:100FA000000436C832C6E92582473246C24688C3A5
:100FB00088CB19E91247B1471CC37D559A400A44B2
:100FC000F654130181088280824713070004D8CBAE
:100FD00013070002A38CE4001307000323AA0400F4
:100FE000238DE40036CA328483460400B332D00035
:100FF0009386B6FDB336D000B3F2D2006392020AF4
:10100000B306C440630FC4008245124516C836C6F5
:1010100069357D566301C51CD048B246C24236963A
:10102000D0C8834604006388061A7D57050423A0B0
:10103000040023A60400D8C023A40400A381040450
:1010400023AC04048345040015461715000013055E
:10105000E5A816C6212B9840B2421306140039E1C8
:101060009376070189C693060002A381D404937680
:10107000870089C69306B002A381D4048345040087
:101080009306A002638CD502D4440147A5450346CC
:101090000400130606FD63FEC50C15CBD4C405A8D9
:1010A000050499B797160000938646A3158D8546CB
:1010B000B396A600558F98C0328469B7D2469385FF
:1010C000460094422ECA63CF0608D4C432848346B5
:1010D00004001307E0026392E6028346140013073C
:1010E000A0026391E60A5247090493064700184399
:1010F00036CA635307007D57D8C0834504000D46A8
:10110000171500001305059E952111CD1717000036
:101110001307479D198D984093060004B396A600C7
:10112000558F050498C08345040019461715000023
:101130001305859B238CB40015295DC5130700009A
:1011400035EB98405246137707109306860019C373
:101150009306460036CAD848A247130614003E97A5
:10116000D8C851B5B306D04013672700D4C498C07F
:10117000B1BF1397260036970607B306C7000504CC
:10118000054731B7050423A204008146A54503465F
:101190000400130606FD63F6C500E38002F6D4C022
:1011A000A9BF13972600369706070504B306C700A4
:1011B0008542F1BF02461245580897060000938603
:1011C00006CEA68597000000E70000002AC4A247CB
:1011D0007D57E392E7F8824703D7C70013770704E8
:1011E000E31D07DCC848D9BB0246124558089706DC
:1011F00000009386C6CAA6850122C9BF01113AC460
:101200009C49984522CC26CA06CE2AC036C2AE8456
:10121000328463D3E700BA871CC003C7340419C300
:1012200085071CC09C4093F7070281C71C408907B3
:101230001CC09C40998BB9CB9C4083C6340493F767
:101240000702B336D000B5EBA2479245024513869C
:1012500034048297FD57630CF5049840914681470A
:10126000198B6319D7001840DC44998F13C7F7FF17
:101270007D87F98F9844944863D4E600158FBA9718
:101280000147639BE704014525A08507D844144026
:10129000158FE3D3E7FA3EC69245A247024585463D
:1012A0001386940182977D57B247E310E5FE7D5582
:1012B000F2406244D244056182803387D400130631
:1012C0000003A301C70403C7540493871600A6971D
:1012D0008906A381E7048DBF3EC692450245A24719
:1012E00085461386A4013AC88297FD56E301D5FCD2
:1012F0004247B247050771B7130141FD26D006D416
:1013000022D283C7850136C42AC032C29306800721
:10131000AE8463E2F6021306200693863504636FFB
:10132000F6006389071C9305800517060000130665
:10133000267C6388B7141384240405A81386D7F980
:101340001376F60FD545E3E8C5FE971500009385A3
:1013500025880A062E9610422E9602861C43138478
:101360002404938647009C4314C32381F4048547D7
:101370005DA29C40084313F60708930545000DC283
:101380001C410CC363D807001307D002B307F04019
:10139000A381E4041706000013068675A94599A0E9
:1013A00013F607041C410CC371DEC207C187D9BF05
:1013B0008C40104313F505081C42110611E593F506
:1013C000050499C1C207C18310C303C68401130772
:1013D000F0066317E60E1706000013066671A145B6
:1013E000A3810404D84098C46348070088405D8FF7
:1013F00036846D9988C01DCB36843E8536CC3EC67A
:1014000032CA2EC8EFE0DFCF5246C2457D14329576
:101410000347050032452300E400EFE0BFCB32472D
:10142000C2455246E246AA87E379B7FCA147639ECC
:10143000F5009C40858B91CBD8409C4863C7E70062
:1014400093070003A30FF4FE7D14818E94C82247F6
:10145000924602457008A6855533FD576311F50C79
:101460007D55A250125482541301C10282809C40C7
:1014700093E707029CC09307800717060000130636
:101480006668A382F4048C40084313F305081C41EA
:1014900011056318030013F3050463040300C20776
:1014A000C18308C313F7150001C793E505028CC07B
:1014B00099C3C14535B798401377F7FD98C0D5BF9C
:1014C000170600001306C662A94519BF90401C43C9
:1014D000CC4813730608138547006306030008C34E
:1014E0009C438CC301A808C3137606049C4375DA99
:1014F0002390B70023A80400368491BF1C43D0403A
:1015000081459386470014C380432285852019C1F5
:10151000018DC8C0DC409CC8A38104040DBFA24754
:1015200094489245024522868297FD57E30AF5F2D8
:101530009C40898B95EBF247C844E354F5F23E8515
:101540000DB73EC692450245A247854613869401D3
:1015500082977D57E306E5F0B2478507D844F24607
:10156000158FE3C0E7FEC1BF8147CDBF93F5F50FEF
:101570002A966314C5000145828083470500E38DE8
:10158000B7FE0505FDB7D1CD83A7C5FF511122C216
:1015900006C41384C5FF63D307003E942AC0C52246
:1015A0001387C1831C43024581EB2322040000C33F
:1015B0001244A2403101F9A2637DF4001040B30649
:1015C000C4006396D7009443DC43B29614C05CC059
:1015D000F9BF3E87DC4399C3E37DF4FE1443330631
:1015E000D700631F86001040B29614C33306D7009D
:1015F000E390C7FC9043DC43B29614C35CC34DBF79
:101600006375C400B1471CC165B71040B306C40080
:101610006396D7009443DC43B29614C05CC040C3C9
:1016200041BF8280411126C2938481839C4022C4A1
:1016300006C62AC02E8481E78145552A88C0024506
:10164000A285FD546D22631995007D54B240228518
:101650002244924441018280130435007198E307CB
:1016600085FEB305A44002455922E31195FEF1BF62
:10167000938735003111F19B26C406C822C6938496
:101680008700314763F3E400BA8463C4040063FA5B
:10169000B400B1471CC10145C2403244A2445101CB
:1016A00082802AC0E9281383C183032703003A8478
:1016B00021E80245A685BD377D572A84631FE50AC8
:1016C00003A4C183228751EB5DC0184002458145C8
:1016D00022973AC2292A1247631BA7080C400245E9
:1016E0008D8CA6858137FD576303F5081C40A697AE
:1016F0001CC083A7C183D84325E723AE018215A070
:101700001040058E63480604AD4663FDC60204C062
:10171000B3069400631687022320D3005C4090C276
:10172000DCC2024585201305B4009307440061998B
:101730003307F540E302F5F63A94898F1CC0A9BF40
:1017400054C3E9BF5C40631587002320F300D1BF79
:101750005CC3C1BF22874040A1BF3A845843A5B7AC
:101760003E87DC43E39E87FE232207005DBF0247DE
:10177000B1471CC33A85392039BF04C15DB7138511
:10178000018451A81385018441A899E1B285CDB5A2
:10179000311126C406C822C62AC0B28409EAE5333C
:1017A0000144C24022853244A244510182802E84E9
:1017B000AD20AA876366950013571500E36397FE73
:1017C0000245A6853EC26D3592472A8719E13A84C3
:1017D000C9BF268663F397003E863A85A2853AC242
:1017E000EFE01F990245A285793B1247CDB7611101
:1017F00022C02A842E8523A2018406C2EFE01FDDC9
:10180000FD576316F50083A7418491C31CC0924025
:101810000244210182808280828083A7C5FF1385D4
:10182000C7FF63D50700AA959C413E9582800000C2
:1018300048432D5352303420556C747261736F6E6F
:101840006963000070756C73653D256C7520757358
:101850002020646973743D256C75206D6D202825EA
:101860006C752E256C7520636D290D0A0000000033
:101870004E6F206F626A656374000000433A5C55E6
:10188000736572735C61726D7374726F6E6773757A
:101890006265726F5C4465736B746F705C50726FDD
:1018A00064756374735C30325F526F766172695F26
:1018B00053747564696F5C526F766172695F5379B6
:1018C0007374656D5F53747564696F5C746172677E
:1018D0006574735C43483332563030335C726F76D4
:1018E0006172692F726F766172695F6770696F2EBE
:1018F00063000000696478203C204E554D5F504FD6
:1019000052545320262620706F72745F7461626C8B
:10191000655B6964785D20213D204E554C4C00008C
:10192000433A5C55736572735C61726D7374726F68
:101930006E6773756265726F5C4465736B746F700C
:101940005C50726F64756374735C30325F526F7693
:101950006172695F53747564696F5C526F7661720E
:10196000695F53797374656D5F53747564696F5CF7
:10197000746172676574735C434833325630303338
:101980005C726F766172692F726F766172695F6DDA
:1019900061696E2E6300000053797374656D436F47
:1019A0007265436C6F636B203E2030550000000071
:1019B000433A5C55736572735C61726D7374726FD8
:1019C0006E6773756265726F5C4465736B746F707C
:1019D0005C50726F64756374735C30325F526F7603
:1019E0006172695F53747564696F5C526F7661727E
:1019F000695F53797374656D5F53747564696F5C67
:101A0000746172676574735C4348333256303033A7
:101A10005C726F766172692F726F766172695F7442
:101A200069636B2E6300000074696D65725F636C9F
:101A30006B203E3D203130303030303055000000DA
:101A4000433A5C55736572735C61726D7374726F47
:101A50006E6773756265726F5C4465736B746F70EB
:101A60005C50726F64756374735C30325F526F7672
:101A70006172695F53747564696F5C526F766172ED
:101A8000695F53797374656D5F53747564696F5CD6
:101A9000746172676574735C434833325630303317
:101AA0005C726F766172692F726F766172695F75B1
:101AB0006172742E63000000287374722920213D26
:101AC000204E554C4C00000028666D742920213DA5
:101AD000204E554C4C000000232D302B20000000E0
:101AE000686C4C006566674546470000303132330C
:101AF000343536373839414243444546000000000A
:101B00003031323334353637383961626364656673
:101B10000000000001020304050607080102030497
:101B2000050607080204060804080C10081018200F
:101B300010203040204060800102030405060708A1
:101B40000102030405060708F2080000F608000079
:101B5000FC08000002090000060900000A09000054
:101B6000E408000070696E5F6D6F6465000000003E
:101B70000400000000000000100000002000000031
:101B80000008014000000000001001400014014066
:101B9000726F766172695F7469636B5F696E697495
:101BA00000000000756172745F7072696E74660087
:101BB000756172745F7072696E746C6E0000000003
:101BC000756172745F7072696E74000090F7FFFF48
:101BD000A6F7FFFF6AF7FFFF6AF7FFFF6AF7FFFF4D
:101BE0006AF7FFFFA6F7FFFF6AF7FFFF6AF7FFFF3D
:101BF0006AF7FFFF6AF7FFFF00F9FFFFE4F7FFFF57
:101C0000A2F8FFFF6AF7FFFF6AF7FFFF30F9FFFF57
:101C10006AF7FFFFE4F7FFFF6AF7FFFF6AF7FFFFCE
:041C2000AAF8FFFF20
:041C240004020000B6
:101C2800000000000000000068000000D000000074
:101C3800000000000000000000000000000000009C
:101C4800000000000000000000000000000000008C
:101C5800000000000000000000000000000000007C
:101C6800000000000000000000000000000000006C
:101C7800006CDC02DC0000200000002000000000F6
:081C88006D61696E00000000AF
:00000001FF
