:100000006F00001C00000000AC010000AE01000009
:1000100000000000000000000000000000000000E0
:1000200000000000000000000000000000000000D0
:10003000BE01000000000000BE0100000000000042
:10004000BE010000BE010000BE010000BE010000B4
:10005000BE010000BE010000BE010000BE010000A4
:10006000BE010000BE010000BE010000BE01000094
:10007000BE010000BE010000BE010000BE01000084
:10008000BE010000BE010000BE010000BE01000074
:10009000BE010000BE010000E006000001000000FB
:1000A000511126C022C206C4828201008244124439
:1000B000A2403101828000002A86014593F6150096
:1000C00091C2329585810606F5F98280634E05025C
:1000D00063C305042E86AA857D5515C285466378BF
:1000E000B6006356C00006068606E36CB6FE014500
:1000F00063E4C500918D558D85820582F5FA828075
:100100008682C93F2E8582823305A0406347B000B6
:10011000B305B040C1B7B305B0408682653F330533
:10012000A0408282868263C70500634905005D376F
:100130002E858282B305B040E35B05FE3305A04007
:10014000513F3305B04082820100EFF27FF5B745A1
:100150000F0081460146938505240545EF00A075F3
:100160008145130530023529854513053002092BD9
:1001700035BFEFF2FFF20144814513053002092338
:10018000C5450545EF00D005A2850545EF005005A2
:10019000854513053002ED2129453D2C05041374D6
:1001A000F40F9307F00FE319F4FC09B701A0B707A8
:1001B000EFBE37E700E0938707083CC701A001A026
:1001C00097010020938101641701002013018163CE
:1001D0001305000A970500209385C5E21706002045
:1001E000130646E263FAC5008322050023A05500EA
:1001F00011059105E3EAC5FE17150000130505ABCF
:1002000097050020938505E017060020130686E079
:1002100063FAC5008322050023A05500110591054E
:10022000E3EAC5FE1385018197050020938585DFEC
:100230006377B500232005001105E36DB5FE8962E3
:1002400093820288739002308D42739042809702AD
:100250000000938222DB93E2320073905230EF0071
:10026000400197020000938222447390123473007D
:100270002030EFF2FFE2371402401C403707FFF84E
:10028000414593E717001CC05C40F98F5CC01C40DF
:100290003707F7FE7D17F98F1CC01C403707FCFF9E
:1002A0007D17F98F1CC05C4041777D17F98F5CC0CA
:1002B000B7079F001CC4E12A1C4C93E707021CCC23
:1002C000B71701409387074098431377F7F098C317
:1002D00098431367070898C3094798CBB7F7FF1FE0
:1002E00003C5477D9307F00F6304F5007D89452220
:1002F000B72702409843C176FD16719B98C3984377
:100300001367170098C3B7170240D843D8C3D84320
:10031000758FD8C3D843B7060001D8C39843558F0B
:1003200098C3984393166700E3DD06FED843B716DB
:100330000240719BD8C3D84313672700D8C3214715
:10034000DC42B18BE39EE7FE95B3B7160240DC4278
:100350002147B18B6390E704DC423775DC0213055B
:1003600005C0D8428567938787A711833D8BBA97CD
:1003700083C70700D84293F5F70F13770708B357E1
:10038000F50011EFEFF2DFD1B13337070020232062
:10039000A70029BB37356E0113050560D9B73707AC
:1003A00000202320F7008280EFF29FCFB7070020C4
:1003B00003A50700B7157A0093850520213B137527
:1003C000F50F2389A18093175500898F8A073E95E1
:1003D0000E052398A180D9B9EFF29FCC37F400E045
:1003E0005C40AA85F99B5CC003D50181F13108C846
:1003F000232404001C4093E717001CC05C40858B3D
:10040000F5DF1C40F99B1CC055B1944593F70601DC
:1004100093F2F60081C7DC41B3E2F20083D305001A
:1004200093F7F30FA5C303230500611122C226C071
:100430008147130480029304800405473316F700B4
:1004400033F7C3006312E602939527003D47331745
:10045000B7001347F7FF33776700B395B20033E374
:10046000E500639D860050C985072147E397E7FCB7
:10047000124423206500824421018280E39696FE87
:1004800010C9DDB782800CC982804CC982803717C1
:1004900002401C430E0593F777F05D8D08C3828000
:1004A000B7170240984F81C5498F98CF8280134576
:1004B000F5FF798D88CF8280B7170240D84F81C56C
:1004C000498FD8CF82801345F5FF798DC8CF8280C0
:1004D00023AAA1808280370700C0835705002A978E
:1004E00019C737D7FEBF130707402A9711E703D76D
:1004F000250093F7F7F8D98F03D7650093F7F7CF67
:10050000D98F2310F50083D745002316F50283D732
:1005100005002314F502B7370140938707C063161F
:10052000F50083C785002318F5028547231AF500D7
:1005300082808357050091C593E717002310F500CB
:10054000828041677917F98FD5BF8357C50009C6E7
:10055000CD8F2316F500828093C5F5FFED8FD5BFB3
:10056000835705010355C500ED8F6D8DB337F0003E
:100570003335A0007D8D828093C5F5FF2318B5002B
:10058000828011818D4763E9A70085670A059387FB
:1005900047C8AA97884309E5371501401305054068
:1005A0008280EFF2FFAF41112EC0935445008D477A
:1005B0002A8463ED9704856713972400938747C8BF
:1005C000BA979C43A1C7856793962400938747C831
:1005D000B6979C43A9EF1377F4008547B397E700DC
:1005E0002312F1008D473EC48247231301002316D6
:1005F000010023170100FD171947636DF704056714
:100600008A071307C7C4BA979C43828705670566A4
:100610008565130787C693068005130686A893850C
:1006200005B00545792A8D47E3E797FA69BF83C787
:1006300081818545B3949500E58FD1FF85679387C8
:1006400047C7B6978843A93D83C78181DD8C238C3A
:10065000918051B7C1473EC6228525374C0075337E
:100660004101A9B49147C5BF93078004EDB7930733
:100670008002D5B7D147C5B7E147F1BFF147E1BF28
:10068000EFF21FA22A84AE84ED3D85459377F400F6
:10069000B397F50093950701C18199C0ED3339B443
:1006A000ED33F5BFEFF2DF9F05451D357939ED39A3
:1006B000B707002083A7070099EF370700200566DA
:1006C000856513078700930650021306C6B293850B
:1006D00045BA0545FD20A9283D26853C593CFDBF6E
:1006E000130181FD2ACA2EC837050040854506D270
:1006F00016D01ACE1ECC32C636C43AC23EC08D3594
:1007000011C9854537050040853D83A7C18185070F
:1007100023AEF180925082527243E2435245C24569
:100720003246A246124782471301810273002030ED
:10073000EFF21F97854551112E85BD3BB70700206D
:1007400003A40700B7470F009387F72363EF8700E1
:10075000056705668565130747C993066003130699
:10076000C6BB938545C30545A928B7450F009385AA
:100770000524228523110100231301002314010005
:10078000EFF05F957D159307703E2310A1008A85D9
:10079000370500402312F1003D3B05463705004078
:1007A000B285231805005533B7E700E013070004AE
:1007B00023A2E710854537050040A53B31016FF0C6
:1007C000FF8EEFF2FF8D2E847111B28593078008A2
:1007D00073B00730B707002037564553938707702B
:1007E0001306366590C3C8C394C789CD370500206A
:1007F0007D461305C5703AC0ED22B7070020A385DA
:100800000772024701CF370500207D46BA851305E0
:10081000C572C12AB7070020A385077401CC37052C
:1008200000207D46A2851305C574652AB707002000
:10083000A38507760100FDBF835705008D6693866B
:10084000060433F7D70083D6250083D70500D58F5C
:1008500083D64500D58F83D66500D58F83D6850096
:10086000D58F83D6A500D58F83D6C500D58F83D6E7
:10087000E500D58FD98F2310F50083D70501231804
:10088000F50082808357050091C593E70704231084
:10089000F500828041671307F7FBF98FCDBF231660
:1008A000B50082800355C5008280035585006D8D9B
:1008B0003335A0008280EFF2AFFE0565130181FDA4
:1008C00041052E84854532C236C0D93E93070006C5
:1008D0003EC42C008D4737150140E1443EC626C872
:1008E0002D36930700082314F1002C00914737158B
:1008F00001403EC8193E12469307401002CA231B0E
:10090000F10093070020824602CC231FF100937769
:100910002600231DF100B707002083A70700B33688
:10092000D0009E06058A2311D10223120102231E44
:10093000C10093D6170001476374D40493D62700EF
:100940002147637FD40293D637004147637AD402AC
:1009500093D6470026876375D40293D657001307B2
:100960000002637FD40093D6670013078002637987
:10097000D4009D83B337F4001397370013070703A0
:100980004C08373501402310E1027D358545373568
:100990000140CD3D130181026FF04FF1EFF24FF0B6
:1009A0006164AE841304046A894537350140F53D1E
:1009B00019E17D1475F8A685373501406164C535A8
:1009C0001304046A854537350140C53519E17D14A6
:1009D00075F837350140F9351375F50F6FF00FEDE8
:1009E00075BFAA8709CA03C7050085058507A38FB8
:1009F000E7FE7D1665FB3E966393C7008280850700
:100A0000A38F07FED5BF511122C21707000013079D
:100A1000E7291704000013046429198C26C006C4B2
:100A20000984814463948402170700001307072890
:100A30001704000013048427198C098481446392ED
:100A40008402A240124482443101828093972400A0
:100A5000BA979C4385048297170700001307072560
:100A6000D1B793972400BA979C43850482971707C0
:100A700000001307A723E1B70102030405060708D6
:100A80000102030405060708433A5C557365727357
:100A90005C61726D7374726F6E6773756265726F8D
:100AA0005C4465736B746F705C50726F64756374D3
:100AB000735C30325F526F766172695F5374756434
:100AC000696F5C526F766172695F53797374656D9B
:100AD0005F53747564696F5C746172676574735C8D
:100AE00043483332563030335C726F766172692F0F
:100AF000726F766172695F6770696F2E63000000C4
:100B0000696478203C204E554D5F504F525453201D
:100B1000262620706F72745F7461626C655B696415
:100B2000785D20213D204E554C4C0000433A5C55E9
:100B3000736572735C61726D7374726F6E677375D7
:100B40006265726F5C4465736B746F705C50726F3A
:100B500064756374735C30325F526F766172695F83
:100B600053747564696F5C526F766172695F537913
:100B70007374656D5F53747564696F5C74617267DB
:100B80006574735C43483332563030335C726F7631
:100B90006172692F726F766172695F6D61696E2E25
:100BA0006300000053797374656D436F7265436C25
:100BB0006F636B203E20305500000000433A5C55C7
:100BC000736572735C61726D7374726F6E67737547
:100BD0006265726F5C4465736B746F705C50726FAA
:100BE00064756374735C30325F526F766172695FF3
:100BF00053747564696F5C526F766172695F537983
:100C00007374656D5F53747564696F5C746172674A
:100C10006574735C43483332563030335C726F76A0
:100C20006172692F726F766172695F7469636B2E8E
:100C30006300000074696D65725F636C6B203E3DFC
:100C40002031303030303030550000006406000074
:100C5000680600006E0600007406000078060000BA
:100C60007C0600005806000070696E5F6D6F646559
:100C70000000000004000000000000001000000060
:100C800020000000000801400000000000100140AA
:100C900000140140726F766172695F7469636B5F03
:080CA000696E69740000000098
:100CA800006CDC02000000006D61696E000000004D
:00000001FF
