:100000006F00A017000000006601000068010000FA
:1000100000000000000000000000000000000000E0
:1000200000000000000000000000000000000000D0
:1000300078010000000000007801000000000000CE
:1000400078010000780100007801000078010000CC
:10005000B608000078010000780100007801000077
:1000600078010000780100007801000078010000AC
:10007000780100007801000078010000780100009C
:10008000780100007801000078010000780100008C
:100090007801000078010000D40600000100000093
:1000A000511126C022C206C4828201008244124439
:1000B000A240310182800000634E050263C3050443
:1000C0002E86AA857D5515C285466378B60063568F
:1000D000C00006068606E36CB6FE014563E4C50073
:1000E000918D558D85820582F5FA82808682C93F81
:1000F0002E8582823305A0406347B000B305B0402F
:10010000C1B7B305B0408682653F3305A040828207
:10011000868263C70500634905005D372E858282AC
:10012000B305B040E35B05FE3305A040513F330506
:10013000B0408282010003C5018125ABEFF25FF67A
:10014000894513052002B92113066013854513055F
:100150002002EF00607C99BF828013051002814568
:100160002388A18005A901A0B707EFBE37E700E00B
:10017000938707083CC701A001A097010020938145
:100180006168170100201301E1671305000A970554
:100190000020938525E7170600201306A6E663FADC
:1001A000C5008322050023A0550011059105E3EA4F
:1001B000C5FE17150000130565AB97050020938554
:1001C00065E4170600201306E6E463FAC5008322FF
:1001D000050023A0550011059105E3EAC5FE13852E
:1001E000018197050020938525E66377B5002320DC
:1001F00005001105E36DB5FE896293820288739054
:1002000002308D427390428097020000938282DF19
:1002100093E2320073905230EF00400197020000E9
:100220009382C2477390123473002030EFF25FE77D
:10023000371402401C4061113707FFF893E717009D
:100240001CC05C404145F98F5CC01C403707F7FE7D
:100250007D17F98F1CC01C403707FCFF7D17F98FF5
:100260001CC05C4041777D17F98F5CC0B7079F00C9
:100270001CC439241C4CA16693E707021CCCB71799
:1002800001409387074098431377F7F098C398434A
:100290001367070898C3094798CB02C002C21C4CD9
:1002A0003707014093E717001CCC5C43D58F5CC334
:1002B0001C404167B7060200D98F1CC009671C406B
:1002C000F58F3EC2824785073EC0924781E782474D
:1002D000E397E7FE184085479316E70063D60606C6
:1002E0003EC212476310F706B72702409843C17613
:1002F000FD16719B98C398431367170098C3B717EF
:100300000240D843D8C3D843758FD8C3D843C166F9
:10031000558FD8C39843B7060001558F98C39843AB
:1003200093166700E3DD06FED843B7160240719BC3
:10033000D8C3D84313672700D8C32147DC42B18B09
:10034000E39EE7FE21019DB302C261BFB7160240E2
:10035000DC422147B18B6390E704DC423775DC0255
:10036000130505C0D8428567938747A311833D8B4A
:10037000BA9783C70700D84293F5F70F137707089A
:10038000B357F50011EFEFF2BFD11D3B3707002047
:100390002320A70021BB37356E0113050560D9B7AF
:1003A000370700202320F7008280EFF27FCFB707C6
:1003B000002003A50700B7157A00938505200933AF
:1003C0001375F50F238AA18093175500898F8A072B
:1003D0003E950E052399A180D1B9944593F7060166
:1003E00093F2F60081C7DC41B3E2F20083D305004B
:1003F00093F7F30FA5C303230500611122C226C0A2
:100400008147130480029304800405473316F700E4
:1004100033F7C3006312E602939527003D47331775
:10042000B7001347F7FF33776700B395B20033E3A4
:10043000E500639D860050C985072147E397E7FCE7
:10044000124423206500824421018280E39696FEB7
:1004500010C9DDB782800CC982804CC98280370701
:100460000140144786058D47B397B70093C7F7FF40
:10047000F58F1CC71C473315B5005D8D08C78280FA
:10048000371702401C430E0593F777F05D8D08C3C4
:100490008280B7170240984F81C5498F98CF8280DC
:1004A0001345F5FF798D88CF8280B7170240D84F6A
:1004B00081C5498FD8CF82801345F5FF798DC8CF8C
:1004C000828023ACA1808280370700C0835705005B
:1004D0002A9719C737D7FEBF130707402A9711E796
:1004E00003D7250093F7F7F8D98F03D7650093F763
:1004F000F7CFD98F2310F50083D745002316F502D7
:1005000083D705002314F502B7370140938707C04E
:100510006316F50083C785002318F5028547231A63
:10052000F50082808357050091C593E717002310DB
:10053000F500828041677917F98FD5BF8357C500D1
:1005400009C6CD8F2316F500828093C5F5FFED8F88
:10055000D5BF835705010355C500ED8F6D8DB337AA
:10056000F0003335A0007D8D828093C5F5FF231800
:10057000B500828011818D4763E9A70085670A0570
:10058000938707C4AA97884309E5371501401305E7
:1005900005408280EFF2DFB041112EC09354450038
:1005A0008D472A8463ED970485671397240093870A
:1005B00007C4BA979C43A1C7856793962400938785
:1005C00007C4B6979C43A9EF1377F4008547B39708
:1005D000E7002312F1008D473EC482472313010038
:1005E0002316010023170100FD171947636DF70457
:1005F00005678A07130787C0BA979C4382870567F8
:1006000005668565130747C293068005130646A451
:100610009385C5AB0545792A8D47E3E797FA69BF0E
:1006200083C7C1818545B3949500E58FD1FF856768
:10063000938707C3B6978843A93D83C7C181DD8CE3
:10064000238E918051B7C1473EC6228525374C0085
:1006500069334101A1BC9147C5BF93078004EDB741
:1006600093078002D5B7D147C5B7E147F1BFF1473E
:10067000E1BFEFF2FFA22A84F53D58459376F400DE
:100680008547B397D70093950701F98FC18199C327
:10069000E93329BCC933F5BFEFF29FA005451535F5
:1006A00075312133B707002083A7070099EF37077B
:1006B0000020056685651307870093065002130620
:1006C00086AE938505B60545F520A928DD2CBD34F9
:1006D0006134FDBF130181FD2ACA2EC837050040D1
:1006E000854506D216D01ACE1ECC32C636C43AC2C2
:1006F0003EC0853511C9854537050040BD3583A706
:100700000182850723A0F182925082527243E24314
:100710005245C2453246A246124782471301810222
:1007200073002030EFF2DF97854551112E85B53BE0
:10073000B707002003A40700B7470F009387F723EC
:1007400063EF8700056705668565130707C5930690
:100750006003130686B7938505BF0545A128B745F5
:100760000F00938505242285231101002313010026
:1007700023140100B1327D159307703E2310A100B0
:100780008A85370500402312F1003D3B05463705B9
:100790000040B285231805005533B7E700E0130782
:1007A000000423A2E710854537050040A53B310131
:1007B0006FF0DF8FEFF2DF8E2E847111B285930719
:1007C000800873B00730B70700203756455393872A
:1007D00007701306366590C3C8C394C789CD370523
:1007E00000207D461305C5703AC0552AB707002082
:1007F000A3850772024701CF370500207D46BA85E1
:100800001305C572692AB7070020A385077401CCB8
:10081000370500207D46A2851305C5744922B70718
:100820000020A38507760100FDBF58410C415045CB
:10083000B7070140938707403E9793C6F5FF39C23B
:100840009043758E90C3D043F18ED4C31443CD8EA4
:1008500014C3184190479346F7FF758E90C7D04751
:10086000F18ED4C7144541466399C6009447D98E8A
:1008700094C7D447558FD8C78280B6979443558F75
:1008800098C382801C43F58F1CC38280B707014048
:10089000938707409843DC4B698FE98F3337E0003B
:1008A000B337F0003375F7008280B70701409387B4
:1008B0000740C8CB8280797122CE06D616D41AD2D0
:1008C0001ED026CC2ACA2EC832C636C43AC23EC072
:1008D00001448547B394870026854D3F19C9268575
:1008E000E9379317240013874182BA979C4391C339
:1008F00082970504A147E31EF4FC7244B250A25251
:1009000012538253E2445245C2453246A246124730
:1009100082474561730020309377850099EB135728
:10092000450089476308F7008D476307F70691463E
:1009300019C38280C146EFF2AFF621112EC0854562
:100940001374F50033E5B6003AC2B2849936124505
:10095000A285313682470546B3168600214789C7EE
:1009600031476383C70041478547280036C436C0F6
:100970003AC83ECA02C6553D0245938741820A04E1
:100980003E9404C01D37B7E700E03707100023A0EE
:10099000E71061016FF08FF19306000269BFAA872B
:1009A00009CA03C7050085058507A38FE7FE7D16E5
:1009B00065FB3E966393C70082808507A38F07FE81
:1009C000D5BF511122C2170700001307E7291704EA
:1009D000000013046429198C26C006C409848144CC
:1009E0006394840217070000130707281704000008
:1009F0001304C427198C0984814463928402A240A1
:100A0000124482443101828093972400BA979C4318
:100A1000850482971707000013070725D1B793971E
:100A20002400BA979C438504829717070000130798
:100A3000A723E1B701020304050607080102030426
:100A400005060708433A5C55736572735C61726D05
:100A50007374726F6E6773756265726F5C446573F1
:100A60006B746F705C50726F64756374735C30325A
:100A70005F526F766172695F53747564696F5C521F
:100A80006F766172695F53797374656D5F537475C6
:100A900064696F5C746172676574735C4348333278
:100AA000563030335C726F766172692F726F766187
:100AB00072695F6770696F2E630000006964782057
:100AC0003C204E554D5F504F5254532026262070E7
:100AD0006F72745F7461626C655B6964785D20211C
:100AE0003D204E554C4C0000433A5C557365727383
:100AF0005C61726D7374726F6E6773756265726F2D
:100B00005C4465736B746F705C50726F6475637472
:100B1000735C30325F526F766172695F53747564D3
:100B2000696F5C526F766172695F53797374656D3A
:100B30005F53747564696F5C746172676574735C2C
:100B400043483332563030335C726F766172692FAE
:100B5000726F766172695F6D61696E2E630000006D
:100B600053797374656D436F7265436C6F636B206B
:100B70003E20305500000000433A5C5573657273A7
:100B80005C61726D7374726F6E6773756265726F9C
:100B90005C4465736B746F705C50726F64756374E2
:100BA000735C30325F526F766172695F5374756443
:100BB000696F5C526F766172695F53797374656DAA
:100BC0005F53747564696F5C746172676574735C9C
:100BD00043483332563030335C726F766172692F1E
:100BE000726F766172695F7469636B2E63000000D7
:100BF00074696D65725F636C6B203E3D20313030EF
:100C00003030303055000000560600005A06000013
:100C100060060000660600006A0600006E0600001E
:100C20004A06000070696E5F6D6F64650000000029
:100C30000400000000000000100000002000000080
:100C400000080140000000000010014000140140B5
:100C5000726F766172695F7469636B5F696E6974E4
:040C60000000000090
:040C64005A01000031
:100C6800006CDC02000000006D61696E000000008D
:00000001FF
