:100000006F00201A000000008E0100009001000027
:1000100000000000000000000000000000000000E0
:1000200000000000000000000000000000000000D0
:10003000A001000000000000A0010000000000007E
:10004000A0010000A0010000A0010000A00100002C
:10005000A0010000A0010000A0010000A00100001C
:10006000A0010000A0010000A0010000A00100000C
:10007000A0010000A0010000A0010000A0010000FC
:10008000A0010000A0010000A0010000A0010000EC
:10009000A0010000A0010000F40500000100000024
:1000A000511126C022C206C4828201008244124439
:1000B000A240310182800000634E050263C3050443
:1000C0002E86AA857D5515C285466378B60063568F
:1000D000C00006068606E36CB6FE014563E4C50073
:1000E000918D558D85820582F5FA82808682C93F81
:1000F0002E8582823305A0406347B000B305B0402F
:10010000C1B7B305B0408682653F3305A040828207
:10011000868263C70500634905005D372E858282AC
:10012000B305B040E35B05FE3305A040513F330506
:10013000B04082820100EFF2BFF6F16593850520A1
:100140000545EF00C0718565938545BA0545EF000B
:1001500010008565938585BB0545EF00407FB9B7E5
:10016000EFF21FF40111130600028A850545EF0026
:10017000B001635CA0008565938585BD0545EF00F2
:1001800060798A850545EF00807C056105B701A08F
:10019000B707EFBE37E700E0938707083CC701A029
:1001A00001A0970100209381E16517010020130150
:1001B00061651305000A970500209385A5E41706DD
:1001C0000020130626E463FAC5008322050023A05D
:1001D000550011059105E3EAC5FE1715000013054A
:1001E00065C3970500209385E5E1170600201306F7
:1001F00066E263FAC5008322050023A055001105BD
:100200009105E3EAC5FE13850181970500209385DA
:1002100065E56377B500232005001105E36DB5FEA4
:10022000896293820288739002308D42739042807B
:1002300097020000938202DD93E232007390523005
:10024000EF0040019702000093824237739012340E
:1002500073002030EFF2DFE4371402401C40370710
:10026000FFF8414593E717001CC05C40F98F5CC064
:100270001C403707F7FE7D17F98F1CC01C4037075D
:10028000FCFF7D17F98F1CC05C4041777D17F98F0B
:100290005CC0B7079F001CC4792A1C4C93E7070277
:1002A0001CCCB71701409387074098431377F7F0AA
:1002B00098C398431367070898C3094798CBB7F7C3
:1002C000FF1F03C5477D9307F00F6304F5007D8989
:1002D0009D22B72702409843C176FD16719B98C3B3
:1002E00098431367170098C3B7170240D843D8C381
:1002F000D843758FD8C3D843B7060001D8C39843F5
:10030000558F98C3984393166700E3DD06FED843E4
:10031000B7160240719BD8C3D84313672700D8C3D0
:100320002147DC42B18BE39EE7FE49B3B71602409A
:10033000DC422147B18B6390E704DC423775DC0275
:10034000130505C0D84285679387C7D911833D8BB4
:10035000BA9783C70700D84293F5F70F13770708BA
:10036000B357F50011EFEFF2BFD3993B37070020E9
:100370002320A70025BB37356E0113050560D9B7CB
:10038000370700202320F7008280EFF27FD1B707E4
:10039000002003A50700B7157A00938505200D33CB
:1003A0001375F50F2389A18093175500898F8A074C
:1003B0003E950E052398A180D5B9944593F7060183
:1003C00093F2F60081C7DC41B3E2F20083D305006B
:1003D00093F7F30FA5C303230500611122C226C0C2
:1003E0008147130480029304800405473316F70005
:1003F00033F7C3006312E602939527003D47331796
:10040000B7001347F7FF33776700B395B20033E3C4
:10041000E500639D860050C985072147E397E7FC07
:10042000124423206500824421018280E39696FED7
:1004300010C9DDB78280371702401C430E0593F7C1
:1004400077F05D8D08C38280EFF29FC537160240BA
:100450005842A1462A84318B631AD7065C42B7778B
:10046000DC02938707C01CC054420567130707DCF2
:100470009182BD8A36970345070058429375F50F60
:100480001377070833D5A70019E33E85153948C00F
:1004900008C448C4B7170240DC438D46AD83FD8BCA
:1004A00013D737008A07F18BD98F13F6370133F74B
:1004B000D70063F4C600138747FF85679387C7DAC1
:1004C000BA9783C50700ED3E08C8CDB6B7376E01B1
:1004D0009387076049BFB7170240984F81C5498F7E
:1004E00098CF82801345F5FF798D88CF8280B7172A
:1004F0000240D84F81C5498FD8CF82801345F5FF80
:10050000798DC8CF828023AAA1808280370700C05E
:10051000835705002A9719C737D7FEBF130707402F
:100520002A9711E703D7250093F7F7F8D98F03D758
:10053000650093F7F7CFD98F2310F50083D74500D7
:100540002316F50283D705002314F502B7370140BF
:10055000938707C06316F50083C785002318F5024B
:100560008547231AF50082808357050091C593E7DC
:1005700017002310F500828041677917F98FD5BFE6
:100580008357C50009C6CD8F2316F500828093C519
:10059000F5FFED8FD5BF835705010355C500ED8FDE
:1005A0006D8DB337F0003335A0007D8D828093C50B
:1005B000F5FF2318B5008280EFF29FAE0545A13705
:1005C000B533E133B707002083A7070099EF37075A
:1005D0000020056685651307870093065002130601
:1005E00046BE9385C5C50545ED20A9289123A136B2
:1005F000853EFDBF130181FD2ACA2EC83705004084
:10060000854506D216D01ACE1ECC32C636C43AC2A2
:100610003EC0513711C9854537050040493F83A782
:100620008181850723ACF180925082527243E2436C
:100630005245C2453246A246124782471301810203
:1006400073002030EFF2DFA5854551112E85453529
:10065000B707002003A40700B7470F009387F723CD
:1006600063EF8700056705668565130707DD930659
:100670006003130646C79385C5CE05459928B7453F
:100680000F00938505242285231101002313010007
:100690002314010035347D159307703E2310A1000B
:1006A0008A85370500402312F1008D350546370550
:1006B0000040B28523180500E135B7E700E01307D5
:1006C000000423A2E710854537050040713D310144
:1006D000F1BAEFF2FF9C2E847111B2859307800866
:1006E00073B00730B707002037564553938707701C
:1006F0001306366590C3C8C394C789CD370500205B
:100700007D461305C5703AC01121B7070020A385A7
:100710000772024701CF370500207D46BA851305D1
:10072000C572ED26B7070020A385077401CC3705F5
:1007300000207D46A2851305C574C92EB707002089
:10074000A38507760100FDBFEFF29F9503570501D2
:10075000F577FD177D8F83D7650021112A84D98F06
:100760002318F5000357C500FD779387379F7D8FCA
:1007700083D745002EC0D98F03D78500D98F03D7E3
:10078000A500D98F2316F5000357450183D7C5006F
:100790001377F7CFD98F231AF50048007531B74783
:1007A00001409387078082456312F406C2470357CE
:1007B000C400139517003E9542070E0541878C41F2
:1007C0003E95635707048605EFF09F8F930540061B
:1007D0002AC0EFF0FF8E93144500024593054006B2
:1007E000EFF0DF908357C400C207C18763D40702CC
:1007F0000E059305400613052503EFF07F8C1D8938
:10080000C98C2314940061016FF05F8AB24745B729
:100810008A055DBF12059305400613052503EFF019
:100820003F8A3D89F1BF8357C50091C50967D98FBC
:100830002316F500828079777D17F98FD5BF93F560
:10084000F51F2312B5008280035545001375F51F6F
:100850008280035505006D8D3335A0008280EFF254
:100860003F84116511112E84130505028545A531BC
:10087000930700023EC0371501408D473EC28A856E
:10088000E147130505403EC40D3E930700043715AC
:1008900001402310F1008A859147130505403EC4AD
:1008A000293EB14737450140B305F10002CA13059F
:1008B0000580231BF10022C602C802CC71353745E2
:1008C0000140854513050580B93FB7070020938790
:1008D000C701239007042391070471016FF00FFDF6
:1008E000EFF20FFC37A40700AE841304041237455F
:1008F00001409305000813050580A13F09C937454C
:100900000140A685130505801D3F6FF02FFA7D1469
:1009100079FCE5BFEFF2CFF8AA842E8491ED05674C
:1009200005668565130747E09306C007130646D0A2
:100930009385C5D70145713B8305040099E16FF0AC
:10094000EFF693F5F50F26850504593FF5B7EFF25D
:100950002FF52A84AE8491ED05670566856513073A
:1009600047DF93068008130646D09385C5D7014517
:100970008D33A6852285793F2285B5459537A945D2
:100980002285B93F6FF08FF2EFF28FF161112EC027
:1009900032C2014491ED056705668565130747DEA0
:1009A0009306E00B130646D09385C5D80145153351
:1009B00093040004374501409305000213050580A8
:1009C000493DB70700209387C70121C13745014042
:1009D00013050580953DB70700209387C70103D70E
:1009E000070403D6270405071377F7036309C70035
:1009F00003D607043E962300A6002390E7049386BF
:100A0000F4FF93940601C180D5F403D7270401466F
:100A10004207418383D607046396E600014521011E
:100A20006FF0CFE8B386E70083C6060093F5F60FB4
:100A3000D916E1CA938635FFE9C60507050613777F
:100A4000F703C9BF83D2070483D627040145638E09
:100A5000D20083D62704BE9603C5060083D627049A
:100A6000850693F6F6032391D7042380A500050796
:100A700082463A85B385E6006304C700E34467FC19
:100A80002380050083D6070403D727046380E6028A
:100A900003D727043E970344070003D727041374A2
:100AA000F40F05071377F7032391E70483D60704B0
:100AB00003D72704E385E6F603D72704B5463E9718
:100AC000034707001377F70F6318D402A946E3180A
:100AD000D7F483D6070403D72704E382E6F403D7C9
:100AE00027043E970347070003D72704050713771A
:100AF000F7032391E70425B74D1715F3591405F0B3
:100B0000C9BF924601471383F6FF9DB7AA8709CA5A
:100B100003C7050085058507A38FE7FE7D1665FBE6
:100B20003E966393C70082808507A38F07FED5BFDB
:100B3000511122C2170700001307C72D1704000028
:100B40001304442D198C26C006C40984814463947F
:100B50008402170700001307E72B17040000130493
:100B6000642B198C0984814463928402A24012444C
:100B700082443101828093972400BA979C43850474
:100B80008297170700001307E728D1B7939724002F
:100B9000BA979C438504829717070000130787279D
:100BA000E1B70000434833325630303320554152CC
:100BB00054205265616479005479706520736F6DBB
:100BC000657468696E6720616E6420707265737306
:100BD00020456E7465720000596F752073616964F9
:100BE0003A200000433A5C55736572735C61726D24
:100BF0007374726F6E6773756265726F5C44657350
:100C00006B746F705C50726F64756374735C3032B8
:100C10005F526F766172695F53747564696F5C527D
:100C20006F766172695F53797374656D5F53747524
:100C300064696F5C746172676574735C43483332D6
:100C4000563030335C726F766172692F726F7661E5
:100C500072695F6D61696E2E630000005379737471
:100C6000656D436F7265436C6F636B203E2030553A
:100C700000000000433A5C55736572735C61726DED
:100C80007374726F6E6773756265726F5C446573BF
:100C90006B746F705C50726F64756374735C303228
:100CA0005F526F766172695F53747564696F5C52ED
:100CB0006F766172695F53797374656D5F53747594
:100CC00064696F5C746172676574735C4348333246
:100CD000563030335C726F766172692F726F766155
:100CE00072695F7469636B2E6300000074696D65DF
:100CF000725F636C6B203E3D2031303030303030DD
:100D000055000000433A5C55736572735C61726D07
:100D10007374726F6E6773756265726F5C4465732E
:100D20006B746F705C50726F64756374735C303297
:100D30005F526F766172695F53747564696F5C525C
:100D40006F766172695F53797374656D5F53747503
:100D500064696F5C746172676574735C43483332B5
:100D6000563030335C726F766172692F726F7661C4
:100D700072695F756172742E63000000287374726B
:100D80002920213D204E554C4C00000028627566FC
:100D90002920213D204E554C4C0000000102030447
:100DA00005060708010203040506070802040608F1
:100DB00004080C10081018201020304020406080DB
:100DC00001020304050607080102030405060708DB
:100DD000726F766172695F7469636B5F696E697463
:100DE00000000000756172745F726561645F6C6918
:100DF0006E650000756172745F7072696E746C6EFE
:100E000000000000756172745F7072696E7400009A
:100E1000006CDC02000000006D61696E00000000E3
:00000001FF
