:02000004600694
:100300009701FA009381015017011A01130181CF5F
:100310000171970200009382E205739052309702B8
:10032000FA00938222CE1703FA001303E3D5638603
:10033000620023A002009102DDBF971200009382A9
:10034000622E1703FA001303E3CB9703FA0093839B
:1003500063CB6309730003AE02002320C301910243
:100360001103C5BFEF00700C73005010F5BF010002
:100370007310013417011A011301C1C8130181F769
:1003800006C00EC412C616C81ACA1ECC22CE26D06B
:100390002AD22ED432D636D83ADA3EDC42DEC6C075
:1003A000CAC2CEC4D2C6D6C8DACADECCE2CEE6D045
:1003B000EAD2EED4F2D6F6D8FADAFEDCF322103422
:1003C00096DEF322003016C1F322003416C21171FA
:1003D000F52917011A011301E1C2130181F7F65241
:1003E000739012348A42739002308240A2413242AA
:1003F000C2425243E243724482541255A2553256CD
:10040000C2565257E257725886481649A649364A8C
:10041000C64A564BE64B764C865C165DA65D365E4C
:10042000C65E565FE65F1241730020300100130084
:100430000000130000001300000001116C001146C1
:100440003705166006CE02C6EF005030B245FD57A4
:100450006393F50081453715066085051305052171
:100460002EC6A1256C00114637051660EF007045B9
:10047000AA8519E937150660B705166013054522E8
:100480002D25F24005618280371506601305C523CE
:10049000C5BF8280411122C426C24AC006C6954704
:1004A000AA842E84328963F3A702371706603716B1
:1004B0000660B715066013074752930680041306BB
:1004C00086259385052D0145EF00607ABD4763F3CE
:1004D00087023717066037160660B71506601307E0
:1004E000475293069004130686259385852E014571
:1004F000EF00E077B7C7041413553400938707C0A3
:100500003E95860426950A051D881C4106040D4764
:10051000331787001347F7FF7D8F93773900B24079
:10052000B39787002244D98F1CC1924402494101EC
:100530008280411122C426C24AC006C695472A8439
:10054000AE84328963F2A702371706603716066059
:10055000B7150660130747519306600613068625F4
:100560009385052D01452127BD4763F29702371773
:10057000066037160660B7150660130747519306E5
:100580007006130686259385852E0145CD25B7C7B0
:100590000414938727C53305F4000A051C418545DB
:1005A000B3959500630A0900DD8DB24022440CC169
:1005B000924402494101828093C5F5FFFD8DF5B754
:1005C000411122C426C206C695472A84AE8463F22E
:1005D000A7023717066037160660B71506601307BF
:1005E00047509306000A130686259385052D01457D
:1005F000BD2DBD4763F297023717066037160660B8
:10060000B7150660130747509306100A1306862590
:100610009385852E0145A12DB7C70414938787C5FF
:100620003E940A041C408545B3959500DD8DB2408B
:100630000CC02244924441018280411122C406C66A
:1006400026C24AC08D472E8463F1A70E3717066075
:1006500037160660B7150660130707559306B007EF
:100660001306C62F938545370145112561C0014505
:10067000B2402244924402494101828083A7C1874B
:1006800095E3B7371050D853B7576E0A9387079C36
:10069000418319C7B7470F0093870724B307F702B1
:1006A00023AEF186B7170660131925009387C75547
:1006B000B7061050CA9798429C43D98F9CC289476D
:1006C0006315F50205463285B545E9330146B54562
:1006D00005458535B5450545E53505463285B945B8
:1006E000553B0546B9453285A93503A7C1879357C0
:1006F0001400BA97054763E4870033D78702B7171A
:1007000006609387C756CA97944323A206020F0038
:10071000F00F9317070193E76731DCD20F00F00F5A
:1007200003A5C1873355E502A1B7A9F937170660BC
:1007300037160660B7150660130707559306C007FE
:100740001306C62F93854539014515230DB7411171
:1007500022C406C68D472E8463FFA70E3717066096
:1007600037160660B7150660130747549306F00B5B
:100770001306C62F938545370145D52969E82244DC
:10078000B2403717066037160660B71506601307C4
:1007900047549306000C1306C62F9385453A01452E
:1007A0004101F1A137470F00130707249441C18A83
:1007B00099C27D1765FF37470F001307072494433D
:1007C000858A99C27D1765FF9841418B49E398431B
:1007D000058B35EFB2866374CF0093060010B30F1C
:1007E000E40083C20F00B30FA700050723805F005A
:1007F000E397E6FE23A0AE002320DE0023A06500E1
:100800000F00F00F37470F001307072483AF0500D1
:1008100093FF0F0163840F007D176DFB37470F00B7
:100820001307072483AF070093FF1F0063840F00A3
:100830007D176DFB9841418B19EB9843058B01EBBC
:100840003694158E850801C63387080121FFB24012
:1008500022444101828085D5B71706600A05938737
:10086000C756AA979C432178370500509385870186
:10087000938E0701138E470181489387070213085F
:100880000896130F00101305050041436DBF0111B9
:1008900006CEA307B1008D4763E9A700054693057F
:1008A000F1007535F2400561828037170660371612
:1008B0000660B71506601307875393065011130699
:1008C000C62F9385453701455D26E9BF797106D668
:1008D00022D426D24AD04ECE52CC56CA73272034C8
:1008E000B7070080AD076318F706F32900FC37044B
:1008F0000061939719001304040063D907003C5C5E
:1009000091C737C701E0054508CF8297B714066045
:100910009384C4570149854A514AB3972A01B3F7D2
:10092000370199C79C40884B88CB1C4091C3829764
:10093000050991041104E31249FF85679387078035
:1009400073A04730B250225492540259F249624A7D
:10095000D24A45618280B7F7125098474D9B98C79D
:10096000B7F712509387C71498431367270098C3AB
:10097000B7F712509387471398431367270098C31C
:1009800002C6B247F5DF7DBF83A7018889EFB7575D
:100990000500B7B601E0938707739CD20F00F00FF4
:1009A000854723A0F188828083A7018895E34111C0
:1009B00006C6D93FB7B701E037B701E09107210775
:1009C0008C4308439443E39DD5FEB24041018280AD
:1009D000B7B701E037B701E0910721078C4308431F
:1009E0009443E39DD5FE828083A70188411122C4F0
:1009F00006C626C24AC02A8491E379377537AA848D
:100A00002E895D37B30795403335F500B385254111
:100A10006394A500E3E787FEB24022449244024972
:100A200041018280011126CA06CE22CC4AC8440068
:100A300031E1930700032302F10085473E879306C7
:100A40000003634EC70401446344F6003304F640D8
:100A50003E947D147D59B387840083850700094542
:100A60007D143535E31924FFF2406244D2444249F3
:100A70000561828026878147A548B376B502138831
:100A8000760563E4D8001388060323000701B356F4
:100A9000B50285070507E363B5FA3685F9BFB38567
:100AA000E4002380D500050769BF5971A2C486C63A
:100AB000A6C2CAC04EDE52DC56DA5AD85ED6AECADC
:100AC000B2CCB6CEBAD0BED2C2D4C6D62A8405E144
:100AD0003717066037160660B71506601307C75C40
:100AE0009306A0021306463B9385C5424922DC08C3
:100AF0003ECE93095002130A000313093007930AEC
:100B00005007130B3006930B40068305040081ED5C
:100B1000B640264496440649F259625AD25A425B7C
:100B2000B25B656182806395350D83051400638730
:100B3000450305040146638B25096342B9046383B9
:100B4000650B638A7505930750026383F50A930565
:100B5000500209452D3B8305040059A809040146AC
:100B60002547294583050400938705FD93F6F70F74
:100B7000E363D7FC3306A60205043E96E5B763801F
:100B8000550593078007E394F5FCF247C1451387A9
:100B900047003ACE15A8F2478443138747003ACE60
:100BA00063DA04009305D002094532C6CD313246DE
:100BB000B3049040A9452685B5350504B9B7F24779
:100BC000A945138747003ACE8843FDB7F2478443CF
:100BD000138747003ACE83850400E5D10945850493
:100BE0007D31D5BFF24783850700138747003ACE92
:100BF00009457139D9B781476313F600828033877D
:100C0000F500834607003307F50085072300D7006A
:100C1000E5B7F16593850520094505B4411106C680
:100C2000CD3FB24001454101C1B3411106C6FD3778
:100C30004923EFF09F80EFF0DF85F5BF11CAFD1566
:100C400081473307F6000307070011E7BE852E959D
:100C500023000500828093861700AA972380E7006F
:100C6000E387B6FEB687F1BF8280828001A06971FA
:100C70002326111223248112232291123684AA845E
:100C800023202113232E31112E89BA89232C4111BF
:100C9000232A5111B28AC93FB7574553370A2061F9
:100CA000938737652320FAF04A86930500041305DD
:100CB000CAF023229AF023248AF0493756869305F6
:100CC00000041305CAF49D3F4E86930500031305E7
:100CD000CAF8AD378D47232E0AFA63EE9708B71787
:100CE0000660139724009387875DBA979443B717DC
:100CF000066001479387C74408089305F00F330641
:100D0000F700030606002DEEBA879305F00F338631
:100D1000E74036960306060019C2639BB7061387A1
:100D2000270063EEE500938707118A979306D005A5
:100D30002380D7F093060002A380D7F0BA87BE863F
:100D40001306F00F63910A0613871600930700102D
:100D50006304F70693870611B38627009307A00361
:100D60002380F6F0B306E500635B0404330480409F
:100D700005468147A1A8B71606609386C64385BF7E
:100D8000E304B7F83308E5002300C800050785BF72
:100D90003308F5002300C800850795BFB305D500CB
:100DA0002380E50085063387F64056970307070042
:100DB00041DFE395C6FE49BF1307F00F65B725EC89
:100DC000930700032302F10001468547B14813034E
:100DD0004100294821A8B3650403330EF3008507B9
:100DE00033440403938505032300BE0019C0E39434
:100DF00017FF814509CA130607119305D0020A9609
:100E00002300B6F08545AE963E861308410015E6F0
:100E1000BA97AE976382090693855700BE86B717C7
:100E20000660938747441306F00F36878506637F75
:100E3000D600BA862DA001462DBF7D16B308C80086
:100E400083C808008506A38F16FFD1B70388070063
:100E50003307D5008507A30F07FFE398B6FCB687D5
:100E60009305F00F3387D7404E970306070009C656
:100E70001387170063FAE506138747009306F00F00
:100E800063E6E60213870711B30627001307A003E2
:100E90002380E6F01306000213872711A380C6F013
:100EA0000A97930680028D072300D7F03E879305AB
:100EB000F00F63160904930737009306F00F63EBF6
:100EC000F604930707113387270093079002230046
:100ED000F7F0A947A300F7F0230107F0793389471A
:100EE000638DF402613301A0B307E500A38FC7FE51
:100EF000BA878DBF3307D500A30FC7FE3687B30669
:100F0000F740CA96038606005DD693061700E3F302
:100F1000D5FE55B7A3070110D1B78320C112032412
:100F2000811283244112032901128329C111032A4A
:100F30008111832A4111556182800F1000000F50EA
:100F4000000001000100010001008280411122C463
:100F500026C24AC006C6AA842E8432898DE137177C
:100F6000066037160660B7150660130747619306DB
:100F700020031306C6479385454F0145CD39753F7C
:100F8000814763982701B2402244924402494101BB
:100F9000828033879700834607003307F400850774
:100FA0002300D700F9BF797122D44AD006D626D2C1
:100FB0004ECE52CC56CA5AC85EC62A842E898DE1BE
:100FC0003717066037160660B715066013074760C7
:100FD0009306B0071306C6479385453A0145413944
:100FE000B70716607D55636DF40A9307040237A7AF
:100FF0003D606367F70A9377F401DDE39569256A3D
:10100000894AB7040040130B000293890920130A90
:101010008A52854B6312090237170660371606603D
:10102000B71506601307475F930600041306C6470B
:101030009385453A014525399C40F19B9CC00F00A2
:10104000F00F01473306E90008424C42B306E400C2
:1010500088C2CCC20F00F00F2107E31567FF13E72A
:10106000270098C00F00F00F232034010F00F00F6D
:10107000232044010F00F00F9CC00F00F00F753DBE
:101080006D3D81473307F400B306F90003470700BD
:1010900083C606006393E6028507E39567FF014573
:1010A000B250225492540259F249624AD24A424BF7
:1010B000B24B45618280854AB1BFE39E7AFF795584
:1010C000C5B7397122DC26DA4AD806DE4ED652D4AC
:1010D00056D25AD0AA842E8932848DE13717066001
:1010E00037160660B71506601307875E9306400A39
:1010F0001306C6479385453A0145953EB7071660E6
:101100007D5563EAF400B387840037A73D606364CC
:10111000F70001EC0145F2506254D2544259B259E1
:10112000225A925A025B2161828093FAF401638D04
:101130000A0293090002B389594113FB04FE637349
:101140003401A289130600028A855A850135CA85B1
:101150004E863305510145348A855A85A93545FDAA
:101160004E99CE9433043441A17A014A2299A29433
:10117000938A0A9639A0DA854E85353549FD0114E2
:10118000050AB3075A01330B8940B389844081C7EC
:1011900093370402EDD33DDC8A854E8513060002A9
:1011A0007533DA8522860A85B9348A854E85E53B12
:1011B0009DB7411122C426C21704000013048446BF
:1011C0009704000093840446818C4AC006C6898433
:1011D000014963159902170400001304A4449704FD
:1011E000000093842444818C89840149631D990003
:1011F000B240224492440249410182801C400509C8
:1012000011048297F9B71C40050911048297F9BFB0
:10121000426F6F7420636F756E743A2025640D0AF7
:1012200000000000536176656420746F20525241C3
:101230004D20617420307825780D0A005252414DBE
:10124000207772697465206661696C656420282561
:1012500064290D0A00000000433A5C5573657273FF
:101260005C61726D7374726F6E6773756265726FB5
:101270005C4465736B746F705C50726F64756374FB
:10128000735C30325F526F766172695F537475645C
:10129000696F5C526F766172695F53797374656DC3
:1012A0005F53747564696F5C746172676574735CB5
:1012B00042616F6368697031785C76656E646F72E5
:1012C0002F62616F31785F6770696F2E6300000075
:1012D000706F7274203C204750494F5F4E554D5FF0
:1012E000504F52545300000070696E203C3D20471F
:1012F00050494F5F4D41585F50494E00433A5C554D
:10130000736572735C61726D7374726F6E677375FF
:101310006265726F5C4465736B746F705C50726F62
:1013200064756374735C30325F526F766172695FAB
:1013300053747564696F5C526F766172695F53793B
:101340007374656D5F53747564696F5C7461726703
:101350006574735C42616F6368697031785C76654F
:101360006E646F722F62616F31785F756172742E77
:1013700063000000696E7374616E6365203C2055E4
:101380004152545F494E5354414E43455F434F557C
:101390004E5400006261756472617465203E2030B5
:1013A0007500000028646174612920213D204E559C
:1013B0004C4C0000433A5C55736572735C61726D0E
:1013C0007374726F6E6773756265726F5C44657378
:1013D0006B746F705C50726F64756374735C3032E1
:1013E0005F526F766172695F53747564696F5C52A6
:1013F0006F766172695F53797374656D5F5374754D
:1014000064696F5C746172676574735C42616F6379
:1014100068697031785C76656E646F722F62616F97
:101420005F737464696F2E630000000028666D743A
:101430002920213D204E554C4C000000554E4B4E6E
:101440004F574E003A20696E200000005B5345560E
:10145000532D00004153534552540000494E56410C
:101460005249414E54000000434845434B000000A0
:10147000554E524541434841424C4500433A5C5524
:10148000736572735C61726D7374726F6E6773757E
:101490006265726F5C4465736B746F705C50726FE1
:1014A00064756374735C30325F526F766172695F2A
:1014B00053747564696F5C526F766172695F5379BA
:1014C0007374656D5F53747564696F5C7461726782
:1014D0006574735C42616F6368697031785C7665CE
:1014E0006E646F722F62616F31785F7272616D2E00
:1014F00063000000286275662920213D204E554C6E
:101500004C0000006770696F5F70756C6C5F757080
:10151000000000006770696F5F7365745F646972D3
:10152000000000006770696F5F7365745F66756EB9
:101530006374696F6E000000756172745F7075741A
:1015400063000000756172745F77726974650000F2
:10155000756172745F696E697400000001000000BB
:1015600002000000040000000800000000101050FD
:10157000002010500030105000401050004000E09B
:10158000005000E0000001E0001001E0002001E058
:10159000003001E0004001E0005001E0006001E0A7
:1015A000007001E0006000E0007000E0008000E0FA
:1015B000009000E000A000E000B000E000C000E00B
:1015C00000D000E000E000E000F000E06D696E692E
:1015D0005F7072696E746600541406605C14066075
:1015E00068140660701406607272616D5F777269CC
:1015F0007465000077726974655F706167655F721A
:10160000617700007272616D5F77726974655F70F7
:10161000616765007272616D5F72656164000000F0
:04000005600603008E
:00000001FF
