:02000004600694
:100300009701FA009381015017011A01130181CF5F
:100310000171970200009382E205739052309702B8
:10032000FA00938222CE1703FA0013036328638630
:10033000620023A002009102DDBF97220000938299
:10034000A2C61703FA001303E3CB9703FA009383C3
:1003500063CB6309730003AE02002320C301910243
:100360001103C5BFEF00A07D73005010F5BF010061
:100370007310013417011A011301C1C8130181F769
:1003800006C00EC412C616C81ACA1ECC22CE26D06B
:100390002AD22ED432D636D83ADA3EDC42DEC6C075
:1003A000CAC2CEC4D2C6D6C8DACADECCE2CEE6D045
:1003B000EAD2EED4F2D6F6D8FADAFEDCF322103422
:1003C00096DEF322003016C1F322003416C21171FA
:1003D000C12B17011A011301E1C2130181F7F65273
:1003E000739012348A42739002308240A2413242AA
:1003F000C2425243E243724482541255A2553256CD
:10040000C2565257E257725886481649A649364A8C
:10041000C64A564BE64B764C865C165DA65D365E4C
:10042000C65E565FE65F1241730020300100130084
:10043000000013000000130000001D71BAC8F8008E
:100440002E85BECAC6CE06DE22DC26DAB6C6C2CCF1
:100450003AC68147C1489305500213034006130E64
:100460005007930E3007130F30068306060099C21B
:1004700063931703938707038A97B725066070086D
:10048000238607FE93854582EF10A007F250625441
:10049000D25425618280638BB6001384070333082E
:1004A000240005062306D8FE8507C1B7830616007B
:1004B00009066391660814439302470063DB060252
:1004C000138707030A971308D002230607FFB30612
:1004D000D04085070147AD430008A94F9DE2C146C2
:1004E0001308C101B30FD10019C3639AD70216874D
:1004F000ADBF0147EDF2130700032308E1000547F4
:10050000D9BFE30E77FC33E8F603B304E400050734
:1005100013080803B3C6F60323800401C1B77D178F
:100520003384EF0003440400B303F80085072380FD
:1005300083005DBF6394C6071443930247008DCECA
:1005400003080101014723080101AD430008A94F39
:1005500085EAC1461308C101B30FD10049DBE38826
:10056000D7F87D173384EF0003440400B303F80089
:10057000850723808300DDB7130800030547E1B733
:10058000E30977FC33F8F603B304E4000507130826
:100590000803B3D6F603238004015DBF639DD60331
:1005A00003280700930F4700630D08003E87C142F0
:1005B0009303C101B306F740C2968386060081E625
:1005C000BA877E875DB5E30D57FE3384E3002300D1
:1005D000D4000507C5B7639BE6010328070093868F
:1005E00007038A96238606FF11077DBDE39FB6E6C3
:1005F000938607038A962386B6FE7DB54111B725FB
:10060000060022C4938505A801453704006106C68B
:1006100013040400EF009003034684004C4008409C
:10062000EF00F03FEF00D037372606602285130633
:100630008682814519353726066022851306868312
:100640008545E53B85463D469305000213050006BA
:10065000EF00305B0547B146130600029305000327
:1006600013050005EF0070542244B24041016F00B1
:10067000503483A641D93726066037050061411101
:10068000138716001305050013064684954506C614
:1006900023AAE1D85D33EF00D031B2401305401FEB
:1006A000410129A9B70700619387070013070004D8
:1006B000D8C31307C00323A007002384E700828068
:1006C000411122C426C24AC006C69547AA842E8478
:1006D000328963F2A7023727066037260660B725FE
:1006E0000660130707B993068004130606859385F1
:1006F000858C01457121BD4763F28702372706606B
:1007000037260660B7250660130707B993069004DD
:10071000130606859385058E01459D21B7C70414F0
:1007200013553400938707C03E95860426950A0525
:100730001D881C4106040D47331787001347F7FF38
:100740007D8F93773900B240B39787002244D98FC9
:100750001CC19244024941018280411122C426C237
:100760004AC006C695472A84AE84328963F2A7023E
:100770003727066037260660B7250660130707B8D7
:1007800093066006130606859385858C0145CD2E5C
:10079000BD4763F297023727066037260660B72504
:1007A0000660130707B8930670061306068593853F
:1007B000058E0145F126B7C70414938727C5330575
:1007C000F4000A051C418545B3959500630A0900AC
:1007D000DD8DB24022440CC1924402494101828025
:1007E00093C5F5FFFD8DF5B7411122C426C206C69B
:1007F00095472A84AE8463F2A7023727066037261E
:100800000660B7250660130707B79306000A1306AC
:1008100006859385858C0145A526BD4763F2970221
:100820003727066037260660B7250660130707B727
:100830009306100A130606859385058E01458926C1
:10084000B7C70414938787C53E940A041C408545A6
:10085000B3959500DD8DB2400CC022449244410115
:100860008280411122C406C626C24AC08D472E840A
:1008700063F1A70E3727066037260660B7250660A6
:10088000130747BA9306B0071306468F9385C5969C
:100890000145FD2461C00145B24022449244024911
:1008A0004101828083A781D995E3B7371050D8538F
:1008B000B7576E0A9387079C418319C7B7470F0044
:1008C00093870724B307F70223ACF1D8B727066054
:1008D00013192500938707BBB7061050CA97984293
:1008E0009C43D98F9CC289476315F5020546328522
:1008F000B545F9330146B54505458535B545054549
:10090000E53505463285B945653B0546B94532852D
:10091000A93503A781D993571400BA97054763E413
:10092000870033D78702B7270660938707BCCA972B
:10093000944323A206020F00F00F9317070193E7D9
:100940006731DCD20F00F00F03A581D93355E502E2
:10095000A1B7A9F93727066037260660B7250660D4
:10096000130747BA9306C0071306468F9385C598A9
:10097000014539240DB703A581D915E1B7371050CA
:10098000DC5337556E0A1305059CC18399C737455B
:100990000F00130505243385A70223ACA1D882805C
:1009A000797106D622D426D24AD04ECE52CC56CA1F
:1009B00073272034B7070080AD076318F706F329C3
:1009C00000FC37040061939719001304C40063D935
:1009D00007003C5C91C737C701E0054508CF829707
:1009E000B7240660938404BD0149854A514AB397F0
:1009F0002A01B3F7370199C79C40884B88CB1C402C
:100A000091C38297050991041104E31249FF856798
:100A10009387078073A04730B250225492540259F2
:100A2000F249624AD24A45618280B7F7125098472C
:100A30004D9B98C7B7F712509387C7149843136715
:100A4000270098C3B7F7125093874713984313674B
:100A5000270098C302C6B247F5DF7DBF83A7C1D97F
:100A600089EFB7570500B7B601E0938707739CD2AB
:100A70000F00F00F854723AEF1D8828083A7C1D93C
:100A800095E3411106C6D93FB7B701E037B701E09A
:100A9000910721078C4308439443E39DD5FEB24060
:100AA00041018280B7B701E037B701E09107210724
:100AB0008C4308439443E39DD5FE828083A7C1D92C
:100AC000411122C406C626C24AC02A8491E379375E
:100AD0007537AA842E895D37B30795403335F50005
:100AE000B38525416394A500E3E787FEB240224425
:100AF000924402494101828081476313F60082805B
:100B00003387F500834607003307F5008507230088
:100B1000D700E5B72A96AA876393C7008280850726
:100B2000A38FB7FED5BFF16593850520094515BB99
:100B3000411106C6CD3FB2400145410141B74111C7
:100B400006C6FD37EF007045553C2536FDBF11CA7E
:100B5000FD1581473307F6000307070011E7BE853F
:100B60002E9523000500828093861700AA97238084
:100B7000E700E387B6FEB687F1BF8280828001A0DE
:100B800069712326111223248112232291123684A3
:100B9000AA8423202113232E31112E89BA89232CD4
:100BA0004111232A5111B28AC93FB7574553370A19
:100BB0002061938737652320FAF04A869305000465
:100BC0001305CAF023229AF023248AF04937568667
:100BD000930500041305CAF49D3F4E869305000358
:100BE0001305CAF8AD378D47232E0AFA63EE97082E
:100BF000B727066013972400938707C2BA979443D8
:100C0000B727066001479387C79A08089305F00F36
:100C10003306F700030606002DEEBA879305F00FA2
:100C20003386E74036960306060019C2639BB70673
:100C30001387270063EEE500938707118A979306D1
:100C4000D0052380D7F093060002A380D7F0BA879F
:100C5000BE861306F00F63910A06138716009307EA
:100C600000106304F70693870611B38627009307E5
:100C7000A0032380F6F0B306E500635B04043304AD
:100C8000804005468147A1A8B72606609386C6998D
:100C900085BFE304B7F83308E5002300C800050763
:100CA00085BF3308F5002300C800850795BFB3054D
:100CB000D5002380E50085063387F6405697030765
:100CC000070041DFE395C6FE49BF1307F00F65B784
:100CD00025EC930700032302F10001468547B14844
:100CE00013034100294821A8B3650403330EF30020
:100CF000850733440403938505032300BE0019C010
:100D0000E39417FF814509CA130607119305D00222
:100D10000A962300B6F08545AE963E86130841003C
:100D200015E6BA97AE976382090693855700BE868B
:100D3000B72706609387479A1306F00F3687850614
:100D4000637FD600BA862DA001462DBF7D16B3085D
:100D5000C80083C808008506A38F16FFD1B7038893
:100D600007003307D5008507A30F07FFE398B6FCFC
:100D7000B6879305F00F3387D7404E9703060700D9
:100D800009C61387170063FAE50613874700930621
:100D9000F00F63E6E60213870711B3062700130777
:100DA000A0032380E6F01306000213872711A38017
:100DB000C6F00A97930680028D072300D7F03E877E
:100DC0009305F00F63160904930737009306F00F9D
:100DD00063EBF6049307071133872700930790020C
:100DE0002300F7F0A947A300F7F0230107F07933B8
:100DF0008947638DF402613301A0B307E500A38F37
:100E0000C7FEBA878DBF3307D500A30FC7FE36874D
:100E1000B306F740CA96038606005DD69306170010
:100E2000E3F3D5FE55B7A3070110D1B78320C11254
:100E30000324811283244112032901128329C11141
:100E4000032A8111832A411155618280011122CC2C
:100E500026CA06CE8D47AA842E8463F0A70E3727B4
:100E6000066037260660B7250660130747C4930659
:100E700020031306C69D938545A50145113345E41E
:100E80003727066037260660B7250660130747C474
:100E9000930630031306C69D938545A60145CD31C3
:100EA0008D4763E29708C13C95473304F402B706C7
:100EB000105033558502139424007D1523A0A1DA28
:100EC000B7270660938707C5A29798429C43D98F9E
:100ED0009CC29DE005463285AD45EFF06FFE0546AC
:100EE0003285B145EFF0CFFDAD450545EFF0DF8F21
:100EF000B1450545EFF05F8FB7270660938707C6BA
:100F0000338787001843854654DB0F00F00F9306A4
:100F1000300602C6324763DDE600A2979C4323AA4F
:100F200007020F00F00FF2406244D2440561828054
:100F30000100324705073AC6F1BFB5F591B7011177
:100F400022CC26CA4AC84EC606CE2A89AE89B284A9
:100F500036840DE23727066037260660B72506601F
:100F6000130707C3930690051306C69D938545A7EF
:100F70000145393137070050814713070708639946
:100F8000870C03D701DAB70600E0B7070050938754
:100F90000700558F98C3139719001377F70FB706FB
:100FA0000070558F98C723A207000D4709C837075F
:100FB00000C0418FD8C73707008098CB154713056D
:100FC0001700372606600A073E97B706002013066B
:100FD00006C69315290014C33307B6001843B74655
:100FE0000F00938606249308870103A8080013784E
:100FF000080163040800FD16EDFAB7460F0093865A
:101000000624032887021378080163040800FD16EC
:10101000EDFA29E81CD3931725005CD3D1471CD7E0
:101020000F00F00F2E961442B7470F009387072446
:10103000138686021842418B19C3FD17E5FF31E084
:10104000F2406244D2444249B2490145056182807E
:10105000B386F40003C60600B386E7008507238045
:10106000C60031BFB70600509386060814CB40CBAC
:10107000C14614CF45B7FD17E1D7984E418B65FFA8
:10108000C1B7B7470F0093870724C5BF411106C6F4
:101090007D35B2403335A00041018280011183C506
:1010A00061DAA306A10003A581DA7000894606CEA5
:1010B00023060100E13FF240056182801D89411154
:1010C0001365050B06C622C42E84C93F1375F400B0
:1010D000F137135544002244B24013650501410124
:1010E00075BF011122CC2E862EC6AA8506CE13848A
:1010F000019193070004138511912300F400ED3A48
:10110000324683C561DA9306160022866244F240B5
:1011100003A581DAC206C18205618DBF931705015F
:10112000C18393B70708A1C363CF050283C751DA10
:1011300063DBF502854713D735409D896307F600C9
:1011400089466302D6040DC28280B70700611E077C
:1011500093874719BA973E95834705003316B60023
:10116000D18F2300F5008280B70600611E079386A9
:10117000461936973A9503470500B397B70093C7CA
:10118000F7FFF98FF9BFB70600611E07938646196E
:1011900036973A9503470500B397B700B98FD1B793
:1011A00037050061130600408145130545196FF0AE
:1011B0007F9641114AC003C741DA06C622C426C23F
:1011C000A14763F2E7023727066037260660B72596
:1011D0000660130747C893062017130646A8938591
:1011E00045B20545713AB70400610144938444193E
:1011F00083C741DA6368F400B24022449244024952
:101200004101828022858145553D13157400930567
:10121000000826950504F1351374F40FD1BF411170
:1012200093F5F50F22C423A4A1DA2383C1DAA382A4
:10123000B1DA8D812382B1DA06C6A14763F3B70222
:101240003727066037260660B7250660130747C9AB
:1012500093069010130646A8938545B20545EFF016
:101260003F92370500611306800881451305850804
:10127000EFF05F8A2945EFF07F841305E00A393DDE
:101280001305E002213D1305500D093D130500082B
:1012900031351305800A193503C551DA7D151375EB
:1012A000F50FED3B1305300DD53B0145C53B13054F
:1012B0000004ED331305D008D5335145C53313056C
:1012C0000002E93B0945D93B1305100AC13B130550
:1012D000800CE9331305A00DD13303C751DA93070E
:1012E000000409456313F70049454D3B13051008F9
:1012F00075331305F0085D331305900D4533130561
:10130000100F693B1305B00D513B130500047933F1
:101310001305400A61331305600A49331305F00AC7
:10132000B53B1305E0029D3BA53D2244B24041017F
:1013300049B5011122CC26CA4AC806CEAA843289F0
:10134000014463482401F2406244D24442490561A9
:10135000828033059400420536864185050436C6F1
:101360002EC44204653BB246A2454184D9BF011157
:1013700022CC26CA4AC806CEAE84328901446348CC
:101380002401F2406244D244424905618280B3059F
:101390009400C2053686C185050436C62AC44204B7
:1013A000B53BB24622454184D9BF01114EC6B6892C
:1013B000BA8606CE22CC26CA4AC852C43A842E899E
:1013C000AA84328ABD379385F9FFCA95C205A286E1
:1013D00052862685C185B13FA2864E86CA8526855E
:1013E00079371305FAFFA2866244F240224A269515
:1013F0004E86D244B249CA854249420541850561BB
:10140000BDB739714AD805493309C940420922DCC0
:1014100026DA4ED652D456D206DE5AD05ECEAA89ED
:101420002E8A3284B68A135909418144635D94003F
:10143000F2506254D2544259B259225A925A025B23
:10144000F24B21618280B3878900139B0701B305AA
:101450009A00135B0B41C205C1855A8556862EC67C
:101460007539B3878940939B0701B24593DB0B41E4
:101470005E8556866531B3059A40C205C1855A8599
:1014800056862EC66139B2455E8556864139B38788
:101490009900139B0701B3054401135B0B41C2057F
:1014A000C18556865A852EC69539B3879940939B38
:1014B0000701B24593DB0B4156865E858531B30546
:1014C0008A40C205C18556865A852EC68139B245E5
:1014D00056865E85A1311387140093140701C184D9
:1014E00093071900634920010607BA97139907016A
:1014F0001359094125BF7D14420441843387844038
:10150000E5B71D7122DC26DA06DEB2C4B6C6BAC85B
:10151000BECAC2CCC6CE2A84AE8495E13727066007
:1015200037260660B7250660130707C79306C02451
:10153000130646A8938545B40145EFF06FE483C7D1
:1015400041DA6374F40C9D4763F387023727066022
:1015500037260660B7250660130707C79306F024F1
:10156000130646A8938545B50545EFF06FE1B80031
:101570003AC68147414513065002130840069308B6
:10158000500713033007130E30068386040099C2F8
:101590006392A708938707038A97238607FEC547A8
:1015A000B307F40237070061130787086808B3849C
:1015B000E700A685992C31C96C082685352CB7071C
:1015C00000619387471993147400BE9413060008B2
:1015D00081452685EFF00FD43725066026867808EA
:1015E000814613080002130505CA8305070089C553
:1015F00093B79607639F071681452285EFF01FACCE
:10160000930500082685EFF0DFADF2506254D25406
:1016100025618280638AC600938507038A958504C5
:101620002386D5FE850795B78386140089046391C8
:1016300006091443130F470063DB060213870703F1
:101640000A979305D0022306B7FEB306D04085075C
:101650000147AD4F93020101A94E95E2C1466C08C6
:10166000B30ED10019C3639AD7027A8739BF0147F5
:10167000EDF2130700032308E1000547D9BFE30F8C
:10168000F7FDB3E5D603B383E200050793850503B1
:10169000B3C6D6032380B300C9B77D17B382EE006B
:1016A00083C20200B38FF500850723805F005DBF12
:1016B000639416071443130F47008DCE8305010171
:1016C00001472308B100AD4F93020101A94E9DE6E9
:1016D000C1466C08B30ED10049DBE388D7F87D170B
:1016E000B382EE0083C20200B38FF500850723802A
:1016F0005F00DDB7930500030547E1B7E30AF7FD97
:10170000B3F5D603B383E200050793850503B3D68B
:10171000D6032380B30065BF639B66020C43930E20
:10172000470081CD3E87414F930FC101B306F7407B
:10173000AE968386060081E6BA877687B9B5E30D53
:10174000E7FFB382EF002380D2000507C5B7639A95
:10175000C6010C43938607038A962386B6FE1107BB
:10176000D1B5E394C6E2938607038A962386C6FE24
:1017700055BDAE8763D40501930700028117E207C8
:10178000E1878E07AA978C43DC43A1060CC25CC29A
:1017900093F6F60F0507210689BD411122C426C222
:1017A0001714000013040480970400009384847FBE
:1017B000818C4AC006C689840149631599021704C1
:1017C00000001304247E970400009384E47D818C40
:1017D00089840149631D9900B24022449244024920
:1017E000410182801C40050911048297F9B71C4011
:1017F000050911048297F9BFAA8703C70500850769
:101800008505A38FE7FE75FB82800346050083C62E
:101810000500050585056313D60065FA3305D64036
:10182000828000002573000042616F636869702D3B
:101830003178000000000000526F76617269205319
:10184000444B0000436F756E743A2025750000000C
:10185000433A5C55736572735C61726D7374726F39
:101860006E6773756265726F5C4465736B746F70DD
:101870005C50726F64756374735C30325F526F7664
:101880006172695F53747564696F5C526F766172DF
:10189000695F53797374656D5F53747564696F5CC8
:1018A000746172676574735C42616F6368697031FB
:1018B000785C76656E646F722F62616F31785F67F6
:1018C00070696F2E63000000706F7274203C2047B7
:1018D00050494F5F4E554D5F504F525453000000DA
:1018E00070696E203C3D204750494F5F4D41585F25
:1018F00050494E00433A5C55736572735C61726D7A
:101900007374726F6E6773756265726F5C44657332
:101910006B746F705C50726F64756374735C30329B
:101920005F526F766172695F53747564696F5C5260
:101930006F766172695F53797374656D5F53747507
:1019400064696F5C746172676574735C42616F6334
:1019500068697031785C76656E646F722F62616F52
:1019600031785F756172742E63000000696E737464
:10197000616E6365203C20554152545F494E53547B
:10198000414E43455F434F554E54000062617564BC
:1019900072617465203E203075000000554E4B4E3C
:1019A0004F574E003A20696E200000005B534556A9
:1019B000532D00004153534552540000494E5641A7
:1019C0005249414E54000000434845434B0000003B
:1019D000554E524541434841424C4500433A5C55BF
:1019E000736572735C61726D7374726F6E67737519
:1019F0006265726F5C4465736B746F705C50726F7C
:101A000064756374735C30325F526F766172695FC4
:101A100053747564696F5C526F766172695F537954
:101A20007374656D5F53747564696F5C746172671C
:101A30006574735C42616F6368697031785C766568
:101A40006E646F722F62616F31785F6932632E63EB
:101A500000000000696E7374616E6365203C3D2078
:101A60003300000073706565645F687A203E203043
:101A70000000000028646174612920213D204E553A
:101A80004C4C0000433A5C55736572735C61726D37
:101A90007374726F6E6773756265726F5C446573A1
:101AA0006B746F705C50726F64756374735C30320A
:101AB0005F526F766172695F53747564696F5C52CF
:101AC0006F766172695F53797374656D5F53747576
:101AD00064696F5C746172676574735C42616F63A3
:101AE00068697031785C726F766172692F647269AF
:101AF000766572732F726F766172695F737364318A
:101B00003330362E6300000070616765203C20533F
:101B10005344313330365F4D41585F504147455350
:101B2000000000006F6C65645F7061676573203C46
:101B30003D20535344313330365F4D41585F50415F
:101B40004745530028666D742920213D204E554C91
:101B50004C0000006C696E65203C205353443133C7
:101B600030365F4D41585F504147455300000000FB
:101B70006770696F5F70756C6C5F75700000000056
:101B80006770696F5F7365745F646972000000005D
:101B90006770696F5F7365745F66756E6374696F94
:101BA0006E000000756172745F696E6974000000F8
:101BB0000100000002000000040000000800000016
:101BC00000101050002010500030105000401050F5
:101BD000004000E0005000E0000001E0001001E0E3
:101BE000002001E0003001E0004001E0005001E091
:101BF000006001E0007001E0006000E0007000E0C3
:101C0000008000E0009000E000A000E000B000E0F4
:101C100000C000E000D000E000E000E000F000E0E4
:101C2000B4190660BC190660C8190660D0190660B0
:101C30006932635F77726974655F626C6F636B6949
:101C40006E6700006932635F696E697400000000AE
:101C50000001000000020000000400000008000075
:101C60000090105000A0105000B0105000C0105054
:101C70006F6C65645F7072696E74665F6C696E65C7
:101C8000000000006F6C65645F646973706C61795B
:101C9000000000006F6C65645F696E69740000008D
:101CA000000000000000000000005F0000000000D5
:101CB000000007000700000000147F147F140000DC
:101CC00000242A7F2A120000002313086462000007
:101CD00000364955225000000000050300000000B6
:101CE000001C2241000000000041221C00000000F6
:101CF00000082A1C2A0800000008083E0808000006
:101D000000A06000000000000008080808080000AB
:101D100000606000000000000020100804020000C5
:101D2000003E5149453E00000000427F4000000057
:101D300000625149494600000022414949360000ED
:101D4000001814127F100000002745454539000097
:101D5000003C4A49493000000001710905030000B8
:101D6000003649494936000000064949291E00004D
:101D700000003636000000000000AC6C00000000DF
:101D80000008142241000000001414141414000070
:101D90000041221408000000000201510906000061
:101DA00000324979413E0000007E0909097E0000A9
:101DB000007F494949360000003E41414122000070
:101DC000007F4141221C0000007F49494941000039
:101DD000007F090909010000003E414151720000E5
:101DE000007F0808087F000000417F4100000000DC
:101DF000002040413F010000007F08142241000004
:101E0000007F404040400000007F020C027F000045
:101E1000007F0408107F0000003E4141413E000069
:101E2000007F090909060000003E4151215E0000C3
:101E3000007F09192946000000264949493200005F
:101E40000001017F01010000003F4040403F0000D1
:101E5000001F2040201F0000003F4038403F00008E
:101E600000631408146300000003047804030000F6
:101E70000061514945430000007F414100000000DE
:101E800000020408102000000041417F0000000013
:101E900000040201020400000080808080800000B5
:101EA0000001020400000000002054545478000097
:101EB000007F4844443800000038444428000000B3
:101EC00000384444487F000000385454541800003F
:101ED00000087E09020000000018A4A4A47C0000F1
:101EE000007F08040478000000007D00000000006E
:101EF0000080847D00000000007F10284400000066
:101F000000417F4000000000007C041804780000BD
:101F1000007C08047C0000000038444438000000C5
:101F200000FC24241800000000182424FC000000F9
:101F300000007C0804000000004854542400000005
:101F400000047F4400000000003C40407C00000092
:101F5000001C2040201C0000003C4030403C0000A1
:101F60000044281028440000001CA0A07C000000B1
:101F7000004464544C440000000836410000000056
:101F800000007F0000000000004136080000000053
:101F9000000201010201000000020505020000002C
:041FA000A40606602D
:04000005600603008E
:00000001FF
